{
  "_format": "hh-sol-artifact-1",
  "contractName": "Badges",
  "sourceName": "contracts/Badges.sol",
  "abi": [
    {
      "anonymous": false,
      "inputs": [
        {
          "indexed": true,
          "internalType": "address",
          "name": "owner",
          "type": "address"
        },
        {
          "indexed": true,
          "internalType": "address",
          "name": "approved",
          "type": "address"
        },
        {
          "indexed": true,
          "internalType": "uint256",
          "name": "tokenId",
          "type": "uint256"
        }
      ],
      "name": "Approval",
      "type": "event"
    },
    {
      "anonymous": false,
      "inputs": [
        {
          "indexed": true,
          "internalType": "address",
          "name": "owner",
          "type": "address"
        },
        {
          "indexed": true,
          "internalType": "address",
          "name": "operator",
          "type": "address"
        },
        {
          "indexed": false,
          "internalType": "bool",
          "name": "approved",
          "type": "bool"
        }
      ],
      "name": "ApprovalForAll",
      "type": "event"
    },
    {
      "anonymous": false,
      "inputs": [
        {
          "indexed": false,
          "internalType": "string",
          "name": "name",
          "type": "string"
        },
        {
          "indexed": true,
          "internalType": "uint256",
          "name": "id",
          "type": "uint256"
        }
      ],
      "name": "BadgeCreated",
      "type": "event"
    },
    {
      "anonymous": false,
      "inputs": [
        {
          "indexed": true,
          "internalType": "bytes32",
          "name": "role",
          "type": "bytes32"
        },
        {
          "indexed": true,
          "internalType": "bytes32",
          "name": "previousAdminRole",
          "type": "bytes32"
        },
        {
          "indexed": true,
          "internalType": "bytes32",
          "name": "newAdminRole",
          "type": "bytes32"
        }
      ],
      "name": "RoleAdminChanged",
      "type": "event"
    },
    {
      "anonymous": false,
      "inputs": [
        {
          "indexed": true,
          "internalType": "bytes32",
          "name": "role",
          "type": "bytes32"
        },
        {
          "indexed": true,
          "internalType": "address",
          "name": "account",
          "type": "address"
        },
        {
          "indexed": true,
          "internalType": "address",
          "name": "sender",
          "type": "address"
        }
      ],
      "name": "RoleGranted",
      "type": "event"
    },
    {
      "anonymous": false,
      "inputs": [
        {
          "indexed": true,
          "internalType": "bytes32",
          "name": "role",
          "type": "bytes32"
        },
        {
          "indexed": true,
          "internalType": "address",
          "name": "account",
          "type": "address"
        },
        {
          "indexed": true,
          "internalType": "address",
          "name": "sender",
          "type": "address"
        }
      ],
      "name": "RoleRevoked",
      "type": "event"
    },
    {
      "anonymous": false,
      "inputs": [
        {
          "indexed": true,
          "internalType": "address",
          "name": "from",
          "type": "address"
        },
        {
          "indexed": true,
          "internalType": "address",
          "name": "to",
          "type": "address"
        },
        {
          "indexed": true,
          "internalType": "uint256",
          "name": "tokenId",
          "type": "uint256"
        }
      ],
      "name": "Transfer",
      "type": "event"
    },
    {
      "inputs": [],
      "name": "DEFAULT_ADMIN_ROLE",
      "outputs": [
        {
          "internalType": "bytes32",
          "name": "",
          "type": "bytes32"
        }
      ],
      "stateMutability": "view",
      "type": "function"
    },
    {
      "inputs": [
        {
          "internalType": "address",
          "name": "",
          "type": "address"
        },
        {
          "internalType": "uint256",
          "name": "",
          "type": "uint256"
        }
      ],
      "name": "_badgeHoldings",
      "outputs": [
        {
          "internalType": "bool",
          "name": "",
          "type": "bool"
        }
      ],
      "stateMutability": "view",
      "type": "function"
    },
    {
      "inputs": [
        {
          "internalType": "uint256",
          "name": "",
          "type": "uint256"
        }
      ],
      "name": "_badgeNames",
      "outputs": [
        {
          "internalType": "string",
          "name": "",
          "type": "string"
        }
      ],
      "stateMutability": "view",
      "type": "function"
    },
    {
      "inputs": [
        {
          "internalType": "uint256",
          "name": "",
          "type": "uint256"
        }
      ],
      "name": "_badgeType",
      "outputs": [
        {
          "internalType": "uint256",
          "name": "",
          "type": "uint256"
        }
      ],
      "stateMutability": "view",
      "type": "function"
    },
    {
      "inputs": [
        {
          "internalType": "address",
          "name": "to",
          "type": "address"
        },
        {
          "internalType": "uint256",
          "name": "tokenId",
          "type": "uint256"
        }
      ],
      "name": "approve",
      "outputs": [],
      "stateMutability": "nonpayable",
      "type": "function"
    },
    {
      "inputs": [
        {
          "internalType": "uint256",
          "name": "badgeId",
          "type": "uint256"
        }
      ],
      "name": "badgeName",
      "outputs": [
        {
          "internalType": "string",
          "name": "",
          "type": "string"
        }
      ],
      "stateMutability": "view",
      "type": "function"
    },
    {
      "inputs": [
        {
          "internalType": "uint256",
          "name": "_id",
          "type": "uint256"
        }
      ],
      "name": "badgeRole",
      "outputs": [
        {
          "internalType": "bytes32",
          "name": "",
          "type": "bytes32"
        }
      ],
      "stateMutability": "pure",
      "type": "function"
    },
    {
      "inputs": [
        {
          "internalType": "address",
          "name": "owner",
          "type": "address"
        }
      ],
      "name": "balanceOf",
      "outputs": [
        {
          "internalType": "uint256",
          "name": "",
          "type": "uint256"
        }
      ],
      "stateMutability": "view",
      "type": "function"
    },
    {
      "inputs": [
        {
          "internalType": "string",
          "name": "name",
          "type": "string"
        }
      ],
      "name": "createBadge",
      "outputs": [
        {
          "internalType": "uint256",
          "name": "",
          "type": "uint256"
        }
      ],
      "stateMutability": "nonpayable",
      "type": "function"
    },
    {
      "inputs": [
        {
          "internalType": "uint256",
          "name": "startToken",
          "type": "uint256"
        },
        {
          "internalType": "uint256",
          "name": "endToken",
          "type": "uint256"
        }
      ],
      "name": "fixBadgeHoldings",
      "outputs": [
        {
          "internalType": "bool",
          "name": "",
          "type": "bool"
        }
      ],
      "stateMutability": "nonpayable",
      "type": "function"
    },
    {
      "inputs": [
        {
          "internalType": "uint256",
          "name": "tokenId",
          "type": "uint256"
        }
      ],
      "name": "getApproved",
      "outputs": [
        {
          "internalType": "address",
          "name": "",
          "type": "address"
        }
      ],
      "stateMutability": "view",
      "type": "function"
    },
    {
      "inputs": [
        {
          "internalType": "bytes32",
          "name": "role",
          "type": "bytes32"
        }
      ],
      "name": "getRoleAdmin",
      "outputs": [
        {
          "internalType": "bytes32",
          "name": "",
          "type": "bytes32"
        }
      ],
      "stateMutability": "view",
      "type": "function"
    },
    {
      "inputs": [
        {
          "internalType": "bytes32",
          "name": "role",
          "type": "bytes32"
        },
        {
          "internalType": "address",
          "name": "account",
          "type": "address"
        }
      ],
      "name": "grantRole",
      "outputs": [],
      "stateMutability": "nonpayable",
      "type": "function"
    },
    {
      "inputs": [
        {
          "internalType": "bytes32",
          "name": "role",
          "type": "bytes32"
        },
        {
          "internalType": "address",
          "name": "account",
          "type": "address"
        }
      ],
      "name": "hasRole",
      "outputs": [
        {
          "internalType": "bool",
          "name": "",
          "type": "bool"
        }
      ],
      "stateMutability": "view",
      "type": "function"
    },
    {
      "inputs": [
        {
          "internalType": "address",
          "name": "owner",
          "type": "address"
        },
        {
          "internalType": "uint256",
          "name": "badgeId",
          "type": "uint256"
        }
      ],
      "name": "holdsBadge",
      "outputs": [
        {
          "internalType": "bool",
          "name": "",
          "type": "bool"
        }
      ],
      "stateMutability": "view",
      "type": "function"
    },
    {
      "inputs": [
        {
          "internalType": "string",
          "name": "name",
          "type": "string"
        },
        {
          "internalType": "string",
          "name": "symbol",
          "type": "string"
        }
      ],
      "name": "initialize",
      "outputs": [],
      "stateMutability": "nonpayable",
      "type": "function"
    },
    {
      "inputs": [
        {
          "internalType": "address",
          "name": "owner",
          "type": "address"
        },
        {
          "internalType": "address",
          "name": "operator",
          "type": "address"
        }
      ],
      "name": "isApprovedForAll",
      "outputs": [
        {
          "internalType": "bool",
          "name": "",
          "type": "bool"
        }
      ],
      "stateMutability": "view",
      "type": "function"
    },
    {
      "inputs": [
        {
          "internalType": "address",
          "name": "to",
          "type": "address"
        },
        {
          "internalType": "uint256",
          "name": "badgeId",
          "type": "uint256"
        },
        {
          "internalType": "string",
          "name": "tokenURI",
          "type": "string"
        }
      ],
      "name": "mint",
      "outputs": [],
      "stateMutability": "nonpayable",
      "type": "function"
    },
    {
      "inputs": [],
      "name": "name",
      "outputs": [
        {
          "internalType": "string",
          "name": "",
          "type": "string"
        }
      ],
      "stateMutability": "view",
      "type": "function"
    },
    {
      "inputs": [
        {
          "internalType": "uint256",
          "name": "tokenId",
          "type": "uint256"
        }
      ],
      "name": "ownerOf",
      "outputs": [
        {
          "internalType": "address",
          "name": "",
          "type": "address"
        }
      ],
      "stateMutability": "view",
      "type": "function"
    },
    {
      "inputs": [
        {
          "internalType": "bytes32",
          "name": "role",
          "type": "bytes32"
        },
        {
          "internalType": "address",
          "name": "account",
          "type": "address"
        }
      ],
      "name": "renounceRole",
      "outputs": [],
      "stateMutability": "nonpayable",
      "type": "function"
    },
    {
      "inputs": [
        {
          "internalType": "bytes32",
          "name": "role",
          "type": "bytes32"
        },
        {
          "internalType": "address",
          "name": "account",
          "type": "address"
        }
      ],
      "name": "revokeRole",
      "outputs": [],
      "stateMutability": "nonpayable",
      "type": "function"
    },
    {
      "inputs": [
        {
          "internalType": "address",
          "name": "from",
          "type": "address"
        },
        {
          "internalType": "address",
          "name": "to",
          "type": "address"
        },
        {
          "internalType": "uint256",
          "name": "tokenId",
          "type": "uint256"
        }
      ],
      "name": "safeTransferFrom",
      "outputs": [],
      "stateMutability": "nonpayable",
      "type": "function"
    },
    {
      "inputs": [
        {
          "internalType": "address",
          "name": "from",
          "type": "address"
        },
        {
          "internalType": "address",
          "name": "to",
          "type": "address"
        },
        {
          "internalType": "uint256",
          "name": "tokenId",
          "type": "uint256"
        },
        {
          "internalType": "bytes",
          "name": "_data",
          "type": "bytes"
        }
      ],
      "name": "safeTransferFrom",
      "outputs": [],
      "stateMutability": "nonpayable",
      "type": "function"
    },
    {
      "inputs": [
        {
          "internalType": "address",
          "name": "operator",
          "type": "address"
        },
        {
          "internalType": "bool",
          "name": "approved",
          "type": "bool"
        }
      ],
      "name": "setApprovalForAll",
      "outputs": [],
      "stateMutability": "nonpayable",
      "type": "function"
    },
    {
      "inputs": [
        {
          "internalType": "bytes4",
          "name": "interfaceId",
          "type": "bytes4"
        }
      ],
      "name": "supportsInterface",
      "outputs": [
        {
          "internalType": "bool",
          "name": "",
          "type": "bool"
        }
      ],
      "stateMutability": "view",
      "type": "function"
    },
    {
      "inputs": [],
      "name": "symbol",
      "outputs": [
        {
          "internalType": "string",
          "name": "",
          "type": "string"
        }
      ],
      "stateMutability": "view",
      "type": "function"
    },
    {
      "inputs": [
        {
          "internalType": "uint256",
          "name": "tokenId",
          "type": "uint256"
        }
      ],
      "name": "tokenBadgeId",
      "outputs": [
        {
          "internalType": "uint256",
          "name": "",
          "type": "uint256"
        }
      ],
      "stateMutability": "view",
      "type": "function"
    },
    {
      "inputs": [
        {
          "internalType": "uint256",
          "name": "tokenId",
          "type": "uint256"
        }
      ],
      "name": "tokenBadgeName",
      "outputs": [
        {
          "internalType": "string",
          "name": "",
          "type": "string"
        }
      ],
      "stateMutability": "view",
      "type": "function"
    },
    {
      "inputs": [
        {
          "internalType": "uint256",
          "name": "tokenId",
          "type": "uint256"
        }
      ],
      "name": "tokenURI",
      "outputs": [
        {
          "internalType": "string",
          "name": "",
          "type": "string"
        }
      ],
      "stateMutability": "view",
      "type": "function"
    },
    {
      "inputs": [
        {
          "internalType": "address",
          "name": "from",
          "type": "address"
        },
        {
          "internalType": "address",
          "name": "to",
          "type": "address"
        },
        {
          "internalType": "uint256",
          "name": "tokenId",
          "type": "uint256"
        }
      ],
      "name": "transferFrom",
      "outputs": [],
      "stateMutability": "nonpayable",
      "type": "function"
    }
  ],
  "bytecode": "0x608060405234801561001057600080fd5b50612df1806100206000396000f3fe608060405234801561001057600080fd5b50600436106101e55760003560e01c80636352211e1161010f578063a217fddf116100a2578063d3fc986411610071578063d3fc9864146104d1578063d547741f146104e4578063e77a93b0146104f7578063e985e9c51461050a57600080fd5b8063a217fddf14610490578063a22cb46514610498578063b88d4fde146104ab578063c87b56dd146104be57600080fd5b806390696534116100de578063906965341461042957806391d148541461043c57806395d89b4114610475578063996c6a931461047d57600080fd5b80636352211e146103d057806370a08231146103e35780637c133dc0146103f65780638698b1651461040957600080fd5b806323b872dd1161018757806342842e0e1161015657806342842e0e1461036b578063446c51fc1461037e5780634cd88b76146103915780635d268e8e146103a457600080fd5b806323b872dd1461030f578063248a9ca3146103225780632f2ff15d1461034557806336568abe1461035857600080fd5b8063081812fc116101c3578063081812fc14610283578063095ea7b3146102ae57806314c25bb5146102c35780631fe8bcad146102fc57600080fd5b806301ffc9a7146101ea57806303618afa1461021257806306fdde031461026e575b600080fd5b6101fd6101f8366004612717565b610546565b60405190151581526020015b60405180910390f35b610260610220366004612734565b6040516942414447455f524f4c4560b01b6020820152602a8101829052600090604a01604051602081830303815290604052805190602001209050919050565b604051908152602001610209565b610276610566565b60405161020991906127a5565b610296610291366004612734565b6105f8565b6040516001600160a01b039091168152602001610209565b6102c16102bc3660046127d4565b610692565b005b6101fd6102d13660046127d4565b6001600160a01b0391909116600090815260ff60208181526040808420948452939052919020541690565b6101fd61030a3660046127fe565b6107c4565b6102c161031d366004612820565b610932565b610260610330366004612734565b600090815260c9602052604090206001015490565b6102c161035336600461285c565b6109b9565b6102c161036636600461285c565b6109df565b6102c1610379366004612820565b610a6b565b61027661038c366004612734565b610a86565b6102c161039f366004612934565b610b20565b6101fd6103b23660046127d4565b60ff6020818152600093845260408085209091529183529120541681565b6102966103de366004612734565b610c06565b6102606103f1366004612998565b610c91565b610260610404366004612734565b610d2b565b610260610417366004612734565b60fe6020526000908152604090205481565b610276610437366004612734565b610dc8565b6101fd61044a36600461285c565b600091825260c9602090815260408084206001600160a01b0393909316845291905290205460ff1690565b610276610f00565b61026061048b3660046129b3565b610f0f565b610260600081565b6102c16104a6366004612a25565b610fe0565b6102c16104b9366004612a61565b610feb565b6102766104cc366004612734565b611079565b6102c16104df366004612add565b611204565b6102c16104f236600461285c565b61135d565b610276610505366004612734565b611383565b6101fd610518366004612b34565b6001600160a01b039182166000908152606a6020908152604080832093909416825291909152205460ff1690565b60006105518261141c565b806105605750610560826114b7565b92915050565b60606065805461057590612b5e565b80601f01602080910402602001604051908101604052809291908181526020018280546105a190612b5e565b80156105ee5780601f106105c3576101008083540402835291602001916105ee565b820191906000526020600020905b8154815290600101906020018083116105d157829003601f168201915b5050505050905090565b6000818152606760205260408120546001600160a01b03166106765760405162461bcd60e51b815260206004820152602c60248201527f4552433732313a20617070726f76656420717565727920666f72206e6f6e657860448201526b34b9ba32b73a103a37b5b2b760a11b60648201526084015b60405180910390fd5b506000908152606960205260409020546001600160a01b031690565b600061069d82610c06565b9050806001600160a01b0316836001600160a01b031614156107275760405162461bcd60e51b815260206004820152602160248201527f4552433732313a20617070726f76616c20746f2063757272656e74206f776e6560448201527f7200000000000000000000000000000000000000000000000000000000000000606482015260840161066d565b336001600160a01b038216148061074357506107438133610518565b6107b55760405162461bcd60e51b815260206004820152603860248201527f4552433732313a20617070726f76652063616c6c6572206973206e6f74206f7760448201527f6e6572206e6f7220617070726f76656420666f7220616c6c0000000000000000606482015260840161066d565b6107bf83836114f5565b505050565b6000806107d18133611570565b828411156108475760405162461bcd60e51b815260206004820152602b60248201527f7374617274546f6b656e2063616e206e6f74206265206772656174657220746860448201527f616e20656e64546f6b656e000000000000000000000000000000000000000000606482015260840161066d565b60fc5483106108be5760405162461bcd60e51b815260206004820152603460248201527f656e64546f6b656e206d757374206265206c657373207468616e20746865206e60448201527f65787420706f737369626c6520746f6b656e4964000000000000000000000000606482015260840161066d565b835b83811161092757600160ff60006108d684610c06565b6001600160a01b031681526020808201929092526040908101600090812085825260fe84528282205482529092529020805460ff19169115159190911790558061091f81612baf565b9150506108c0565b506001949350505050565b61093c33826115f0565b6109ae5760405162461bcd60e51b815260206004820152603160248201527f4552433732313a207472616e736665722063616c6c6572206973206e6f74206f60448201527f776e6572206e6f7220617070726f766564000000000000000000000000000000606482015260840161066d565b6107bf8383836116e3565b600082815260c960205260409020600101546109d58133611570565b6107bf8383611921565b6001600160a01b0381163314610a5d5760405162461bcd60e51b815260206004820152602f60248201527f416363657373436f6e74726f6c3a2063616e206f6e6c792072656e6f756e636560448201527f20726f6c657320666f722073656c660000000000000000000000000000000000606482015260840161066d565b610a6782826119c3565b5050565b6107bf83838360405180602001604052806000815250610feb565b60fd6020526000908152604090208054610a9f90612b5e565b80601f0160208091040260200160405190810160405280929190818152602001828054610acb90612b5e565b8015610b185780601f10610aed57610100808354040283529160200191610b18565b820191906000526020600020905b815481529060010190602001808311610afb57829003601f168201915b505050505081565b600054610100900460ff16610b3b5760005460ff1615610b3f565b303b155b610bb15760405162461bcd60e51b815260206004820152602e60248201527f496e697469616c697a61626c653a20636f6e747261637420697320616c72656160448201527f647920696e697469616c697a6564000000000000000000000000000000000000606482015260840161066d565b600054610100900460ff16158015610bd3576000805461ffff19166101011790555b610bdd8383611a46565b610be5611abb565b610bf0600033611b28565b80156107bf576000805461ff0019169055505050565b6000818152606760205260408120546001600160a01b0316806105605760405162461bcd60e51b815260206004820152602960248201527f4552433732313a206f776e657220717565727920666f72206e6f6e657869737460448201527f656e7420746f6b656e0000000000000000000000000000000000000000000000606482015260840161066d565b60006001600160a01b038216610d0f5760405162461bcd60e51b815260206004820152602a60248201527f4552433732313a2062616c616e636520717565727920666f7220746865207a6560448201527f726f206164647265737300000000000000000000000000000000000000000000606482015260840161066d565b506001600160a01b031660009081526068602052604090205490565b6000818152606760205260408120546001600160a01b0316610db55760405162461bcd60e51b815260206004820152603460248201527f4552433732314d657461646174613a206261646765204944207175657279206660448201527f6f72206e6f6e6578697374656e7420746f6b656e000000000000000000000000606482015260840161066d565b50600090815260fe602052604090205490565b6000818152606760205260409020546060906001600160a01b0316610e555760405162461bcd60e51b815260206004820152603660248201527f4552433732314d657461646174613a206261646765206e616d6520717565727960448201527f20666f72206e6f6e6578697374656e7420746f6b656e00000000000000000000606482015260840161066d565b600082815260fe6020908152604080832054835260fd90915290208054610e7b90612b5e565b80601f0160208091040260200160405190810160405280929190818152602001828054610ea790612b5e565b8015610ef45780601f10610ec957610100808354040283529160200191610ef4565b820191906000526020600020905b815481529060010190602001808311610ed757829003601f168201915b50505050509050919050565b60606066805461057590612b5e565b600080610f1c8133611570565b6000610f2760fb5490565b9050610f3760fb80546001019055565b600081815260fd60205260409020610f509086866125f1565b50807f902534cc99544ec2340ff752fbad9211de2a66ac5bd3af71d9e06e04c16df5fd8686604051610f83929190612bca565b60405180910390a2610fd8610fd2826040516942414447455f524f4c4560b01b6020820152602a8101829052600090604a01604051602081830303815290604052805190602001209050919050565b336109b9565b949350505050565b610a67338383611b32565b610ff533836115f0565b6110675760405162461bcd60e51b815260206004820152603160248201527f4552433732313a207472616e736665722063616c6c6572206973206e6f74206f60448201527f776e6572206e6f7220617070726f766564000000000000000000000000000000606482015260840161066d565b61107384848484611c01565b50505050565b6000818152606760205260409020546060906001600160a01b03166111065760405162461bcd60e51b815260206004820152603160248201527f45524337323155524953746f726167653a2055524920717565727920666f722060448201527f6e6f6e6578697374656e7420746f6b656e000000000000000000000000000000606482015260840161066d565b6000828152609760205260408120805461111f90612b5e565b80601f016020809104026020016040519081016040528092919081815260200182805461114b90612b5e565b80156111985780601f1061116d57610100808354040283529160200191611198565b820191906000526020600020905b81548152906001019060200180831161117b57829003601f168201915b5050505050905060006111b660408051602081019091526000815290565b90508051600014156111c9575092915050565b8151156111fb5780826040516020016111e3929190612bf9565b60405160208183030381529060405292505050919050565b610fd884611c7f565b611248826040516942414447455f524f4c4560b01b6020820152602a8101829052600090604a01604051602081830303815290604052805190602001209050919050565b6112528133611570565b60fb5483106112a35760405162461bcd60e51b815260206004820152601560248201527f42616467652074797065206d7573742065786973740000000000000000000000604482015260640161066d565b60006112ae60fc5490565b90506112be60fc80546001019055565b6001600160a01b038516600090815260ff602081815260408084208885529091529091205416156113315760405162461bcd60e51b815260206004820152601260248201527f426164676520616c72656164792068656c640000000000000000000000000000604482015260640161066d565b600081815260fe6020526040902084905561134c8582611d75565b6113568184611d8f565b5050505050565b600082815260c960205260409020600101546113798133611570565b6107bf83836119c3565b606061138e60fb5490565b8211156114035760405162461bcd60e51b815260206004820152603560248201527f4552433732314d657461646174613a206e616d6520717565727920666f72206e60448201527f6f6e6578697374656e7420626164676520747970650000000000000000000000606482015260840161066d565b600082815260fd602052604090208054610e7b90612b5e565b60006001600160e01b031982167f80ac58cd00000000000000000000000000000000000000000000000000000000148061147f57506001600160e01b031982167f5b5e139f00000000000000000000000000000000000000000000000000000000145b8061056057507f01ffc9a7000000000000000000000000000000000000000000000000000000006001600160e01b0319831614610560565b60006001600160e01b031982167f7965db0b00000000000000000000000000000000000000000000000000000000148061056057506105608261141c565b6000818152606960205260409020805473ffffffffffffffffffffffffffffffffffffffff19166001600160a01b038416908117909155819061153782610c06565b6001600160a01b03167f8c5be1e5ebec7d5bd14f71427d1e84f3dd0314c0f7b2291e5b200ac8c7c3b92560405160405180910390a45050565b600082815260c9602090815260408083206001600160a01b038516845290915290205460ff16610a67576115ae816001600160a01b03166014611e38565b6115b9836020611e38565b6040516020016115ca929190612c28565b60408051601f198184030181529082905262461bcd60e51b825261066d916004016127a5565b6000818152606760205260408120546001600160a01b03166116695760405162461bcd60e51b815260206004820152602c60248201527f4552433732313a206f70657261746f7220717565727920666f72206e6f6e657860448201526b34b9ba32b73a103a37b5b2b760a11b606482015260840161066d565b600061167483610c06565b9050806001600160a01b0316846001600160a01b031614806116af5750836001600160a01b03166116a4846105f8565b6001600160a01b0316145b80610fd857506001600160a01b038082166000908152606a602090815260408083209388168352929052205460ff16610fd8565b826001600160a01b03166116f682610c06565b6001600160a01b0316146117725760405162461bcd60e51b815260206004820152602560248201527f4552433732313a207472616e736665722066726f6d20696e636f72726563742060448201527f6f776e6572000000000000000000000000000000000000000000000000000000606482015260840161066d565b6001600160a01b0382166117ed5760405162461bcd60e51b8152602060048201526024808201527f4552433732313a207472616e7366657220746f20746865207a65726f2061646460448201527f7265737300000000000000000000000000000000000000000000000000000000606482015260840161066d565b6117f8838383611ffd565b6118036000826114f5565b6001600160a01b038316600090815260686020526040812080546001929061182c908490612ca9565b90915550506001600160a01b038216600090815260686020526040812080546001929061185a908490612cc0565b9091555050600081815260676020526040808220805473ffffffffffffffffffffffffffffffffffffffff19166001600160a01b0386811691821790925591518493918716917fddf252ad1be2c89b69c2b068fc378daa952ba7f163c4a11628f55a4df523b3ef91a46001600160a01b03808416600090815260ff6020818152604080842086855260fe835281852080548652908352818520805460ff19908116909155958816855292825280842092548452919052902080549091166001179055505050565b600082815260c9602090815260408083206001600160a01b038516845290915290205460ff16610a6757600082815260c9602090815260408083206001600160a01b03851684529091529020805460ff1916600117905561197f3390565b6001600160a01b0316816001600160a01b0316837f2f8788117e7eff1d82e926ec794901d17c78024a50270940304540a733656f0d60405160405180910390a45050565b600082815260c9602090815260408083206001600160a01b038516845290915290205460ff1615610a6757600082815260c9602090815260408083206001600160a01b0385168085529252808320805460ff1916905551339285917ff6391f5c32d9c69d2a47ea670b442974b53935d1edc7fd64eb21e047a839171b9190a45050565b600054610100900460ff16611ab15760405162461bcd60e51b815260206004820152602b60248201527f496e697469616c697a61626c653a20636f6e7472616374206973206e6f74206960448201526a6e697469616c697a696e6760a81b606482015260840161066d565b610a6782826120cf565b600054610100900460ff16611b265760405162461bcd60e51b815260206004820152602b60248201527f496e697469616c697a61626c653a20636f6e7472616374206973206e6f74206960448201526a6e697469616c697a696e6760a81b606482015260840161066d565b565b610a678282611921565b816001600160a01b0316836001600160a01b03161415611b945760405162461bcd60e51b815260206004820152601960248201527f4552433732313a20617070726f766520746f2063616c6c657200000000000000604482015260640161066d565b6001600160a01b038381166000818152606a6020908152604080832094871680845294825291829020805460ff191686151590811790915591519182527f17307eab39ab6107e8899845ad3d59bd9653f200f220920489ca2b5937696c31910160405180910390a3505050565b611c0c8484846116e3565b611c1884848484612161565b6110735760405162461bcd60e51b815260206004820152603260248201527f4552433732313a207472616e7366657220746f206e6f6e20455243373231526560448201527131b2b4bb32b91034b6b83632b6b2b73a32b960711b606482015260840161066d565b6000818152606760205260409020546060906001600160a01b0316611d0c5760405162461bcd60e51b815260206004820152602f60248201527f4552433732314d657461646174613a2055524920717565727920666f72206e6f60448201527f6e6578697374656e7420746f6b656e0000000000000000000000000000000000606482015260840161066d565b6000611d2360408051602081019091526000815290565b90506000815111611d435760405180602001604052806000815250611d6e565b80611d4d846122ae565b604051602001611d5e929190612bf9565b6040516020818303038152906040525b9392505050565b610a678282604051806020016040528060008152506123ac565b6000828152606760205260409020546001600160a01b0316611e195760405162461bcd60e51b815260206004820152602e60248201527f45524337323155524953746f726167653a2055524920736574206f66206e6f6e60448201527f6578697374656e7420746f6b656e000000000000000000000000000000000000606482015260840161066d565b600082815260976020908152604090912082516107bf92840190612675565b60606000611e47836002612cd8565b611e52906002612cc0565b67ffffffffffffffff811115611e6a57611e6a612888565b6040519080825280601f01601f191660200182016040528015611e94576020820181803683370190505b509050600360fc1b81600081518110611eaf57611eaf612cf7565b60200101906001600160f81b031916908160001a9053507f780000000000000000000000000000000000000000000000000000000000000081600181518110611efa57611efa612cf7565b60200101906001600160f81b031916908160001a9053506000611f1e846002612cd8565b611f29906001612cc0565b90505b6001811115611fae577f303132333435363738396162636465660000000000000000000000000000000085600f1660108110611f6a57611f6a612cf7565b1a60f81b828281518110611f8057611f80612cf7565b60200101906001600160f81b031916908160001a90535060049490941c93611fa781612d0d565b9050611f2c565b508315611d6e5760405162461bcd60e51b815260206004820181905260248201527f537472696e67733a20686578206c656e67746820696e73756666696369656e74604482015260640161066d565b61200860003361044a565b8061205d5750600081815260fe60209081526040918290205482516942414447455f524f4c4560b01b81840152602a8082019290925283518082039092018252604a01909252815191012061205d903361044a565b6107bf5760405162461bcd60e51b815260206004820152602960248201527f4552433732313a2063616c6c6572206973206e6f7420616c6c6f77656420746f60448201527f207472616e736665720000000000000000000000000000000000000000000000606482015260840161066d565b600054610100900460ff1661213a5760405162461bcd60e51b815260206004820152602b60248201527f496e697469616c697a61626c653a20636f6e7472616374206973206e6f74206960448201526a6e697469616c697a696e6760a81b606482015260840161066d565b815161214d906065906020850190612675565b5080516107bf906066906020840190612675565b60006001600160a01b0384163b1561092757604051630a85bd0160e11b81526001600160a01b0385169063150b7a02906121a5903390899088908890600401612d24565b602060405180830381600087803b1580156121bf57600080fd5b505af19250505080156121ef575060408051601f3d908101601f191682019092526121ec91810190612d60565b60015b612294573d80801561221d576040519150601f19603f3d011682016040523d82523d6000602084013e612222565b606091505b50805161228c5760405162461bcd60e51b815260206004820152603260248201527f4552433732313a207472616e7366657220746f206e6f6e20455243373231526560448201527131b2b4bb32b91034b6b83632b6b2b73a32b960711b606482015260840161066d565b805181602001fd5b6001600160e01b031916630a85bd0160e11b149050610fd8565b6060816122d25750506040805180820190915260018152600360fc1b602082015290565b8160005b81156122fc57806122e681612baf565b91506122f59050600a83612d93565b91506122d6565b60008167ffffffffffffffff81111561231757612317612888565b6040519080825280601f01601f191660200182016040528015612341576020820181803683370190505b5090505b8415610fd857612356600183612ca9565b9150612363600a86612da7565b61236e906030612cc0565b60f81b81838151811061238357612383612cf7565b60200101906001600160f81b031916908160001a9053506123a5600a86612d93565b9450612345565b6123b6838361242a565b6123c36000848484612161565b6107bf5760405162461bcd60e51b815260206004820152603260248201527f4552433732313a207472616e7366657220746f206e6f6e20455243373231526560448201527131b2b4bb32b91034b6b83632b6b2b73a32b960711b606482015260840161066d565b6001600160a01b0382166124805760405162461bcd60e51b815260206004820181905260248201527f4552433732313a206d696e7420746f20746865207a65726f2061646472657373604482015260640161066d565b6000818152606760205260409020546001600160a01b0316156124e55760405162461bcd60e51b815260206004820152601c60248201527f4552433732313a20746f6b656e20616c7265616479206d696e74656400000000604482015260640161066d565b6124f160008383611ffd565b6001600160a01b038216600090815260686020526040812080546001929061251a908490612cc0565b9091555050600081815260676020526040808220805473ffffffffffffffffffffffffffffffffffffffff19166001600160a01b03861690811790915590518392907fddf252ad1be2c89b69c2b068fc378daa952ba7f163c4a11628f55a4df523b3ef908290a4600081815260fe60209081526040808320805484527f03d616f3758432b4d7452e2e9011612152589bfc903ce751686613c478b2af5f8352818420805460ff199081169091556001600160a01b038716855260ff8452828520915485529252909120805490911660011790555050565b8280546125fd90612b5e565b90600052602060002090601f01602090048101928261261f5760008555612665565b82601f106126385782800160ff19823516178555612665565b82800160010185558215612665579182015b8281111561266557823582559160200191906001019061264a565b506126719291506126e9565b5090565b82805461268190612b5e565b90600052602060002090601f0160209004810192826126a35760008555612665565b82601f106126bc57805160ff1916838001178555612665565b82800160010185558215612665579182015b828111156126655782518255916020019190600101906126ce565b5b8082111561267157600081556001016126ea565b6001600160e01b03198116811461271457600080fd5b50565b60006020828403121561272957600080fd5b8135611d6e816126fe565b60006020828403121561274657600080fd5b5035919050565b60005b83811015612768578181015183820152602001612750565b838111156110735750506000910152565b6000815180845261279181602086016020860161274d565b601f01601f19169290920160200192915050565b602081526000611d6e6020830184612779565b80356001600160a01b03811681146127cf57600080fd5b919050565b600080604083850312156127e757600080fd5b6127f0836127b8565b946020939093013593505050565b6000806040838503121561281157600080fd5b50508035926020909101359150565b60008060006060848603121561283557600080fd5b61283e846127b8565b925061284c602085016127b8565b9150604084013590509250925092565b6000806040838503121561286f57600080fd5b8235915061287f602084016127b8565b90509250929050565b634e487b7160e01b600052604160045260246000fd5b600067ffffffffffffffff808411156128b9576128b9612888565b604051601f8501601f19908116603f011681019082821181831017156128e1576128e1612888565b816040528093508581528686860111156128fa57600080fd5b858560208301376000602087830101525050509392505050565b600082601f83011261292557600080fd5b611d6e8383356020850161289e565b6000806040838503121561294757600080fd5b823567ffffffffffffffff8082111561295f57600080fd5b61296b86838701612914565b9350602085013591508082111561298157600080fd5b5061298e85828601612914565b9150509250929050565b6000602082840312156129aa57600080fd5b611d6e826127b8565b600080602083850312156129c657600080fd5b823567ffffffffffffffff808211156129de57600080fd5b818501915085601f8301126129f257600080fd5b813581811115612a0157600080fd5b866020828501011115612a1357600080fd5b60209290920196919550909350505050565b60008060408385031215612a3857600080fd5b612a41836127b8565b915060208301358015158114612a5657600080fd5b809150509250929050565b60008060008060808587031215612a7757600080fd5b612a80856127b8565b9350612a8e602086016127b8565b925060408501359150606085013567ffffffffffffffff811115612ab157600080fd5b8501601f81018713612ac257600080fd5b612ad18782356020840161289e565b91505092959194509250565b600080600060608486031215612af257600080fd5b612afb846127b8565b925060208401359150604084013567ffffffffffffffff811115612b1e57600080fd5b612b2a86828701612914565b9150509250925092565b60008060408385031215612b4757600080fd5b612b50836127b8565b915061287f602084016127b8565b600181811c90821680612b7257607f821691505b60208210811415612b9357634e487b7160e01b600052602260045260246000fd5b50919050565b634e487b7160e01b600052601160045260246000fd5b6000600019821415612bc357612bc3612b99565b5060010190565b60208152816020820152818360408301376000818301604090810191909152601f909201601f19160101919050565b60008351612c0b81846020880161274d565b835190830190612c1f81836020880161274d565b01949350505050565b7f416363657373436f6e74726f6c3a206163636f756e7420000000000000000000815260008351612c6081601785016020880161274d565b7f206973206d697373696e6720726f6c65200000000000000000000000000000006017918401918201528351612c9d81602884016020880161274d565b01602801949350505050565b600082821015612cbb57612cbb612b99565b500390565b60008219821115612cd357612cd3612b99565b500190565b6000816000190483118215151615612cf257612cf2612b99565b500290565b634e487b7160e01b600052603260045260246000fd5b600081612d1c57612d1c612b99565b506000190190565b60006001600160a01b03808716835280861660208401525083604083015260806060830152612d566080830184612779565b9695505050505050565b600060208284031215612d7257600080fd5b8151611d6e816126fe565b634e487b7160e01b600052601260045260246000fd5b600082612da257612da2612d7d565b500490565b600082612db657612db6612d7d565b50069056fea26469706673582212205abaf9d23d5e757a719d990f5c030aa6adeaf3bf3eb019395b77e51bde6b520164736f6c63430008090033",
  "linkReferences": {},
  "deployedLinkReferences": {}
}