{
  "abi": [
    {
      "inputs": [],
      "stateMutability": "nonpayable",
      "type": "constructor"
    },
    {
      "inputs": [],
      "name": "IncompatableStatus",
      "type": "error"
    },
    {
      "inputs": [],
      "name": "IncorrectFunds",
      "type": "error"
    },
    {
      "inputs": [],
      "name": "NonExistantTask",
      "type": "error"
    },
    {
      "inputs": [],
      "name": "TokenIsSoulbound",
      "type": "error"
    },
    {
      "inputs": [],
      "name": "UnAuthorized",
      "type": "error"
    },
    {
      "anonymous": false,
      "inputs": [
        {
          "indexed": true,
          "internalType": "address",
          "name": "owner",
          "type": "address"
        },
        {
          "indexed": true,
          "internalType": "address",
          "name": "spender",
          "type": "address"
        },
        {
          "indexed": true,
          "internalType": "uint256",
          "name": "id",
          "type": "uint256"
        }
      ],
      "name": "Approval",
      "type": "event"
    },
    {
      "anonymous": false,
      "inputs": [
        {
          "indexed": true,
          "internalType": "address",
          "name": "owner",
          "type": "address"
        },
        {
          "indexed": true,
          "internalType": "address",
          "name": "operator",
          "type": "address"
        },
        {
          "indexed": false,
          "internalType": "bool",
          "name": "approved",
          "type": "bool"
        }
      ],
      "name": "ApprovalForAll",
      "type": "event"
    },
    {
      "anonymous": false,
      "inputs": [
        {
          "indexed": true,
          "internalType": "uint256",
          "name": "tokenId",
          "type": "uint256"
        }
      ],
      "name": "TaskCancelled",
      "type": "event"
    },
    {
      "anonymous": false,
      "inputs": [
        {
          "indexed": true,
          "internalType": "uint256",
          "name": "tokenId",
          "type": "uint256"
        },
        {
          "indexed": true,
          "internalType": "address",
          "name": "contractor",
          "type": "address"
        },
        {
          "indexed": true,
          "internalType": "address",
          "name": "recruiter",
          "type": "address"
        }
      ],
      "name": "TaskClaimed",
      "type": "event"
    },
    {
      "anonymous": false,
      "inputs": [
        {
          "indexed": true,
          "internalType": "uint256",
          "name": "tokenId",
          "type": "uint256"
        }
      ],
      "name": "TaskClosed",
      "type": "event"
    },
    {
      "anonymous": false,
      "inputs": [
        {
          "indexed": true,
          "internalType": "uint256",
          "name": "tokenId",
          "type": "uint256"
        }
      ],
      "name": "TaskUnclaimed",
      "type": "event"
    },
    {
      "anonymous": false,
      "inputs": [
        {
          "indexed": true,
          "internalType": "address",
          "name": "from",
          "type": "address"
        },
        {
          "indexed": true,
          "internalType": "address",
          "name": "to",
          "type": "address"
        },
        {
          "indexed": true,
          "internalType": "uint256",
          "name": "id",
          "type": "uint256"
        }
      ],
      "name": "Transfer",
      "type": "event"
    },
    {
      "inputs": [
        {
          "internalType": "address",
          "name": "spender",
          "type": "address"
        },
        {
          "internalType": "uint256",
          "name": "id",
          "type": "uint256"
        }
      ],
      "name": "approve",
      "outputs": [],
      "stateMutability": "nonpayable",
      "type": "function"
    },
    {
      "inputs": [
        {
          "internalType": "address",
          "name": "owner",
          "type": "address"
        }
      ],
      "name": "balanceOf",
      "outputs": [
        {
          "internalType": "uint256",
          "name": "",
          "type": "uint256"
        }
      ],
      "stateMutability": "view",
      "type": "function"
    },
    {
      "inputs": [
        {
          "internalType": "address",
          "name": "",
          "type": "address"
        }
      ],
      "name": "cancellableBalances",
      "outputs": [
        {
          "internalType": "uint256",
          "name": "",
          "type": "uint256"
        }
      ],
      "stateMutability": "view",
      "type": "function"
    },
    {
      "inputs": [
        {
          "internalType": "uint256",
          "name": "_tokenId",
          "type": "uint256"
        },
        {
          "internalType": "address",
          "name": "_recruiter",
          "type": "address"
        },
        {
          "internalType": "address",
          "name": "_contractor",
          "type": "address"
        }
      ],
      "name": "claimTask",
      "outputs": [],
      "stateMutability": "nonpayable",
      "type": "function"
    },
    {
      "inputs": [
        {
          "internalType": "uint256",
          "name": "_tokenId",
          "type": "uint256"
        }
      ],
      "name": "closeTask",
      "outputs": [],
      "stateMutability": "nonpayable",
      "type": "function"
    },
    {
      "inputs": [],
      "name": "currentTokenId",
      "outputs": [
        {
          "internalType": "uint256",
          "name": "",
          "type": "uint256"
        }
      ],
      "stateMutability": "view",
      "type": "function"
    },
    {
      "inputs": [
        {
          "internalType": "address",
          "name": "",
          "type": "address"
        }
      ],
      "name": "escrowedBalances",
      "outputs": [
        {
          "internalType": "uint256",
          "name": "",
          "type": "uint256"
        }
      ],
      "stateMutability": "view",
      "type": "function"
    },
    {
      "inputs": [
        {
          "internalType": "uint256",
          "name": "",
          "type": "uint256"
        }
      ],
      "name": "getApproved",
      "outputs": [
        {
          "internalType": "address",
          "name": "",
          "type": "address"
        }
      ],
      "stateMutability": "view",
      "type": "function"
    },
    {
      "inputs": [
        {
          "internalType": "address",
          "name": "",
          "type": "address"
        },
        {
          "internalType": "address",
          "name": "",
          "type": "address"
        }
      ],
      "name": "isApprovedForAll",
      "outputs": [
        {
          "internalType": "bool",
          "name": "",
          "type": "bool"
        }
      ],
      "stateMutability": "view",
      "type": "function"
    },
    {
      "inputs": [
        {
          "internalType": "address",
          "name": "_employer",
          "type": "address"
        },
        {
          "internalType": "address",
          "name": "_creator",
          "type": "address"
        },
        {
          "internalType": "uint256",
          "name": "_creatorBounty",
          "type": "uint256"
        },
        {
          "internalType": "uint256",
          "name": "_contractorBounty",
          "type": "uint256"
        },
        {
          "internalType": "uint256",
          "name": "_recruiterBounty",
          "type": "uint256"
        },
        {
          "internalType": "uint256",
          "name": "_deadline",
          "type": "uint256"
        },
        {
          "internalType": "uint256",
          "name": "_minBalance",
          "type": "uint256"
        },
        {
          "internalType": "string",
          "name": "_tokenURI",
          "type": "string"
        }
      ],
      "name": "mintTask",
      "outputs": [],
      "stateMutability": "payable",
      "type": "function"
    },
    {
      "inputs": [],
      "name": "name",
      "outputs": [
        {
          "internalType": "string",
          "name": "",
          "type": "string"
        }
      ],
      "stateMutability": "view",
      "type": "function"
    },
    {
      "inputs": [
        {
          "internalType": "uint256",
          "name": "id",
          "type": "uint256"
        }
      ],
      "name": "ownerOf",
      "outputs": [
        {
          "internalType": "address",
          "name": "owner",
          "type": "address"
        }
      ],
      "stateMutability": "view",
      "type": "function"
    },
    {
      "inputs": [
        {
          "internalType": "address",
          "name": "from",
          "type": "address"
        },
        {
          "internalType": "address",
          "name": "to",
          "type": "address"
        },
        {
          "internalType": "uint256",
          "name": "id",
          "type": "uint256"
        }
      ],
      "name": "safeTransferFrom",
      "outputs": [],
      "stateMutability": "nonpayable",
      "type": "function"
    },
    {
      "inputs": [
        {
          "internalType": "address",
          "name": "from",
          "type": "address"
        },
        {
          "internalType": "address",
          "name": "to",
          "type": "address"
        },
        {
          "internalType": "uint256",
          "name": "id",
          "type": "uint256"
        },
        {
          "internalType": "bytes",
          "name": "data",
          "type": "bytes"
        }
      ],
      "name": "safeTransferFrom",
      "outputs": [],
      "stateMutability": "nonpayable",
      "type": "function"
    },
    {
      "inputs": [
        {
          "internalType": "address",
          "name": "operator",
          "type": "address"
        },
        {
          "internalType": "bool",
          "name": "approved",
          "type": "bool"
        }
      ],
      "name": "setApprovalForAll",
      "outputs": [],
      "stateMutability": "nonpayable",
      "type": "function"
    },
    {
      "inputs": [
        {
          "internalType": "bytes4",
          "name": "interfaceId",
          "type": "bytes4"
        }
      ],
      "name": "supportsInterface",
      "outputs": [
        {
          "internalType": "bool",
          "name": "",
          "type": "bool"
        }
      ],
      "stateMutability": "view",
      "type": "function"
    },
    {
      "inputs": [],
      "name": "symbol",
      "outputs": [
        {
          "internalType": "string",
          "name": "",
          "type": "string"
        }
      ],
      "stateMutability": "view",
      "type": "function"
    },
    {
      "inputs": [
        {
          "internalType": "uint256",
          "name": "",
          "type": "uint256"
        }
      ],
      "name": "tasks",
      "outputs": [
        {
          "internalType": "address",
          "name": "employer",
          "type": "address"
        },
        {
          "internalType": "address",
          "name": "creator",
          "type": "address"
        },
        {
          "internalType": "uint256",
          "name": "creatorBounty",
          "type": "uint256"
        },
        {
          "internalType": "uint256",
          "name": "contractorBounty",
          "type": "uint256"
        },
        {
          "internalType": "uint256",
          "name": "recruiterBounty",
          "type": "uint256"
        },
        {
          "internalType": "uint256",
          "name": "deadline",
          "type": "uint256"
        },
        {
          "internalType": "string",
          "name": "tokenURI",
          "type": "string"
        },
        {
          "internalType": "enum Uplift.Status",
          "name": "status",
          "type": "uint8"
        },
        {
          "internalType": "address",
          "name": "recruiter",
          "type": "address"
        },
        {
          "internalType": "address",
          "name": "contractor",
          "type": "address"
        },
        {
          "internalType": "uint256",
          "name": "minBalance",
          "type": "uint256"
        }
      ],
      "stateMutability": "view",
      "type": "function"
    },
    {
      "inputs": [
        {
          "internalType": "uint256",
          "name": "id",
          "type": "uint256"
        }
      ],
      "name": "tokenURI",
      "outputs": [
        {
          "internalType": "string",
          "name": "",
          "type": "string"
        }
      ],
      "stateMutability": "view",
      "type": "function"
    },
    {
      "inputs": [
        {
          "internalType": "address",
          "name": "",
          "type": "address"
        },
        {
          "internalType": "address",
          "name": "",
          "type": "address"
        },
        {
          "internalType": "uint256",
          "name": "",
          "type": "uint256"
        }
      ],
      "name": "transferFrom",
      "outputs": [],
      "stateMutability": "pure",
      "type": "function"
    },
    {
      "inputs": [
        {
          "internalType": "address",
          "name": "",
          "type": "address"
        }
      ],
      "name": "withdrawableBalances",
      "outputs": [
        {
          "internalType": "uint256",
          "name": "",
          "type": "uint256"
        }
      ],
      "stateMutability": "view",
      "type": "function"
    }
  ],
  "bytecode": {
    "object": "0x60806040523480156200001157600080fd5b506040805180820182526006815265155c1b1a599d60d21b6020808301918252835180850190945260048452631312519560e21b9084015281519192916200005c916000916200007b565b508051620000729060019060208401906200007b565b5050506200015d565b828054620000899062000121565b90600052602060002090601f016020900481019282620000ad5760008555620000f8565b82601f10620000c857805160ff1916838001178555620000f8565b82800160010185558215620000f8579182015b82811115620000f8578251825591602001919060010190620000db565b50620001069291506200010a565b5090565b5b808211156200010657600081556001016200010b565b600181811c908216806200013657607f821691505b6020821081036200015757634e487b7160e01b600052602260045260246000fd5b50919050565b611be2806200016d6000396000f3fe6080604052600436106101295760003560e01c80636352211e116100ab578063a22cb4651161006f578063a22cb46514610372578063b88d4fde14610392578063c87b56dd146103b2578063d6074aba146103d2578063e985e9c5146103ff578063fc05b2e81461043a57600080fd5b80636352211e146102d357806370a08231146102f35780638d9776721461031357806395d89b411461034a5780639a48dabc1461035f57600080fd5b80631201dfc6116100f25780631201dfc61461021957806323b872dd146102395780632b576f4e1461025957806342842e0e146102865780635ff2bc91146102a657600080fd5b80629a9b7b1461012e57806301ffc9a71461015757806306fdde0314610187578063081812fc146101a9578063095ea7b3146101f7575b600080fd5b34801561013a57600080fd5b5061014460065481565b6040519081526020015b60405180910390f35b34801561016357600080fd5b50610177610172366004611691565b61045a565b604051901515815260200161014e565b34801561019357600080fd5b5061019c6104ac565b60405161014e9190611702565b3480156101b557600080fd5b506101df6101c4366004611715565b6004602052600090815260409020546001600160a01b031681565b6040516001600160a01b03909116815260200161014e565b34801561020357600080fd5b50610217610212366004611745565b61053a565b005b34801561022557600080fd5b50610217610234366004611715565b610621565b34801561024557600080fd5b5061021761025436600461176f565b6109aa565b34801561026557600080fd5b506101446102743660046117ab565b60096020526000908152604090205481565b34801561029257600080fd5b506102176102a136600461176f565b6109c3565b3480156102b257600080fd5b506101446102c13660046117ab565b600a6020526000908152604090205481565b3480156102df57600080fd5b506101df6102ee366004611715565b610a98565b3480156102ff57600080fd5b5061014461030e3660046117ab565b610aef565b34801561031f57600080fd5b5061033361032e366004611715565b610b52565b60405161014e9b9a999897969594939291906117dc565b34801561035657600080fd5b5061019c610c4f565b61021761036d3660046118ca565b610c5c565b34801561037e57600080fd5b5061021761038d366004611962565b610e85565b34801561039e57600080fd5b506102176103ad36600461199e565b610ef1565b3480156103be57600080fd5b5061019c6103cd366004611715565b610fb6565b3480156103de57600080fd5b506101446103ed3660046117ab565b60086020526000908152604090205481565b34801561040b57600080fd5b5061017761041a366004611a0d565b600560209081526000928352604080842090915290825290205460ff1681565b34801561044657600080fd5b50610217610455366004611a40565b610fc1565b60006301ffc9a760e01b6001600160e01b03198316148061048b57506380ac58cd60e01b6001600160e01b03198316145b806104a65750635b5e139f60e01b6001600160e01b03198316145b92915050565b600080546104b990611a7c565b80601f01602080910402602001604051908101604052809291908181526020018280546104e590611a7c565b80156105325780601f1061050757610100808354040283529160200191610532565b820191906000526020600020905b81548152906001019060200180831161051557829003601f168201915b505050505081565b6000818152600260205260409020546001600160a01b03163381148061058357506001600160a01b038116600090815260056020908152604080832033845290915290205460ff165b6105c55760405162461bcd60e51b815260206004820152600e60248201526d1393d517d055551213d49256915160921b60448201526064015b60405180910390fd5b60008281526004602052604080822080546001600160a01b0319166001600160a01b0387811691821790925591518593918516917f8c5be1e5ebec7d5bd14f71427d1e84f3dd0314c0f7b2291e5b200ac8c7c3b92591a4505050565b6000818152600260205260408120546001600160a01b03161515900361065a57604051632d14777560e11b815260040160405180910390fd5b600081815260076020908152604080832081516101608101835281546001600160a01b039081168252600183015416938101939093526002810154918301919091526003810154606083015260048101546080830152600581015460a083015260068101805460c0840191906106cf90611a7c565b80601f01602080910402602001604051908101604052809291908181526020018280546106fb90611a7c565b80156107485780601f1061071d57610100808354040283529160200191610748565b820191906000526020600020905b81548152906001019060200180831161072b57829003601f168201915b5050509183525050600782015460209091019060ff16600281111561076f5761076f6117c6565b6002811115610780576107806117c6565b815260078201546001600160a01b03610100909104811660208301526008830154166040820152600990910154606090910152905060016000838152600760208190526040909120015460ff1660028111156107de576107de6117c6565b146107fc5760405163075802eb60e01b815260040160405180910390fd5b6101208101516001600160a01b0316331461082a5760405163be24598360e01b815260040160405180910390fd5b6000816080015182606001516108409190611acc565b82516001600160a01b031660009081526008602052604081208054929350839290919061086e908490611ae4565b909155505060608201516101208301516001600160a01b0316600090815260096020526040812080549091906108a5908490611acc565b909155505060808201516101008301516001600160a01b0316600090815260096020526040812080549091906108dc908490611acc565b9091555050600260e0830181905282516001600160a01b039081166000908152600360209081526040808320805460001901905561012087018051851684528184208054600101905580518985529590925280832080546001600160a01b03191695851695909517909455518551935187949184169391909116917fddf252ad1be2c89b69c2b068fc378daa952ba7f163c4a11628f55a4df523b3ef91a460405183907f91dfc924b25cd3a750912075cf0e6bed2235ec6eca305e91b6124d90bf411b2590600090a2505050565b6040516358b2164f60e11b815260040160405180910390fd5b6109ce8383836109aa565b6001600160a01b0382163b1580610a775750604051630a85bd0160e11b8082523360048301526001600160a01b03858116602484015260448301849052608060648401526000608484015290919084169063150b7a029060a4016020604051808303816000875af1158015610a47573d6000803e3d6000fd5b505050506040513d601f19601f82011682018060405250810190610a6b9190611afb565b6001600160e01b031916145b610a935760405162461bcd60e51b81526004016105bc90611b18565b505050565b6000818152600260205260409020546001600160a01b031680610aea5760405162461bcd60e51b815260206004820152600a6024820152691393d517d3525395115160b21b60448201526064016105bc565b919050565b60006001600160a01b038216610b365760405162461bcd60e51b815260206004820152600c60248201526b5a45524f5f4144445245535360a01b60448201526064016105bc565b506001600160a01b031660009081526003602052604090205490565b60076020526000908152604090208054600182015460028301546003840154600485015460058601546006870180546001600160a01b039788169896909716969495939492939192610ba390611a7c565b80601f0160208091040260200160405190810160405280929190818152602001828054610bcf90611a7c565b8015610c1c5780601f10610bf157610100808354040283529160200191610c1c565b820191906000526020600020905b815481529060010190602001808311610bff57829003601f168201915b50505060078401546008850154600990950154939460ff8216946001600160a01b0361010090930483169450911691508b565b600180546104b990611a7c565b84610c678789611acc565b610c719190611acc565b3414610c9057604051637832e81760e01b815260040160405180910390fd5b6040518061016001604052808a6001600160a01b03168152602001896001600160a01b0316815260200188815260200187815260200186815260200185815260200183838080601f0160208091040260200160405190810160405280939291908181526020018383808284376000920182905250938552505060209092019150815260006020808301829052604080840183905260609384018890526006805484526007835292819020855181546001600160a01b039182166001600160a01b0319918216178355878501516001840180549190931691161790559085015160028201559284015160038401556080840151600484015560a0840151600584015560c08401518051610da99385019291909101906115df565b5060e082015160078201805460ff19166001836002811115610dcd57610dcd6117c6565b021790555061010082810151600783018054610100600160a81b0319166001600160a01b03928316909302929092179091556101208301516008830180546001600160a01b03191691831691909117905561014090920151600991820155908916600090815260209190915260409020879055610e4a8587611acc565b6001600160a01b038a166000908152600a6020526040902055600654610e71908a90611299565b505060068054600101905550505050505050565b3360008181526005602090815260408083206001600160a01b03871680855290835292819020805460ff191686151590811790915590519081529192917f17307eab39ab6107e8899845ad3d59bd9653f200f220920489ca2b5937696c31910160405180910390a35050565b610efc8585856109aa565b6001600160a01b0384163b1580610f935750604051630a85bd0160e11b808252906001600160a01b0386169063150b7a0290610f449033908a90899089908990600401611b42565b6020604051808303816000875af1158015610f63573d6000803e3d6000fd5b505050506040513d601f19601f82011682018060405250810190610f879190611afb565b6001600160e01b031916145b610faf5760405162461bcd60e51b81526004016105bc90611b18565b5050505050565b60606104a682611369565b6000838152600260205260408120546001600160a01b031615159003610ffa57604051632d14777560e11b815260040160405180910390fd5b60008381526007602081905260408220015460ff166002811115611020576110206117c6565b1461103e5760405163075802eb60e01b815260040160405180910390fd5b600083815260076020908152604080832081516101608101835281546001600160a01b039081168252600183015416938101939093526002810154918301919091526003810154606083015260048101546080830152600581015460a083015260068101805460c0840191906110b390611a7c565b80601f01602080910402602001604051908101604052809291908181526020018280546110df90611a7c565b801561112c5780601f106111015761010080835404028352916020019161112c565b820191906000526020600020905b81548152906001019060200180831161110f57829003601f168201915b5050509183525050600782015460209091019060ff166002811115611153576111536117c6565b6002811115611164576111646117c6565b815260078201546001600160a01b036101009091048116602083015260088301541660408201526009909101546060909101526101408101519091506111a933610aef565b10156111c85760405163be24598360e01b815260040160405180910390fd5b6000816080015182606001516111de9190611acc565b82516001600160a01b03166000908152600a602052604081208054929350839290919061120c908490611ae4565b909155505081516001600160a01b03166000908152600860205260408120805483929061123a908490611acc565b90915550506001600160a01b0383811661012084018190529085166101008401819052600160e085015260405190919087907f3d6f754563e688abf06d08b529d2ee17ef5b7fcc177cd9dc1471a5f5efca69dc90600090a45050505050565b6112a382826113fc565b6001600160a01b0382163b15806113495750604051630a85bd0160e11b80825233600483015260006024830181905260448301849052608060648401526084830152906001600160a01b0384169063150b7a029060a4016020604051808303816000875af1158015611319573d6000803e3d6000fd5b505050506040513d601f19601f8201168201806040525081019061133d9190611afb565b6001600160e01b031916145b6113655760405162461bcd60e51b81526004016105bc90611b18565b5050565b6060600061137683611507565b600101905060008167ffffffffffffffff81111561139657611396611b96565b6040519080825280601f01601f1916602001820160405280156113c0576020820181803683370190505b5090508181016020015b600019016f181899199a1a9b1b9c1cb0b131b232b360811b600a86061a8153600a85049450846113ca57509392505050565b6001600160a01b0382166114465760405162461bcd60e51b81526020600482015260116024820152701253959053125117d49150d25412515395607a1b60448201526064016105bc565b6000818152600260205260409020546001600160a01b03161561149c5760405162461bcd60e51b815260206004820152600e60248201526d1053149150511657d3525395115160921b60448201526064016105bc565b6001600160a01b038216600081815260036020908152604080832080546001019055848352600290915280822080546001600160a01b0319168417905551839291907fddf252ad1be2c89b69c2b068fc378daa952ba7f163c4a11628f55a4df523b3ef908290a45050565b60008072184f03e93ff9f4daa797ed6e38ed64bf6a1f0160401b83106115465772184f03e93ff9f4daa797ed6e38ed64bf6a1f0160401b830492506040015b6d04ee2d6d415b85acef81000000008310611572576d04ee2d6d415b85acef8100000000830492506020015b662386f26fc10000831061159057662386f26fc10000830492506010015b6305f5e10083106115a8576305f5e100830492506008015b61271083106115bc57612710830492506004015b606483106115ce576064830492506002015b600a83106104a65760010192915050565b8280546115eb90611a7c565b90600052602060002090601f01602090048101928261160d5760008555611653565b82601f1061162657805160ff1916838001178555611653565b82800160010185558215611653579182015b82811115611653578251825591602001919060010190611638565b5061165f929150611663565b5090565b5b8082111561165f5760008155600101611664565b6001600160e01b03198116811461168e57600080fd5b50565b6000602082840312156116a357600080fd5b81356116ae81611678565b9392505050565b6000815180845260005b818110156116db576020818501810151868301820152016116bf565b818111156116ed576000602083870101525b50601f01601f19169290920160200192915050565b6020815260006116ae60208301846116b5565b60006020828403121561172757600080fd5b5035919050565b80356001600160a01b0381168114610aea57600080fd5b6000806040838503121561175857600080fd5b6117618361172e565b946020939093013593505050565b60008060006060848603121561178457600080fd5b61178d8461172e565b925061179b6020850161172e565b9150604084013590509250925092565b6000602082840312156117bd57600080fd5b6116ae8261172e565b634e487b7160e01b600052602160045260246000fd5b600061016060018060a01b03808f168452808e166020850152508b60408401528a60608401528960808401528860a08401528060c0840152611820818401896116b5565b9150506003861061184157634e487b7160e01b600052602160045260246000fd5b8560e083015261185d6101008301866001600160a01b03169052565b6001600160a01b039390931661012082015261014001529998505050505050505050565b60008083601f84011261189357600080fd5b50813567ffffffffffffffff8111156118ab57600080fd5b6020830191508360208285010111156118c357600080fd5b9250929050565b60008060008060008060008060006101008a8c0312156118e957600080fd5b6118f28a61172e565b985061190060208b0161172e565b975060408a0135965060608a0135955060808a0135945060a08a0135935060c08a0135925060e08a013567ffffffffffffffff81111561193f57600080fd5b61194b8c828d01611881565b915080935050809150509295985092959850929598565b6000806040838503121561197557600080fd5b61197e8361172e565b91506020830135801515811461199357600080fd5b809150509250929050565b6000806000806000608086880312156119b657600080fd5b6119bf8661172e565b94506119cd6020870161172e565b935060408601359250606086013567ffffffffffffffff8111156119f057600080fd5b6119fc88828901611881565b969995985093965092949392505050565b60008060408385031215611a2057600080fd5b611a298361172e565b9150611a376020840161172e565b90509250929050565b600080600060608486031215611a5557600080fd5b83359250611a656020850161172e565b9150611a736040850161172e565b90509250925092565b600181811c90821680611a9057607f821691505b602082108103611ab057634e487b7160e01b600052602260045260246000fd5b50919050565b634e487b7160e01b600052601160045260246000fd5b60008219821115611adf57611adf611ab6565b500190565b600082821015611af657611af6611ab6565b500390565b600060208284031215611b0d57600080fd5b81516116ae81611678565b60208082526010908201526f155394d0519157d49150d2541251539560821b604082015260600190565b6001600160a01b038681168252851660208201526040810184905260806060820181905281018290526000828460a0840137600060a0848401015260a0601f19601f85011683010190509695505050505050565b634e487b7160e01b600052604160045260246000fdfea2646970667358221220d00bdffdb034031bd4d9bdc683c10db84fb7de942ba2cff1bea4fa8ece136fd764736f6c634300080d0033",
    "linkReferences": {}
  },
  "methodIdentifiers": {
    "approve(address,uint256)": "095ea7b3",
    "balanceOf(address)": "70a08231",
    "cancellableBalances(address)": "5ff2bc91",
    "claimTask(uint256,address,address)": "fc05b2e8",
    "closeTask(uint256)": "1201dfc6",
    "currentTokenId()": "009a9b7b",
    "escrowedBalances(address)": "d6074aba",
    "getApproved(uint256)": "081812fc",
    "isApprovedForAll(address,address)": "e985e9c5",
    "mintTask(address,address,uint256,uint256,uint256,uint256,uint256,string)": "9a48dabc",
    "name()": "06fdde03",
    "ownerOf(uint256)": "6352211e",
    "safeTransferFrom(address,address,uint256)": "42842e0e",
    "safeTransferFrom(address,address,uint256,bytes)": "b88d4fde",
    "setApprovalForAll(address,bool)": "a22cb465",
    "supportsInterface(bytes4)": "01ffc9a7",
    "symbol()": "95d89b41",
    "tasks(uint256)": "8d977672",
    "tokenURI(uint256)": "c87b56dd",
    "transferFrom(address,address,uint256)": "23b872dd",
    "withdrawableBalances(address)": "2b576f4e"
  },
  "id": 3
}