{
  "abi": [
    {
      "inputs": [],
      "stateMutability": "nonpayable",
      "type": "constructor"
    },
    {
      "inputs": [],
      "name": "IncompatableStatus",
      "type": "error"
    },
    {
      "inputs": [],
      "name": "IncorrectFunds",
      "type": "error"
    },
    {
      "inputs": [],
      "name": "NonExistantTask",
      "type": "error"
    },
    {
      "inputs": [],
      "name": "TokenIsSoulbound",
      "type": "error"
    },
    {
      "inputs": [],
      "name": "UnAuthorized",
      "type": "error"
    },
    {
      "anonymous": false,
      "inputs": [
        {
          "indexed": true,
          "internalType": "address",
          "name": "owner",
          "type": "address"
        },
        {
          "indexed": true,
          "internalType": "address",
          "name": "spender",
          "type": "address"
        },
        {
          "indexed": true,
          "internalType": "uint256",
          "name": "id",
          "type": "uint256"
        }
      ],
      "name": "Approval",
      "type": "event"
    },
    {
      "anonymous": false,
      "inputs": [
        {
          "indexed": true,
          "internalType": "address",
          "name": "owner",
          "type": "address"
        },
        {
          "indexed": true,
          "internalType": "address",
          "name": "operator",
          "type": "address"
        },
        {
          "indexed": false,
          "internalType": "bool",
          "name": "approved",
          "type": "bool"
        }
      ],
      "name": "ApprovalForAll",
      "type": "event"
    },
    {
      "anonymous": false,
      "inputs": [
        {
          "indexed": true,
          "internalType": "uint256",
          "name": "tokenId",
          "type": "uint256"
        }
      ],
      "name": "TaskCancelled",
      "type": "event"
    },
    {
      "anonymous": false,
      "inputs": [
        {
          "indexed": true,
          "internalType": "uint256",
          "name": "tokenId",
          "type": "uint256"
        },
        {
          "indexed": true,
          "internalType": "address",
          "name": "contractor",
          "type": "address"
        },
        {
          "indexed": true,
          "internalType": "address",
          "name": "recruiter",
          "type": "address"
        }
      ],
      "name": "TaskClaimed",
      "type": "event"
    },
    {
      "anonymous": false,
      "inputs": [
        {
          "indexed": true,
          "internalType": "uint256",
          "name": "tokenId",
          "type": "uint256"
        }
      ],
      "name": "TaskClosed",
      "type": "event"
    },
    {
      "anonymous": false,
      "inputs": [
        {
          "indexed": true,
          "internalType": "uint256",
          "name": "tokenId",
          "type": "uint256"
        }
      ],
      "name": "TaskUnclaimed",
      "type": "event"
    },
    {
      "anonymous": false,
      "inputs": [
        {
          "indexed": true,
          "internalType": "address",
          "name": "from",
          "type": "address"
        },
        {
          "indexed": true,
          "internalType": "address",
          "name": "to",
          "type": "address"
        },
        {
          "indexed": true,
          "internalType": "uint256",
          "name": "id",
          "type": "uint256"
        }
      ],
      "name": "Transfer",
      "type": "event"
    },
    {
      "inputs": [
        {
          "internalType": "address",
          "name": "spender",
          "type": "address"
        },
        {
          "internalType": "uint256",
          "name": "id",
          "type": "uint256"
        }
      ],
      "name": "approve",
      "outputs": [],
      "stateMutability": "nonpayable",
      "type": "function"
    },
    {
      "inputs": [
        {
          "internalType": "address",
          "name": "owner",
          "type": "address"
        }
      ],
      "name": "balanceOf",
      "outputs": [
        {
          "internalType": "uint256",
          "name": "",
          "type": "uint256"
        }
      ],
      "stateMutability": "view",
      "type": "function"
    },
    {
      "inputs": [
        {
          "internalType": "address",
          "name": "",
          "type": "address"
        }
      ],
      "name": "cancellableBalances",
      "outputs": [
        {
          "internalType": "uint256",
          "name": "",
          "type": "uint256"
        }
      ],
      "stateMutability": "view",
      "type": "function"
    },
    {
      "inputs": [
        {
          "internalType": "uint256",
          "name": "_tokenId",
          "type": "uint256"
        },
        {
          "internalType": "address",
          "name": "_recruiter",
          "type": "address"
        },
        {
          "internalType": "address",
          "name": "_contractor",
          "type": "address"
        }
      ],
      "name": "claimTask",
      "outputs": [],
      "stateMutability": "nonpayable",
      "type": "function"
    },
    {
      "inputs": [
        {
          "internalType": "uint256",
          "name": "_tokenId",
          "type": "uint256"
        }
      ],
      "name": "closeTask",
      "outputs": [],
      "stateMutability": "nonpayable",
      "type": "function"
    },
    {
      "inputs": [],
      "name": "currentTokenId",
      "outputs": [
        {
          "internalType": "uint256",
          "name": "",
          "type": "uint256"
        }
      ],
      "stateMutability": "view",
      "type": "function"
    },
    {
      "inputs": [
        {
          "internalType": "address",
          "name": "",
          "type": "address"
        }
      ],
      "name": "escrowedBalances",
      "outputs": [
        {
          "internalType": "uint256",
          "name": "",
          "type": "uint256"
        }
      ],
      "stateMutability": "view",
      "type": "function"
    },
    {
      "inputs": [
        {
          "internalType": "uint256",
          "name": "",
          "type": "uint256"
        }
      ],
      "name": "getApproved",
      "outputs": [
        {
          "internalType": "address",
          "name": "",
          "type": "address"
        }
      ],
      "stateMutability": "view",
      "type": "function"
    },
    {
      "inputs": [
        {
          "internalType": "address",
          "name": "",
          "type": "address"
        },
        {
          "internalType": "address",
          "name": "",
          "type": "address"
        }
      ],
      "name": "isApprovedForAll",
      "outputs": [
        {
          "internalType": "bool",
          "name": "",
          "type": "bool"
        }
      ],
      "stateMutability": "view",
      "type": "function"
    },
    {
      "inputs": [
        {
          "internalType": "address",
          "name": "_employer",
          "type": "address"
        },
        {
          "internalType": "address",
          "name": "_creator",
          "type": "address"
        },
        {
          "internalType": "uint256",
          "name": "_creatorBounty",
          "type": "uint256"
        },
        {
          "internalType": "uint256",
          "name": "_contractorBounty",
          "type": "uint256"
        },
        {
          "internalType": "uint256",
          "name": "_recruiterBounty",
          "type": "uint256"
        },
        {
          "internalType": "uint256",
          "name": "_deadline",
          "type": "uint256"
        },
        {
          "internalType": "string",
          "name": "_tokenURI",
          "type": "string"
        }
      ],
      "name": "mintTask",
      "outputs": [],
      "stateMutability": "payable",
      "type": "function"
    },
    {
      "inputs": [],
      "name": "name",
      "outputs": [
        {
          "internalType": "string",
          "name": "",
          "type": "string"
        }
      ],
      "stateMutability": "view",
      "type": "function"
    },
    {
      "inputs": [
        {
          "internalType": "uint256",
          "name": "id",
          "type": "uint256"
        }
      ],
      "name": "ownerOf",
      "outputs": [
        {
          "internalType": "address",
          "name": "owner",
          "type": "address"
        }
      ],
      "stateMutability": "view",
      "type": "function"
    },
    {
      "inputs": [
        {
          "internalType": "address",
          "name": "from",
          "type": "address"
        },
        {
          "internalType": "address",
          "name": "to",
          "type": "address"
        },
        {
          "internalType": "uint256",
          "name": "id",
          "type": "uint256"
        }
      ],
      "name": "safeTransferFrom",
      "outputs": [],
      "stateMutability": "nonpayable",
      "type": "function"
    },
    {
      "inputs": [
        {
          "internalType": "address",
          "name": "from",
          "type": "address"
        },
        {
          "internalType": "address",
          "name": "to",
          "type": "address"
        },
        {
          "internalType": "uint256",
          "name": "id",
          "type": "uint256"
        },
        {
          "internalType": "bytes",
          "name": "data",
          "type": "bytes"
        }
      ],
      "name": "safeTransferFrom",
      "outputs": [],
      "stateMutability": "nonpayable",
      "type": "function"
    },
    {
      "inputs": [
        {
          "internalType": "address",
          "name": "operator",
          "type": "address"
        },
        {
          "internalType": "bool",
          "name": "approved",
          "type": "bool"
        }
      ],
      "name": "setApprovalForAll",
      "outputs": [],
      "stateMutability": "nonpayable",
      "type": "function"
    },
    {
      "inputs": [
        {
          "internalType": "bytes4",
          "name": "interfaceId",
          "type": "bytes4"
        }
      ],
      "name": "supportsInterface",
      "outputs": [
        {
          "internalType": "bool",
          "name": "",
          "type": "bool"
        }
      ],
      "stateMutability": "view",
      "type": "function"
    },
    {
      "inputs": [],
      "name": "symbol",
      "outputs": [
        {
          "internalType": "string",
          "name": "",
          "type": "string"
        }
      ],
      "stateMutability": "view",
      "type": "function"
    },
    {
      "inputs": [
        {
          "internalType": "uint256",
          "name": "",
          "type": "uint256"
        }
      ],
      "name": "tasks",
      "outputs": [
        {
          "internalType": "address",
          "name": "employer",
          "type": "address"
        },
        {
          "internalType": "address",
          "name": "creator",
          "type": "address"
        },
        {
          "internalType": "uint256",
          "name": "creatorBounty",
          "type": "uint256"
        },
        {
          "internalType": "uint256",
          "name": "contractorBounty",
          "type": "uint256"
        },
        {
          "internalType": "uint256",
          "name": "recruiterBounty",
          "type": "uint256"
        },
        {
          "internalType": "uint256",
          "name": "deadline",
          "type": "uint256"
        },
        {
          "internalType": "string",
          "name": "tokenURI",
          "type": "string"
        },
        {
          "internalType": "enum Uplift.Status",
          "name": "status",
          "type": "uint8"
        },
        {
          "internalType": "address",
          "name": "recruiter",
          "type": "address"
        },
        {
          "internalType": "address",
          "name": "contractor",
          "type": "address"
        }
      ],
      "stateMutability": "view",
      "type": "function"
    },
    {
      "inputs": [
        {
          "internalType": "uint256",
          "name": "id",
          "type": "uint256"
        }
      ],
      "name": "tokenURI",
      "outputs": [
        {
          "internalType": "string",
          "name": "",
          "type": "string"
        }
      ],
      "stateMutability": "view",
      "type": "function"
    },
    {
      "inputs": [
        {
          "internalType": "address",
          "name": "",
          "type": "address"
        },
        {
          "internalType": "address",
          "name": "",
          "type": "address"
        },
        {
          "internalType": "uint256",
          "name": "",
          "type": "uint256"
        }
      ],
      "name": "transferFrom",
      "outputs": [],
      "stateMutability": "pure",
      "type": "function"
    },
    {
      "inputs": [
        {
          "internalType": "address",
          "name": "",
          "type": "address"
        }
      ],
      "name": "withdrawableBalances",
      "outputs": [
        {
          "internalType": "uint256",
          "name": "",
          "type": "uint256"
        }
      ],
      "stateMutability": "view",
      "type": "function"
    }
  ],
  "bytecode": {
    "object": "0x60806040523480156200001157600080fd5b506040805180820182526006815265155c1b1a599d60d21b6020808301918252835180850190945260048452631312519560e21b9084015281519192916200005c916000916200007b565b508051620000729060019060208401906200007b565b5050506200015d565b828054620000899062000121565b90600052602060002090601f016020900481019282620000ad5760008555620000f8565b82601f10620000c857805160ff1916838001178555620000f8565b82800160010185558215620000f8579182015b82811115620000f8578251825591602001919060010190620000db565b50620001069291506200010a565b5090565b5b808211156200010657600081556001016200010b565b600181811c908216806200013657607f821691505b6020821081036200015757634e487b7160e01b600052602260045260246000fd5b50919050565b611b77806200016d6000396000f3fe6080604052600436106101295760003560e01c80636352211e116100ab578063b88d4fde1161006f578063b88d4fde1461037e578063c87b56dd1461039e578063d49f0b9a146103be578063d6074aba146103d1578063e985e9c5146103fe578063fc05b2e81461043957600080fd5b80636352211e146102d357806370a08231146102f35780638d9776721461031357806395d89b4114610349578063a22cb4651461035e57600080fd5b80631201dfc6116100f25780631201dfc61461021957806323b872dd146102395780632b576f4e1461025957806342842e0e146102865780635ff2bc91146102a657600080fd5b80629a9b7b1461012e57806301ffc9a71461015757806306fdde0314610187578063081812fc146101a9578063095ea7b3146101f7575b600080fd5b34801561013a57600080fd5b5061014460065481565b6040519081526020015b60405180910390f35b34801561016357600080fd5b50610177610172366004611638565b610459565b604051901515815260200161014e565b34801561019357600080fd5b5061019c6104ab565b60405161014e91906116a9565b3480156101b557600080fd5b506101df6101c43660046116bc565b6004602052600090815260409020546001600160a01b031681565b6040516001600160a01b03909116815260200161014e565b34801561020357600080fd5b506102176102123660046116ec565b610539565b005b34801561022557600080fd5b506102176102343660046116bc565b610620565b34801561024557600080fd5b50610217610254366004611716565b6109a1565b34801561026557600080fd5b50610144610274366004611752565b60096020526000908152604090205481565b34801561029257600080fd5b506102176102a1366004611716565b6109ba565b3480156102b257600080fd5b506101446102c1366004611752565b600a6020526000908152604090205481565b3480156102df57600080fd5b506101df6102ee3660046116bc565b610a8f565b3480156102ff57600080fd5b5061014461030e366004611752565b610ae6565b34801561031f57600080fd5b5061033361032e3660046116bc565b610b49565b60405161014e9a99989796959493929190611783565b34801561035557600080fd5b5061019c610c40565b34801561036a57600080fd5b50610217610379366004611823565b610c4d565b34801561038a57600080fd5b506102176103993660046118a8565b610cb9565b3480156103aa57600080fd5b5061019c6103b93660046116bc565b610d7e565b6102176103cc366004611917565b610d89565b3480156103dd57600080fd5b506101446103ec366004611752565b60086020526000908152604090205481565b34801561040a57600080fd5b506101776104193660046119a2565b600560209081526000928352604080842090915290825290205460ff1681565b34801561044557600080fd5b506102176104543660046119d5565b610f9d565b60006301ffc9a760e01b6001600160e01b03198316148061048a57506380ac58cd60e01b6001600160e01b03198316145b806104a55750635b5e139f60e01b6001600160e01b03198316145b92915050565b600080546104b890611a11565b80601f01602080910402602001604051908101604052809291908181526020018280546104e490611a11565b80156105315780601f1061050657610100808354040283529160200191610531565b820191906000526020600020905b81548152906001019060200180831161051457829003601f168201915b505050505081565b6000818152600260205260409020546001600160a01b03163381148061058257506001600160a01b038116600090815260056020908152604080832033845290915290205460ff165b6105c45760405162461bcd60e51b815260206004820152600e60248201526d1393d517d055551213d49256915160921b60448201526064015b60405180910390fd5b60008281526004602052604080822080546001600160a01b0319166001600160a01b0387811691821790925591518593918516917f8c5be1e5ebec7d5bd14f71427d1e84f3dd0314c0f7b2291e5b200ac8c7c3b92591a4505050565b6000818152600260205260408120546001600160a01b03161515900361065957604051632d14777560e11b815260040160405180910390fd5b600081815260076020908152604080832081516101408101835281546001600160a01b039081168252600183015416938101939093526002810154918301919091526003810154606083015260048101546080830152600581015460a083015260068101805460c0840191906106ce90611a11565b80601f01602080910402602001604051908101604052809291908181526020018280546106fa90611a11565b80156107475780601f1061071c57610100808354040283529160200191610747565b820191906000526020600020905b81548152906001019060200180831161072a57829003601f168201915b5050509183525050600782015460209091019060ff16600281111561076e5761076e61176d565b600281111561077f5761077f61176d565b815260078201546001600160a01b0361010090910481166020830152600890920154909116604090910152905060016000838152600760208190526040909120015460ff1660028111156107d5576107d561176d565b146107f35760405163075802eb60e01b815260040160405180910390fd5b6101208101516001600160a01b031633146108215760405163be24598360e01b815260040160405180910390fd5b6000816080015182606001516108379190611a61565b82516001600160a01b0316600090815260086020526040812080549293508392909190610865908490611a79565b909155505060608201516101208301516001600160a01b03166000908152600960205260408120805490919061089c908490611a61565b909155505060808201516101008301516001600160a01b0316600090815260096020526040812080549091906108d3908490611a61565b9091555050600260e0830181905282516001600160a01b039081166000908152600360209081526040808320805460001901905561012087018051851684528184208054600101905580518985529590925280832080546001600160a01b03191695851695909517909455518551935187949184169391909116917fddf252ad1be2c89b69c2b068fc378daa952ba7f163c4a11628f55a4df523b3ef91a460405183907f91dfc924b25cd3a750912075cf0e6bed2235ec6eca305e91b6124d90bf411b2590600090a2505050565b6040516358b2164f60e11b815260040160405180910390fd5b6109c58383836109a1565b6001600160a01b0382163b1580610a6e5750604051630a85bd0160e11b8082523360048301526001600160a01b03858116602484015260448301849052608060648401526000608484015290919084169063150b7a029060a4016020604051808303816000875af1158015610a3e573d6000803e3d6000fd5b505050506040513d601f19601f82011682018060405250810190610a629190611a90565b6001600160e01b031916145b610a8a5760405162461bcd60e51b81526004016105bb90611aad565b505050565b6000818152600260205260409020546001600160a01b031680610ae15760405162461bcd60e51b815260206004820152600a6024820152691393d517d3525395115160b21b60448201526064016105bb565b919050565b60006001600160a01b038216610b2d5760405162461bcd60e51b815260206004820152600c60248201526b5a45524f5f4144445245535360a01b60448201526064016105bb565b506001600160a01b031660009081526003602052604090205490565b60076020526000908152604090208054600182015460028301546003840154600485015460058601546006870180546001600160a01b039788169896909716969495939492939192610b9a90611a11565b80601f0160208091040260200160405190810160405280929190818152602001828054610bc690611a11565b8015610c135780601f10610be857610100808354040283529160200191610c13565b820191906000526020600020905b815481529060010190602001808311610bf657829003601f168201915b5050506007840154600890940154929360ff8116936001600160a01b03610100909204821693501690508a565b600180546104b890611a11565b3360008181526005602090815260408083206001600160a01b03871680855290835292819020805460ff191686151590811790915590519081529192917f17307eab39ab6107e8899845ad3d59bd9653f200f220920489ca2b5937696c31910160405180910390a35050565b610cc48585856109a1565b6001600160a01b0384163b1580610d5b5750604051630a85bd0160e11b808252906001600160a01b0386169063150b7a0290610d0c9033908a90899089908990600401611ad7565b6020604051808303816000875af1158015610d2b573d6000803e3d6000fd5b505050506040513d601f19601f82011682018060405250810190610d4f9190611a90565b6001600160e01b031916145b610d775760405162461bcd60e51b81526004016105bb90611aad565b5050505050565b60606104a582611240565b83610d948688611a61565b610d9e9190611a61565b3414610dbd57604051637832e81760e01b815260040160405180910390fd5b604051806101400160405280896001600160a01b03168152602001886001600160a01b0316815260200187815260200186815260200185815260200184815260200183838080601f016020809104026020016040519081016040528093929190818152602001838380828437600092018290525093855250506020909201915081526000602080830182905260409283018290526006805483526007825291839020845181546001600160a01b039182166001600160a01b031991821617835586840151600184018054919093169116179055928401516002840155606084015160038401556080840151600484015560a0840151600584015560c08401518051610ecf938501929190910190611586565b5060e082015160078201805460ff19166001836002811115610ef357610ef361176d565b021790555061010082810151600783018054610100600160a81b0319166001600160a01b039283169093029290921790915561012090920151600890910180546001600160a01b03191691831691909117905587166000908152600960205260409020869055610f638486611a61565b6001600160a01b0389166000908152600a6020526040902055600654610f8a9089906112d3565b5050600680546001019055505050505050565b6000838152600260205260408120546001600160a01b031615159003610fd657604051632d14777560e11b815260040160405180910390fd5b60008381526007602081905260408220015460ff166002811115610ffc57610ffc61176d565b1461101a5760405163075802eb60e01b815260040160405180910390fd5b600083815260076020908152604080832081516101408101835281546001600160a01b039081168252600183015416938101939093526002810154918301919091526003810154606083015260048101546080830152600581015460a083015260068101805460c08401919061108f90611a11565b80601f01602080910402602001604051908101604052809291908181526020018280546110bb90611a11565b80156111085780601f106110dd57610100808354040283529160200191611108565b820191906000526020600020905b8154815290600101906020018083116110eb57829003601f168201915b5050509183525050600782015460209091019060ff16600281111561112f5761112f61176d565b60028111156111405761114061176d565b815260078201546001600160a01b0361010090910481166020830152600890920154909116604090910152608081015160608201519192506000916111859190611a61565b82516001600160a01b03166000908152600a60205260408120805492935083929091906111b3908490611a79565b909155505081516001600160a01b0316600090815260086020526040812080548392906111e1908490611a61565b90915550506001600160a01b0383811661012084018190529085166101008401819052600160e085015260405190919087907f3d6f754563e688abf06d08b529d2ee17ef5b7fcc177cd9dc1471a5f5efca69dc90600090a45050505050565b6060600061124d836113a3565b600101905060008167ffffffffffffffff81111561126d5761126d611b2b565b6040519080825280601f01601f191660200182016040528015611297576020820181803683370190505b5090508181016020015b600019016f181899199a1a9b1b9c1cb0b131b232b360811b600a86061a8153600a85049450846112a157509392505050565b6112dd828261147b565b6001600160a01b0382163b15806113835750604051630a85bd0160e11b80825233600483015260006024830181905260448301849052608060648401526084830152906001600160a01b0384169063150b7a029060a4016020604051808303816000875af1158015611353573d6000803e3d6000fd5b505050506040513d601f19601f820116820180604052508101906113779190611a90565b6001600160e01b031916145b61139f5760405162461bcd60e51b81526004016105bb90611aad565b5050565b60008072184f03e93ff9f4daa797ed6e38ed64bf6a1f0160401b83106113e25772184f03e93ff9f4daa797ed6e38ed64bf6a1f0160401b830492506040015b6d04ee2d6d415b85acef8100000000831061140e576d04ee2d6d415b85acef8100000000830492506020015b662386f26fc10000831061142c57662386f26fc10000830492506010015b6305f5e1008310611444576305f5e100830492506008015b612710831061145857612710830492506004015b6064831061146a576064830492506002015b600a83106104a55760010192915050565b6001600160a01b0382166114c55760405162461bcd60e51b81526020600482015260116024820152701253959053125117d49150d25412515395607a1b60448201526064016105bb565b6000818152600260205260409020546001600160a01b03161561151b5760405162461bcd60e51b815260206004820152600e60248201526d1053149150511657d3525395115160921b60448201526064016105bb565b6001600160a01b038216600081815260036020908152604080832080546001019055848352600290915280822080546001600160a01b0319168417905551839291907fddf252ad1be2c89b69c2b068fc378daa952ba7f163c4a11628f55a4df523b3ef908290a45050565b82805461159290611a11565b90600052602060002090601f0160209004810192826115b457600085556115fa565b82601f106115cd57805160ff19168380011785556115fa565b828001600101855582156115fa579182015b828111156115fa5782518255916020019190600101906115df565b5061160692915061160a565b5090565b5b80821115611606576000815560010161160b565b6001600160e01b03198116811461163557600080fd5b50565b60006020828403121561164a57600080fd5b81356116558161161f565b9392505050565b6000815180845260005b8181101561168257602081850181015186830182015201611666565b81811115611694576000602083870101525b50601f01601f19169290920160200192915050565b602081526000611655602083018461165c565b6000602082840312156116ce57600080fd5b5035919050565b80356001600160a01b0381168114610ae157600080fd5b600080604083850312156116ff57600080fd5b611708836116d5565b946020939093013593505050565b60008060006060848603121561172b57600080fd5b611734846116d5565b9250611742602085016116d5565b9150604084013590509250925092565b60006020828403121561176457600080fd5b611655826116d5565b634e487b7160e01b600052602160045260246000fd5b600061014060018060a01b03808e168452808d166020850152508a60408401528960608401528860808401528760a08401528060c08401526117c78184018861165c565b915050600385106117e857634e487b7160e01b600052602160045260246000fd5b8460e08301526118046101008301856001600160a01b03169052565b6001600160a01b0383166101208301529b9a5050505050505050505050565b6000806040838503121561183657600080fd5b61183f836116d5565b91506020830135801515811461185457600080fd5b809150509250929050565b60008083601f84011261187157600080fd5b50813567ffffffffffffffff81111561188957600080fd5b6020830191508360208285010111156118a157600080fd5b9250929050565b6000806000806000608086880312156118c057600080fd5b6118c9866116d5565b94506118d7602087016116d5565b935060408601359250606086013567ffffffffffffffff8111156118fa57600080fd5b6119068882890161185f565b969995985093965092949392505050565b60008060008060008060008060e0898b03121561193357600080fd5b61193c896116d5565b975061194a60208a016116d5565b965060408901359550606089013594506080890135935060a0890135925060c089013567ffffffffffffffff81111561198257600080fd5b61198e8b828c0161185f565b999c989b5096995094979396929594505050565b600080604083850312156119b557600080fd5b6119be836116d5565b91506119cc602084016116d5565b90509250929050565b6000806000606084860312156119ea57600080fd5b833592506119fa602085016116d5565b9150611a08604085016116d5565b90509250925092565b600181811c90821680611a2557607f821691505b602082108103611a4557634e487b7160e01b600052602260045260246000fd5b50919050565b634e487b7160e01b600052601160045260246000fd5b60008219821115611a7457611a74611a4b565b500190565b600082821015611a8b57611a8b611a4b565b500390565b600060208284031215611aa257600080fd5b81516116558161161f565b60208082526010908201526f155394d0519157d49150d2541251539560821b604082015260600190565b6001600160a01b038681168252851660208201526040810184905260806060820181905281018290526000828460a0840137600060a0848401015260a0601f19601f85011683010190509695505050505050565b634e487b7160e01b600052604160045260246000fdfea2646970667358221220db5c9c9b116e9f0ed5049cb76dba0dcbf3e23dc4811e16f85e093aa873efc4ba64736f6c634300080d0033",
    "linkReferences": {}
  },
  "methodIdentifiers": {
    "approve(address,uint256)": "095ea7b3",
    "balanceOf(address)": "70a08231",
    "cancellableBalances(address)": "5ff2bc91",
    "claimTask(uint256,address,address)": "fc05b2e8",
    "closeTask(uint256)": "1201dfc6",
    "currentTokenId()": "009a9b7b",
    "escrowedBalances(address)": "d6074aba",
    "getApproved(uint256)": "081812fc",
    "isApprovedForAll(address,address)": "e985e9c5",
    "mintTask(address,address,uint256,uint256,uint256,uint256,string)": "d49f0b9a",
    "name()": "06fdde03",
    "ownerOf(uint256)": "6352211e",
    "safeTransferFrom(address,address,uint256)": "42842e0e",
    "safeTransferFrom(address,address,uint256,bytes)": "b88d4fde",
    "setApprovalForAll(address,bool)": "a22cb465",
    "supportsInterface(bytes4)": "01ffc9a7",
    "symbol()": "95d89b41",
    "tasks(uint256)": "8d977672",
    "tokenURI(uint256)": "c87b56dd",
    "transferFrom(address,address,uint256)": "23b872dd",
    "withdrawableBalances(address)": "2b576f4e"
  },
  "id": 3
}