{
  "abi": [
    {
      "inputs": [
        {
          "internalType": "address",
          "name": "_edu_address",
          "type": "address"
        }
      ],
      "stateMutability": "nonpayable",
      "type": "constructor"
    },
    {
      "inputs": [],
      "name": "IncompatableStatus",
      "type": "error"
    },
    {
      "inputs": [],
      "name": "IncorrectFunds",
      "type": "error"
    },
    {
      "inputs": [],
      "name": "InsufficientEDU",
      "type": "error"
    },
    {
      "inputs": [],
      "name": "NonExistantTask",
      "type": "error"
    },
    {
      "inputs": [],
      "name": "TokenIsSoulbound",
      "type": "error"
    },
    {
      "inputs": [],
      "name": "UnAuthorized",
      "type": "error"
    },
    {
      "anonymous": false,
      "inputs": [
        {
          "indexed": true,
          "internalType": "address",
          "name": "owner",
          "type": "address"
        },
        {
          "indexed": true,
          "internalType": "address",
          "name": "spender",
          "type": "address"
        },
        {
          "indexed": true,
          "internalType": "uint256",
          "name": "id",
          "type": "uint256"
        }
      ],
      "name": "Approval",
      "type": "event"
    },
    {
      "anonymous": false,
      "inputs": [
        {
          "indexed": true,
          "internalType": "address",
          "name": "owner",
          "type": "address"
        },
        {
          "indexed": true,
          "internalType": "address",
          "name": "operator",
          "type": "address"
        },
        {
          "indexed": false,
          "internalType": "bool",
          "name": "approved",
          "type": "bool"
        }
      ],
      "name": "ApprovalForAll",
      "type": "event"
    },
    {
      "anonymous": false,
      "inputs": [
        {
          "indexed": true,
          "internalType": "uint256",
          "name": "tokenId",
          "type": "uint256"
        }
      ],
      "name": "TaskCancelled",
      "type": "event"
    },
    {
      "anonymous": false,
      "inputs": [
        {
          "indexed": true,
          "internalType": "uint256",
          "name": "tokenId",
          "type": "uint256"
        },
        {
          "indexed": true,
          "internalType": "address",
          "name": "contractor",
          "type": "address"
        },
        {
          "indexed": true,
          "internalType": "address",
          "name": "recruiter",
          "type": "address"
        }
      ],
      "name": "TaskClaimed",
      "type": "event"
    },
    {
      "anonymous": false,
      "inputs": [
        {
          "indexed": true,
          "internalType": "uint256",
          "name": "tokenId",
          "type": "uint256"
        }
      ],
      "name": "TaskClosed",
      "type": "event"
    },
    {
      "anonymous": false,
      "inputs": [
        {
          "indexed": true,
          "internalType": "uint256",
          "name": "tokenId",
          "type": "uint256"
        }
      ],
      "name": "TaskUnclaimed",
      "type": "event"
    },
    {
      "anonymous": false,
      "inputs": [
        {
          "indexed": true,
          "internalType": "address",
          "name": "from",
          "type": "address"
        },
        {
          "indexed": true,
          "internalType": "address",
          "name": "to",
          "type": "address"
        },
        {
          "indexed": true,
          "internalType": "uint256",
          "name": "id",
          "type": "uint256"
        }
      ],
      "name": "Transfer",
      "type": "event"
    },
    {
      "inputs": [
        {
          "internalType": "address",
          "name": "spender",
          "type": "address"
        },
        {
          "internalType": "uint256",
          "name": "id",
          "type": "uint256"
        }
      ],
      "name": "approve",
      "outputs": [],
      "stateMutability": "nonpayable",
      "type": "function"
    },
    {
      "inputs": [
        {
          "internalType": "address",
          "name": "owner",
          "type": "address"
        }
      ],
      "name": "balanceOf",
      "outputs": [
        {
          "internalType": "uint256",
          "name": "",
          "type": "uint256"
        }
      ],
      "stateMutability": "view",
      "type": "function"
    },
    {
      "inputs": [
        {
          "internalType": "address",
          "name": "",
          "type": "address"
        }
      ],
      "name": "cancellableBalances",
      "outputs": [
        {
          "internalType": "uint256",
          "name": "",
          "type": "uint256"
        }
      ],
      "stateMutability": "view",
      "type": "function"
    },
    {
      "inputs": [
        {
          "internalType": "uint256",
          "name": "_tokenId",
          "type": "uint256"
        },
        {
          "internalType": "address",
          "name": "_recruiter",
          "type": "address"
        },
        {
          "internalType": "address",
          "name": "_contractor",
          "type": "address"
        }
      ],
      "name": "claimTask",
      "outputs": [],
      "stateMutability": "nonpayable",
      "type": "function"
    },
    {
      "inputs": [
        {
          "internalType": "uint256",
          "name": "_tokenId",
          "type": "uint256"
        }
      ],
      "name": "closeTask",
      "outputs": [],
      "stateMutability": "nonpayable",
      "type": "function"
    },
    {
      "inputs": [],
      "name": "currentTokenId",
      "outputs": [
        {
          "internalType": "uint256",
          "name": "",
          "type": "uint256"
        }
      ],
      "stateMutability": "view",
      "type": "function"
    },
    {
      "inputs": [
        {
          "internalType": "address",
          "name": "",
          "type": "address"
        }
      ],
      "name": "escrowedBalances",
      "outputs": [
        {
          "internalType": "uint256",
          "name": "",
          "type": "uint256"
        }
      ],
      "stateMutability": "view",
      "type": "function"
    },
    {
      "inputs": [
        {
          "internalType": "uint256",
          "name": "",
          "type": "uint256"
        }
      ],
      "name": "getApproved",
      "outputs": [
        {
          "internalType": "address",
          "name": "",
          "type": "address"
        }
      ],
      "stateMutability": "view",
      "type": "function"
    },
    {
      "inputs": [
        {
          "internalType": "address",
          "name": "",
          "type": "address"
        },
        {
          "internalType": "address",
          "name": "",
          "type": "address"
        }
      ],
      "name": "isApprovedForAll",
      "outputs": [
        {
          "internalType": "bool",
          "name": "",
          "type": "bool"
        }
      ],
      "stateMutability": "view",
      "type": "function"
    },
    {
      "inputs": [
        {
          "internalType": "address",
          "name": "_employer",
          "type": "address"
        },
        {
          "internalType": "address",
          "name": "_creator",
          "type": "address"
        },
        {
          "internalType": "uint256",
          "name": "_creatorBounty",
          "type": "uint256"
        },
        {
          "internalType": "uint256",
          "name": "_contractorBounty",
          "type": "uint256"
        },
        {
          "internalType": "uint256",
          "name": "_recruiterBounty",
          "type": "uint256"
        },
        {
          "internalType": "uint256",
          "name": "_deadline",
          "type": "uint256"
        },
        {
          "internalType": "uint256",
          "name": "_minBalance",
          "type": "uint256"
        },
        {
          "internalType": "uint256",
          "name": "_minEdu",
          "type": "uint256"
        },
        {
          "internalType": "string",
          "name": "_tokenURI",
          "type": "string"
        }
      ],
      "name": "mintTask",
      "outputs": [],
      "stateMutability": "payable",
      "type": "function"
    },
    {
      "inputs": [],
      "name": "name",
      "outputs": [
        {
          "internalType": "string",
          "name": "",
          "type": "string"
        }
      ],
      "stateMutability": "view",
      "type": "function"
    },
    {
      "inputs": [
        {
          "internalType": "uint256",
          "name": "id",
          "type": "uint256"
        }
      ],
      "name": "ownerOf",
      "outputs": [
        {
          "internalType": "address",
          "name": "owner",
          "type": "address"
        }
      ],
      "stateMutability": "view",
      "type": "function"
    },
    {
      "inputs": [
        {
          "internalType": "address",
          "name": "from",
          "type": "address"
        },
        {
          "internalType": "address",
          "name": "to",
          "type": "address"
        },
        {
          "internalType": "uint256",
          "name": "id",
          "type": "uint256"
        }
      ],
      "name": "safeTransferFrom",
      "outputs": [],
      "stateMutability": "nonpayable",
      "type": "function"
    },
    {
      "inputs": [
        {
          "internalType": "address",
          "name": "from",
          "type": "address"
        },
        {
          "internalType": "address",
          "name": "to",
          "type": "address"
        },
        {
          "internalType": "uint256",
          "name": "id",
          "type": "uint256"
        },
        {
          "internalType": "bytes",
          "name": "data",
          "type": "bytes"
        }
      ],
      "name": "safeTransferFrom",
      "outputs": [],
      "stateMutability": "nonpayable",
      "type": "function"
    },
    {
      "inputs": [
        {
          "internalType": "address",
          "name": "operator",
          "type": "address"
        },
        {
          "internalType": "bool",
          "name": "approved",
          "type": "bool"
        }
      ],
      "name": "setApprovalForAll",
      "outputs": [],
      "stateMutability": "nonpayable",
      "type": "function"
    },
    {
      "inputs": [
        {
          "internalType": "bytes4",
          "name": "interfaceId",
          "type": "bytes4"
        }
      ],
      "name": "supportsInterface",
      "outputs": [
        {
          "internalType": "bool",
          "name": "",
          "type": "bool"
        }
      ],
      "stateMutability": "view",
      "type": "function"
    },
    {
      "inputs": [],
      "name": "symbol",
      "outputs": [
        {
          "internalType": "string",
          "name": "",
          "type": "string"
        }
      ],
      "stateMutability": "view",
      "type": "function"
    },
    {
      "inputs": [
        {
          "internalType": "uint256",
          "name": "",
          "type": "uint256"
        }
      ],
      "name": "tasks",
      "outputs": [
        {
          "internalType": "address",
          "name": "employer",
          "type": "address"
        },
        {
          "internalType": "address",
          "name": "creator",
          "type": "address"
        },
        {
          "internalType": "uint256",
          "name": "creatorBounty",
          "type": "uint256"
        },
        {
          "internalType": "uint256",
          "name": "contractorBounty",
          "type": "uint256"
        },
        {
          "internalType": "uint256",
          "name": "recruiterBounty",
          "type": "uint256"
        },
        {
          "internalType": "uint256",
          "name": "deadline",
          "type": "uint256"
        },
        {
          "internalType": "string",
          "name": "tokenURI",
          "type": "string"
        },
        {
          "internalType": "enum Uplift.Status",
          "name": "status",
          "type": "uint8"
        },
        {
          "internalType": "address",
          "name": "recruiter",
          "type": "address"
        },
        {
          "internalType": "address",
          "name": "contractor",
          "type": "address"
        },
        {
          "internalType": "uint256",
          "name": "minBalance",
          "type": "uint256"
        },
        {
          "internalType": "uint256",
          "name": "minEdu",
          "type": "uint256"
        }
      ],
      "stateMutability": "view",
      "type": "function"
    },
    {
      "inputs": [
        {
          "internalType": "uint256",
          "name": "id",
          "type": "uint256"
        }
      ],
      "name": "tokenURI",
      "outputs": [
        {
          "internalType": "string",
          "name": "",
          "type": "string"
        }
      ],
      "stateMutability": "view",
      "type": "function"
    },
    {
      "inputs": [
        {
          "internalType": "address",
          "name": "",
          "type": "address"
        },
        {
          "internalType": "address",
          "name": "",
          "type": "address"
        },
        {
          "internalType": "uint256",
          "name": "",
          "type": "uint256"
        }
      ],
      "name": "transferFrom",
      "outputs": [],
      "stateMutability": "pure",
      "type": "function"
    },
    {
      "inputs": [
        {
          "internalType": "address",
          "name": "",
          "type": "address"
        }
      ],
      "name": "withdrawableBalances",
      "outputs": [
        {
          "internalType": "uint256",
          "name": "",
          "type": "uint256"
        }
      ],
      "stateMutability": "view",
      "type": "function"
    }
  ],
  "bytecode": {
    "object": "0x60806040523480156200001157600080fd5b5060405162001eae38038062001eae833981016040819052620000349162000164565b6040805180820182526006815265155c1b1a599d60d21b6020808301918252835180850190945260048452631312519560e21b9084015281519192916200007e91600091620000be565b50805162000094906001906020840190620000be565b5050600780546001600160a01b0319166001600160a01b03939093169290921790915550620001d2565b828054620000cc9062000196565b90600052602060002090601f016020900481019282620000f057600085556200013b565b82601f106200010b57805160ff19168380011785556200013b565b828001600101855582156200013b579182015b828111156200013b5782518255916020019190600101906200011e565b50620001499291506200014d565b5090565b5b808211156200014957600081556001016200014e565b6000602082840312156200017757600080fd5b81516001600160a01b03811681146200018f57600080fd5b9392505050565b600181811c90821680620001ab57607f821691505b602082108103620001cc57634e487b7160e01b600052602260045260246000fd5b50919050565b611ccc80620001e26000396000f3fe6080604052600436106101295760003560e01c80636352211e116100ab578063b88d4fde1161006f578063b88d4fde14610380578063c87b56dd146103a0578063d6074aba146103c0578063e600c351146103ed578063e985e9c514610400578063fc05b2e81461043b57600080fd5b80636352211e146102d357806370a08231146102f35780638d9776721461031357806395d89b411461034b578063a22cb4651461036057600080fd5b80631201dfc6116100f25780631201dfc61461021957806323b872dd146102395780632b576f4e1461025957806342842e0e146102865780635ff2bc91146102a657600080fd5b80629a9b7b1461012e57806301ffc9a71461015757806306fdde0314610187578063081812fc146101a9578063095ea7b3146101f7575b600080fd5b34801561013a57600080fd5b5061014460065481565b6040519081526020015b60405180910390f35b34801561016357600080fd5b5061017761017236600461174f565b61045b565b604051901515815260200161014e565b34801561019357600080fd5b5061019c6104ad565b60405161014e91906117c0565b3480156101b557600080fd5b506101df6101c43660046117d3565b6004602052600090815260409020546001600160a01b031681565b6040516001600160a01b03909116815260200161014e565b34801561020357600080fd5b50610217610212366004611803565b61053b565b005b34801561022557600080fd5b506102176102343660046117d3565b610622565b34801561024557600080fd5b5061021761025436600461182d565b6109b4565b34801561026557600080fd5b50610144610274366004611869565b600a6020526000908152604090205481565b34801561029257600080fd5b506102176102a136600461182d565b6109cd565b3480156102b257600080fd5b506101446102c1366004611869565b600b6020526000908152604090205481565b3480156102df57600080fd5b506101df6102ee3660046117d3565b610aa2565b3480156102ff57600080fd5b5061014461030e366004611869565b610af9565b34801561031f57600080fd5b5061033361032e3660046117d3565b610b5c565b60405161014e9c9b9a9998979695949392919061189a565b34801561035757600080fd5b5061019c610c60565b34801561036c57600080fd5b5061021761037b366004611947565b610c6d565b34801561038c57600080fd5b5061021761039b3660046119cc565b610cd9565b3480156103ac57600080fd5b5061019c6103bb3660046117d3565b610d9e565b3480156103cc57600080fd5b506101446103db366004611869565b60096020526000908152604090205481565b6102176103fb366004611a3b565b610da9565b34801561040c57600080fd5b5061017761041b366004611ade565b600560209081526000928352604080842090915290825290205460ff1681565b34801561044757600080fd5b50610217610456366004611b11565b610fe4565b60006301ffc9a760e01b6001600160e01b03198316148061048c57506380ac58cd60e01b6001600160e01b03198316145b806104a75750635b5e139f60e01b6001600160e01b03198316145b92915050565b600080546104ba90611b4d565b80601f01602080910402602001604051908101604052809291908181526020018280546104e690611b4d565b80156105335780601f1061050857610100808354040283529160200191610533565b820191906000526020600020905b81548152906001019060200180831161051657829003601f168201915b505050505081565b6000818152600260205260409020546001600160a01b03163381148061058457506001600160a01b038116600090815260056020908152604080832033845290915290205460ff165b6105c65760405162461bcd60e51b815260206004820152600e60248201526d1393d517d055551213d49256915160921b60448201526064015b60405180910390fd5b60008281526004602052604080822080546001600160a01b0319166001600160a01b0387811691821790925591518593918516917f8c5be1e5ebec7d5bd14f71427d1e84f3dd0314c0f7b2291e5b200ac8c7c3b92591a4505050565b6000818152600260205260408120546001600160a01b03161515900361065b57604051632d14777560e11b815260040160405180910390fd5b600081815260086020908152604080832081516101808101835281546001600160a01b039081168252600183015416938101939093526002810154918301919091526003810154606083015260048101546080830152600581015460a083015260068101805460c0840191906106d090611b4d565b80601f01602080910402602001604051908101604052809291908181526020018280546106fc90611b4d565b80156107495780601f1061071e57610100808354040283529160200191610749565b820191906000526020600020905b81548152906001019060200180831161072c57829003601f168201915b5050509183525050600782015460209091019060ff16600281111561077057610770611884565b600281111561078157610781611884565b815260078201546001600160a01b0361010090910481166020830152600883015416604082015260098201546060820152600a909101546080909101529050600160008381526008602052604090206007015460ff1660028111156107e8576107e8611884565b146108065760405163075802eb60e01b815260040160405180910390fd5b6101208101516001600160a01b031633146108345760405163be24598360e01b815260040160405180910390fd5b60008160800151826060015161084a9190611b9d565b82516001600160a01b0316600090815260096020526040812080549293508392909190610878908490611bb5565b909155505060608201516101208301516001600160a01b03166000908152600a6020526040812080549091906108af908490611b9d565b909155505060808201516101008301516001600160a01b03166000908152600a6020526040812080549091906108e6908490611b9d565b9091555050600260e0830181905282516001600160a01b039081166000908152600360209081526040808320805460001901905561012087018051851684528184208054600101905580518985529590925280832080546001600160a01b03191695851695909517909455518551935187949184169391909116917fddf252ad1be2c89b69c2b068fc378daa952ba7f163c4a11628f55a4df523b3ef91a460405183907f91dfc924b25cd3a750912075cf0e6bed2235ec6eca305e91b6124d90bf411b2590600090a2505050565b6040516358b2164f60e11b815260040160405180910390fd5b6109d88383836109b4565b6001600160a01b0382163b1580610a815750604051630a85bd0160e11b8082523360048301526001600160a01b03858116602484015260448301849052608060648401526000608484015290919084169063150b7a029060a4016020604051808303816000875af1158015610a51573d6000803e3d6000fd5b505050506040513d601f19601f82011682018060405250810190610a759190611bcc565b6001600160e01b031916145b610a9d5760405162461bcd60e51b81526004016105bd90611be9565b505050565b6000818152600260205260409020546001600160a01b031680610af45760405162461bcd60e51b815260206004820152600a6024820152691393d517d3525395115160b21b60448201526064016105bd565b919050565b60006001600160a01b038216610b405760405162461bcd60e51b815260206004820152600c60248201526b5a45524f5f4144445245535360a01b60448201526064016105bd565b506001600160a01b031660009081526003602052604090205490565b60086020526000908152604090208054600182015460028301546003840154600485015460058601546006870180546001600160a01b039788169896909716969495939492939192610bad90611b4d565b80601f0160208091040260200160405190810160405280929190818152602001828054610bd990611b4d565b8015610c265780601f10610bfb57610100808354040283529160200191610c26565b820191906000526020600020905b815481529060010190602001808311610c0957829003601f168201915b505050600784015460088501546009860154600a90960154949560ff8316956001600160a01b03610100909404841695509190921692508c565b600180546104ba90611b4d565b3360008181526005602090815260408083206001600160a01b03871680855290835292819020805460ff191686151590811790915590519081529192917f17307eab39ab6107e8899845ad3d59bd9653f200f220920489ca2b5937696c31910160405180910390a35050565b610ce48585856109b4565b6001600160a01b0384163b1580610d7b5750604051630a85bd0160e11b808252906001600160a01b0386169063150b7a0290610d2c9033908a90899089908990600401611c13565b6020604051808303816000875af1158015610d4b573d6000803e3d6000fd5b505050506040513d601f19601f82011682018060405250810190610d6f9190611bcc565b6001600160e01b031916145b610d975760405162461bcd60e51b81526004016105bd90611be9565b5050505050565b60606104a782611357565b85610db4888a611b9d565b610dbe9190611b9d565b3414610ddd57604051637832e81760e01b815260040160405180910390fd5b6040518061018001604052808b6001600160a01b031681526020018a6001600160a01b0316815260200189815260200188815260200187815260200186815260200183838080601f0160208091040260200160405190810160405280939291908181526020018383808284376000920182905250938552505060209092019150815260006020808301829052604080840183905260608085018a905260809485018990526006805485526008845293829020865181546001600160a01b039182166001600160a01b031991821617835588860151600184018054919093169116179055918601516002830155850151600382015592840151600484015560a0840151600584015560c08401518051610efc93850192919091019061169d565b5060e082015160078201805460ff19166001836002811115610f2057610f20611884565b021790555061010082810151600783018054610100600160a81b0319166001600160a01b03928316909302929092179091556101208301516008830180546001600160a01b031916918316919091179055610140830151600983015561016090920151600a91820155908a16600090815260209190915260409020889055610fa88688611b9d565b6001600160a01b038b166000908152600b6020526040902055600654610fcf908b906113ea565b50506006805460010190555050505050505050565b6000838152600260205260408120546001600160a01b03161515900361101d57604051632d14777560e11b815260040160405180910390fd5b60008381526008602052604081206007015460ff16600281111561104357611043611884565b146110615760405163075802eb60e01b815260040160405180910390fd5b600083815260086020908152604080832081516101808101835281546001600160a01b039081168252600183015416938101939093526002810154918301919091526003810154606083015260048101546080830152600581015460a083015260068101805460c0840191906110d690611b4d565b80601f016020809104026020016040519081016040528092919081815260200182805461110290611b4d565b801561114f5780601f106111245761010080835404028352916020019161114f565b820191906000526020600020905b81548152906001019060200180831161113257829003601f168201915b5050509183525050600782015460209091019060ff16600281111561117657611176611884565b600281111561118757611187611884565b815260078201546001600160a01b0361010090910481166020830152600883015416604082015260098201546060820152600a909101546080909101526101408101519091506111d633610af9565b10156111f55760405163be24598360e01b815260040160405180910390fd5b6101608101516007546040516370a0823160e01b81523360048201526001600160a01b03909116906370a0823190602401602060405180830381865afa158015611243573d6000803e3d6000fd5b505050506040513d601f19601f820116820180604052508101906112679190611c67565b10156112865760405163ab654faf60e01b815260040160405180910390fd5b60008160800151826060015161129c9190611b9d565b82516001600160a01b03166000908152600b60205260408120805492935083929091906112ca908490611bb5565b909155505081516001600160a01b0316600090815260096020526040812080548392906112f8908490611b9d565b90915550506001600160a01b0383811661012084018190529085166101008401819052600160e085015260405190919087907f3d6f754563e688abf06d08b529d2ee17ef5b7fcc177cd9dc1471a5f5efca69dc90600090a45050505050565b60606000611364836114ba565b600101905060008167ffffffffffffffff81111561138457611384611c80565b6040519080825280601f01601f1916602001820160405280156113ae576020820181803683370190505b5090508181016020015b600019016f181899199a1a9b1b9c1cb0b131b232b360811b600a86061a8153600a85049450846113b857509392505050565b6113f48282611592565b6001600160a01b0382163b158061149a5750604051630a85bd0160e11b80825233600483015260006024830181905260448301849052608060648401526084830152906001600160a01b0384169063150b7a029060a4016020604051808303816000875af115801561146a573d6000803e3d6000fd5b505050506040513d601f19601f8201168201806040525081019061148e9190611bcc565b6001600160e01b031916145b6114b65760405162461bcd60e51b81526004016105bd90611be9565b5050565b60008072184f03e93ff9f4daa797ed6e38ed64bf6a1f0160401b83106114f95772184f03e93ff9f4daa797ed6e38ed64bf6a1f0160401b830492506040015b6d04ee2d6d415b85acef81000000008310611525576d04ee2d6d415b85acef8100000000830492506020015b662386f26fc10000831061154357662386f26fc10000830492506010015b6305f5e100831061155b576305f5e100830492506008015b612710831061156f57612710830492506004015b60648310611581576064830492506002015b600a83106104a75760010192915050565b6001600160a01b0382166115dc5760405162461bcd60e51b81526020600482015260116024820152701253959053125117d49150d25412515395607a1b60448201526064016105bd565b6000818152600260205260409020546001600160a01b0316156116325760405162461bcd60e51b815260206004820152600e60248201526d1053149150511657d3525395115160921b60448201526064016105bd565b6001600160a01b038216600081815260036020908152604080832080546001019055848352600290915280822080546001600160a01b0319168417905551839291907fddf252ad1be2c89b69c2b068fc378daa952ba7f163c4a11628f55a4df523b3ef908290a45050565b8280546116a990611b4d565b90600052602060002090601f0160209004810192826116cb5760008555611711565b82601f106116e457805160ff1916838001178555611711565b82800160010185558215611711579182015b828111156117115782518255916020019190600101906116f6565b5061171d929150611721565b5090565b5b8082111561171d5760008155600101611722565b6001600160e01b03198116811461174c57600080fd5b50565b60006020828403121561176157600080fd5b813561176c81611736565b9392505050565b6000815180845260005b818110156117995760208185018101518683018201520161177d565b818111156117ab576000602083870101525b50601f01601f19169290920160200192915050565b60208152600061176c6020830184611773565b6000602082840312156117e557600080fd5b5035919050565b80356001600160a01b0381168114610af457600080fd5b6000806040838503121561181657600080fd5b61181f836117ec565b946020939093013593505050565b60008060006060848603121561184257600080fd5b61184b846117ec565b9250611859602085016117ec565b9150604084013590509250925092565b60006020828403121561187b57600080fd5b61176c826117ec565b634e487b7160e01b600052602160045260246000fd5b600060018060a01b03808f168352808e166020840152508b60408301528a60608301528960808301528860a083015261018060c08301526118df610180830189611773565b9050600387106118ff57634e487b7160e01b600052602160045260246000fd5b8660e083015261191b6101008301876001600160a01b03169052565b6001600160a01b03851661012083015261014082019390935261016001529a9950505050505050505050565b6000806040838503121561195a57600080fd5b611963836117ec565b91506020830135801515811461197857600080fd5b809150509250929050565b60008083601f84011261199557600080fd5b50813567ffffffffffffffff8111156119ad57600080fd5b6020830191508360208285010111156119c557600080fd5b9250929050565b6000806000806000608086880312156119e457600080fd5b6119ed866117ec565b94506119fb602087016117ec565b935060408601359250606086013567ffffffffffffffff811115611a1e57600080fd5b611a2a88828901611983565b969995985093965092949392505050565b6000806000806000806000806000806101208b8d031215611a5b57600080fd5b611a648b6117ec565b9950611a7260208c016117ec565b985060408b0135975060608b0135965060808b0135955060a08b0135945060c08b0135935060e08b013592506101008b013567ffffffffffffffff811115611ab957600080fd5b611ac58d828e01611983565b915080935050809150509295989b9194979a5092959850565b60008060408385031215611af157600080fd5b611afa836117ec565b9150611b08602084016117ec565b90509250929050565b600080600060608486031215611b2657600080fd5b83359250611b36602085016117ec565b9150611b44604085016117ec565b90509250925092565b600181811c90821680611b6157607f821691505b602082108103611b8157634e487b7160e01b600052602260045260246000fd5b50919050565b634e487b7160e01b600052601160045260246000fd5b60008219821115611bb057611bb0611b87565b500190565b600082821015611bc757611bc7611b87565b500390565b600060208284031215611bde57600080fd5b815161176c81611736565b60208082526010908201526f155394d0519157d49150d2541251539560821b604082015260600190565b6001600160a01b038681168252851660208201526040810184905260806060820181905281018290526000828460a0840137600060a0848401015260a0601f19601f85011683010190509695505050505050565b600060208284031215611c7957600080fd5b5051919050565b634e487b7160e01b600052604160045260246000fdfea26469706673582212208b9e5115b0d9e6eac966b7e8402444900970ac2ea1376740b3d42bc7e6167e6764736f6c634300080d0033",
    "linkReferences": {}
  },
  "methodIdentifiers": {
    "approve(address,uint256)": "095ea7b3",
    "balanceOf(address)": "70a08231",
    "cancellableBalances(address)": "5ff2bc91",
    "claimTask(uint256,address,address)": "fc05b2e8",
    "closeTask(uint256)": "1201dfc6",
    "currentTokenId()": "009a9b7b",
    "escrowedBalances(address)": "d6074aba",
    "getApproved(uint256)": "081812fc",
    "isApprovedForAll(address,address)": "e985e9c5",
    "mintTask(address,address,uint256,uint256,uint256,uint256,uint256,uint256,string)": "e600c351",
    "name()": "06fdde03",
    "ownerOf(uint256)": "6352211e",
    "safeTransferFrom(address,address,uint256)": "42842e0e",
    "safeTransferFrom(address,address,uint256,bytes)": "b88d4fde",
    "setApprovalForAll(address,bool)": "a22cb465",
    "supportsInterface(bytes4)": "01ffc9a7",
    "symbol()": "95d89b41",
    "tasks(uint256)": "8d977672",
    "tokenURI(uint256)": "c87b56dd",
    "transferFrom(address,address,uint256)": "23b872dd",
    "withdrawableBalances(address)": "2b576f4e"
  },
  "id": 26
}