{
  "abi": [
    {
      "inputs": [
        {
          "internalType": "address",
          "name": "_edu_address",
          "type": "address"
        },
        {
          "internalType": "contract ISuperfluid",
          "name": "host",
          "type": "address"
        }
      ],
      "stateMutability": "nonpayable",
      "type": "constructor"
    },
    {
      "inputs": [],
      "name": "IncompatableStatus",
      "type": "error"
    },
    {
      "inputs": [],
      "name": "IncorrectEDU",
      "type": "error"
    },
    {
      "inputs": [],
      "name": "IncorrectFunds",
      "type": "error"
    },
    {
      "inputs": [],
      "name": "InsufficientEDU",
      "type": "error"
    },
    {
      "inputs": [],
      "name": "NonExistantTask",
      "type": "error"
    },
    {
      "inputs": [],
      "name": "NotEnoughWorkHistory",
      "type": "error"
    },
    {
      "inputs": [],
      "name": "NotWorkingEnough",
      "type": "error"
    },
    {
      "inputs": [],
      "name": "TokenIsSoulbound",
      "type": "error"
    },
    {
      "inputs": [],
      "name": "UnAuthorized",
      "type": "error"
    },
    {
      "anonymous": false,
      "inputs": [
        {
          "indexed": true,
          "internalType": "address",
          "name": "owner",
          "type": "address"
        },
        {
          "indexed": true,
          "internalType": "address",
          "name": "spender",
          "type": "address"
        },
        {
          "indexed": true,
          "internalType": "uint256",
          "name": "id",
          "type": "uint256"
        }
      ],
      "name": "Approval",
      "type": "event"
    },
    {
      "anonymous": false,
      "inputs": [
        {
          "indexed": true,
          "internalType": "address",
          "name": "owner",
          "type": "address"
        },
        {
          "indexed": true,
          "internalType": "address",
          "name": "operator",
          "type": "address"
        },
        {
          "indexed": false,
          "internalType": "bool",
          "name": "approved",
          "type": "bool"
        }
      ],
      "name": "ApprovalForAll",
      "type": "event"
    },
    {
      "anonymous": false,
      "inputs": [
        {
          "indexed": true,
          "internalType": "address",
          "name": "contractor",
          "type": "address"
        },
        {
          "indexed": false,
          "internalType": "int96",
          "name": "flow",
          "type": "int96"
        }
      ],
      "name": "StreamUpdated",
      "type": "event"
    },
    {
      "anonymous": false,
      "inputs": [
        {
          "indexed": true,
          "internalType": "uint256",
          "name": "tokenId",
          "type": "uint256"
        }
      ],
      "name": "TaskCancelled",
      "type": "event"
    },
    {
      "anonymous": false,
      "inputs": [
        {
          "indexed": true,
          "internalType": "uint256",
          "name": "tokenId",
          "type": "uint256"
        },
        {
          "indexed": true,
          "internalType": "address",
          "name": "contractor",
          "type": "address"
        },
        {
          "indexed": true,
          "internalType": "address",
          "name": "recruiter",
          "type": "address"
        }
      ],
      "name": "TaskClaimed",
      "type": "event"
    },
    {
      "anonymous": false,
      "inputs": [
        {
          "indexed": true,
          "internalType": "uint256",
          "name": "tokenId",
          "type": "uint256"
        }
      ],
      "name": "TaskClosed",
      "type": "event"
    },
    {
      "anonymous": false,
      "inputs": [
        {
          "indexed": true,
          "internalType": "uint256",
          "name": "tokenId",
          "type": "uint256"
        }
      ],
      "name": "TaskUnclaimed",
      "type": "event"
    },
    {
      "anonymous": false,
      "inputs": [
        {
          "indexed": true,
          "internalType": "address",
          "name": "from",
          "type": "address"
        },
        {
          "indexed": true,
          "internalType": "address",
          "name": "to",
          "type": "address"
        },
        {
          "indexed": true,
          "internalType": "uint256",
          "name": "id",
          "type": "uint256"
        }
      ],
      "name": "Transfer",
      "type": "event"
    },
    {
      "inputs": [
        {
          "internalType": "address",
          "name": "spender",
          "type": "address"
        },
        {
          "internalType": "uint256",
          "name": "id",
          "type": "uint256"
        }
      ],
      "name": "approve",
      "outputs": [],
      "stateMutability": "nonpayable",
      "type": "function"
    },
    {
      "inputs": [
        {
          "internalType": "address",
          "name": "owner",
          "type": "address"
        }
      ],
      "name": "balanceOf",
      "outputs": [
        {
          "internalType": "uint256",
          "name": "",
          "type": "uint256"
        }
      ],
      "stateMutability": "view",
      "type": "function"
    },
    {
      "inputs": [
        {
          "internalType": "address",
          "name": "",
          "type": "address"
        }
      ],
      "name": "cancellableBalances",
      "outputs": [
        {
          "internalType": "uint256",
          "name": "",
          "type": "uint256"
        }
      ],
      "stateMutability": "view",
      "type": "function"
    },
    {
      "inputs": [],
      "name": "cfaV1",
      "outputs": [
        {
          "internalType": "contract ISuperfluid",
          "name": "host",
          "type": "address"
        },
        {
          "internalType": "contract IConstantFlowAgreementV1",
          "name": "cfa",
          "type": "address"
        }
      ],
      "stateMutability": "view",
      "type": "function"
    },
    {
      "inputs": [
        {
          "internalType": "address",
          "name": "user",
          "type": "address"
        }
      ],
      "name": "claimSalary",
      "outputs": [],
      "stateMutability": "nonpayable",
      "type": "function"
    },
    {
      "inputs": [
        {
          "internalType": "uint256",
          "name": "_tokenId",
          "type": "uint256"
        },
        {
          "internalType": "address",
          "name": "_recruiter",
          "type": "address"
        },
        {
          "internalType": "address",
          "name": "_contractor",
          "type": "address"
        }
      ],
      "name": "claimTask",
      "outputs": [],
      "stateMutability": "nonpayable",
      "type": "function"
    },
    {
      "inputs": [
        {
          "internalType": "uint256",
          "name": "_tokenId",
          "type": "uint256"
        }
      ],
      "name": "closeTask",
      "outputs": [],
      "stateMutability": "nonpayable",
      "type": "function"
    },
    {
      "inputs": [],
      "name": "currentTokenId",
      "outputs": [
        {
          "internalType": "uint256",
          "name": "",
          "type": "uint256"
        }
      ],
      "stateMutability": "view",
      "type": "function"
    },
    {
      "inputs": [
        {
          "internalType": "address",
          "name": "",
          "type": "address"
        }
      ],
      "name": "escrowedBalances",
      "outputs": [
        {
          "internalType": "uint256",
          "name": "",
          "type": "uint256"
        }
      ],
      "stateMutability": "view",
      "type": "function"
    },
    {
      "inputs": [
        {
          "internalType": "uint256",
          "name": "",
          "type": "uint256"
        }
      ],
      "name": "getApproved",
      "outputs": [
        {
          "internalType": "address",
          "name": "",
          "type": "address"
        }
      ],
      "stateMutability": "view",
      "type": "function"
    },
    {
      "inputs": [
        {
          "internalType": "address",
          "name": "",
          "type": "address"
        }
      ],
      "name": "incomeStates",
      "outputs": [
        {
          "internalType": "uint256",
          "name": "",
          "type": "uint256"
        }
      ],
      "stateMutability": "view",
      "type": "function"
    },
    {
      "inputs": [
        {
          "internalType": "address",
          "name": "",
          "type": "address"
        },
        {
          "internalType": "address",
          "name": "",
          "type": "address"
        }
      ],
      "name": "isApprovedForAll",
      "outputs": [
        {
          "internalType": "bool",
          "name": "",
          "type": "bool"
        }
      ],
      "stateMutability": "view",
      "type": "function"
    },
    {
      "inputs": [
        {
          "internalType": "address",
          "name": "_employer",
          "type": "address"
        },
        {
          "internalType": "address",
          "name": "_creator",
          "type": "address"
        },
        {
          "internalType": "uint256",
          "name": "_creatorBounty",
          "type": "uint256"
        },
        {
          "internalType": "uint256",
          "name": "_contractorBounty",
          "type": "uint256"
        },
        {
          "internalType": "uint256",
          "name": "_recruiterBounty",
          "type": "uint256"
        },
        {
          "internalType": "uint256",
          "name": "_deadline",
          "type": "uint256"
        },
        {
          "internalType": "uint256",
          "name": "_minBalance",
          "type": "uint256"
        },
        {
          "internalType": "uint256",
          "name": "_minEdu",
          "type": "uint256"
        },
        {
          "internalType": "string",
          "name": "_name",
          "type": "string"
        },
        {
          "internalType": "string",
          "name": "_tokenURI",
          "type": "string"
        }
      ],
      "name": "mintTask",
      "outputs": [],
      "stateMutability": "payable",
      "type": "function"
    },
    {
      "inputs": [],
      "name": "name",
      "outputs": [
        {
          "internalType": "string",
          "name": "",
          "type": "string"
        }
      ],
      "stateMutability": "view",
      "type": "function"
    },
    {
      "inputs": [
        {
          "internalType": "uint256",
          "name": "id",
          "type": "uint256"
        }
      ],
      "name": "ownerOf",
      "outputs": [
        {
          "internalType": "address",
          "name": "owner",
          "type": "address"
        }
      ],
      "stateMutability": "view",
      "type": "function"
    },
    {
      "inputs": [
        {
          "internalType": "address",
          "name": "from",
          "type": "address"
        },
        {
          "internalType": "address",
          "name": "to",
          "type": "address"
        },
        {
          "internalType": "uint256",
          "name": "id",
          "type": "uint256"
        }
      ],
      "name": "safeTransferFrom",
      "outputs": [],
      "stateMutability": "nonpayable",
      "type": "function"
    },
    {
      "inputs": [
        {
          "internalType": "address",
          "name": "from",
          "type": "address"
        },
        {
          "internalType": "address",
          "name": "to",
          "type": "address"
        },
        {
          "internalType": "uint256",
          "name": "id",
          "type": "uint256"
        },
        {
          "internalType": "bytes",
          "name": "data",
          "type": "bytes"
        }
      ],
      "name": "safeTransferFrom",
      "outputs": [],
      "stateMutability": "nonpayable",
      "type": "function"
    },
    {
      "inputs": [
        {
          "internalType": "address",
          "name": "operator",
          "type": "address"
        },
        {
          "internalType": "bool",
          "name": "approved",
          "type": "bool"
        }
      ],
      "name": "setApprovalForAll",
      "outputs": [],
      "stateMutability": "nonpayable",
      "type": "function"
    },
    {
      "inputs": [
        {
          "internalType": "address",
          "name": "user",
          "type": "address"
        }
      ],
      "name": "stopSalary",
      "outputs": [],
      "stateMutability": "nonpayable",
      "type": "function"
    },
    {
      "inputs": [
        {
          "internalType": "bytes4",
          "name": "interfaceId",
          "type": "bytes4"
        }
      ],
      "name": "supportsInterface",
      "outputs": [
        {
          "internalType": "bool",
          "name": "",
          "type": "bool"
        }
      ],
      "stateMutability": "view",
      "type": "function"
    },
    {
      "inputs": [],
      "name": "symbol",
      "outputs": [
        {
          "internalType": "string",
          "name": "",
          "type": "string"
        }
      ],
      "stateMutability": "view",
      "type": "function"
    },
    {
      "inputs": [
        {
          "internalType": "uint256",
          "name": "",
          "type": "uint256"
        }
      ],
      "name": "tasks",
      "outputs": [
        {
          "internalType": "address",
          "name": "employer",
          "type": "address"
        },
        {
          "internalType": "address",
          "name": "creator",
          "type": "address"
        },
        {
          "internalType": "uint256",
          "name": "creatorBounty",
          "type": "uint256"
        },
        {
          "internalType": "uint256",
          "name": "contractorBounty",
          "type": "uint256"
        },
        {
          "internalType": "uint256",
          "name": "recruiterBounty",
          "type": "uint256"
        },
        {
          "internalType": "uint256",
          "name": "deadline",
          "type": "uint256"
        },
        {
          "internalType": "string",
          "name": "tokenURI",
          "type": "string"
        },
        {
          "internalType": "string",
          "name": "name",
          "type": "string"
        },
        {
          "internalType": "enum Uplift.Status",
          "name": "status",
          "type": "uint8"
        },
        {
          "internalType": "address",
          "name": "recruiter",
          "type": "address"
        },
        {
          "internalType": "address",
          "name": "contractor",
          "type": "address"
        },
        {
          "internalType": "uint256",
          "name": "minBalance",
          "type": "uint256"
        },
        {
          "internalType": "uint256",
          "name": "minEdu",
          "type": "uint256"
        }
      ],
      "stateMutability": "view",
      "type": "function"
    },
    {
      "inputs": [
        {
          "internalType": "uint256",
          "name": "id",
          "type": "uint256"
        }
      ],
      "name": "tokenURI",
      "outputs": [
        {
          "internalType": "string",
          "name": "",
          "type": "string"
        }
      ],
      "stateMutability": "view",
      "type": "function"
    },
    {
      "inputs": [
        {
          "internalType": "address",
          "name": "",
          "type": "address"
        },
        {
          "internalType": "address",
          "name": "",
          "type": "address"
        },
        {
          "internalType": "uint256",
          "name": "",
          "type": "uint256"
        }
      ],
      "name": "transferFrom",
      "outputs": [],
      "stateMutability": "pure",
      "type": "function"
    },
    {
      "inputs": [
        {
          "internalType": "address",
          "name": "",
          "type": "address"
        },
        {
          "internalType": "uint256",
          "name": "",
          "type": "uint256"
        }
      ],
      "name": "userCloseStamps",
      "outputs": [
        {
          "internalType": "uint256",
          "name": "",
          "type": "uint256"
        }
      ],
      "stateMutability": "view",
      "type": "function"
    },
    {
      "inputs": [
        {
          "internalType": "address",
          "name": "",
          "type": "address"
        }
      ],
      "name": "withdrawableBalances",
      "outputs": [
        {
          "internalType": "uint256",
          "name": "",
          "type": "uint256"
        }
      ],
      "stateMutability": "view",
      "type": "function"
    }
  ],
  "bytecode": {
    "object": "0x6080604052600780546001600160a01b031916735d8b4c2554aeb7e86f387b4d6c00ac33499ed01f1790553480156200003757600080fd5b5060405162002a4a38038062002a4a8339810160408190526200005a9162000275565b6040805180820182526006815265155c1b1a599d60d21b6020808301918252835180850190945260048452631312519560e21b908401528151919291620000a491600091620001b6565b508051620000ba906001906020840190620001b6565b5050600a80546001600160a01b0319166001600160a01b03858116919091179091556040805180820182529184168083529051635b69006f60e11b81527fa9214cc96615e0085d3bb077758db69497dc2dce3b2b1e97bc93c3d18d83efd36004820152919250602083019163b6d200de90602401602060405180830381865afa1580156200014c573d6000803e3d6000fd5b505050506040513d601f19601f82011682018060405250810190620001729190620002b4565b6001600160a01b039081169091528151600880546001600160a01b031990811692841692909217905560209092015160098054909316911617905550620003179050565b828054620001c490620002db565b90600052602060002090601f016020900481019282620001e8576000855562000233565b82601f106200020357805160ff191683800117855562000233565b8280016001018555821562000233579182015b828111156200023357825182559160200191906001019062000216565b506200024192915062000245565b5090565b5b8082111562000241576000815560010162000246565b6001600160a01b03811681146200027257600080fd5b50565b600080604083850312156200028957600080fd5b825162000296816200025c565b6020840151909250620002a9816200025c565b809150509250929050565b600060208284031215620002c757600080fd5b8151620002d4816200025c565b9392505050565b600181811c90821680620002f057607f821691505b6020821081036200031157634e487b7160e01b600052602260045260246000fd5b50919050565b61272380620003276000396000f3fe6080604052600436106101805760003560e01c80636352211e116100d1578063c87b56dd1161008a578063e660bb0e11610064578063e660bb0e146104ec578063e985e9c51461050c578063ea3b0ea814610547578063fc05b2e81461056757600080fd5b8063c87b56dd14610458578063d3112b2e14610478578063d6074aba146104bf57600080fd5b80636352211e1461038a57806370a08231146103aa5780638d977672146103ca57806395d89b4114610403578063a22cb46514610418578063b88d4fde1461043857600080fd5b80632036acd21161013e5780632b576f4e116101185780632b576f4e146102fd57806342842e0e1461032a5780634cb88e971461034a5780635ff2bc911461035d57600080fd5b80632036acd21461029057806321f364b6146102bd57806323b872dd146102dd57600080fd5b80629a9b7b1461018557806301ffc9a7146101ae57806306fdde03146101de578063081812fc14610200578063095ea7b31461024e5780631201dfc614610270575b600080fd5b34801561019157600080fd5b5061019b60065481565b6040519081526020015b60405180910390f35b3480156101ba57600080fd5b506101ce6101c9366004611f70565b610587565b60405190151581526020016101a5565b3480156101ea57600080fd5b506101f36105d9565b6040516101a59190611fec565b34801561020c57600080fd5b5061023661021b366004611fff565b6004602052600090815260409020546001600160a01b031681565b6040516001600160a01b0390911681526020016101a5565b34801561025a57600080fd5b5061026e61026936600461202f565b610667565b005b34801561027c57600080fd5b5061026e61028b366004611fff565b61074e565b34801561029c57600080fd5b5061019b6102ab366004612059565b600f6020526000908152604090205481565b3480156102c957600080fd5b5061019b6102d836600461202f565b610b95565b3480156102e957600080fd5b5061026e6102f8366004612074565b610bc6565b34801561030957600080fd5b5061019b610318366004612059565b600d6020526000908152604090205481565b34801561033657600080fd5b5061026e610345366004612074565b610bdf565b61026e6103583660046121be565b610cb4565b34801561036957600080fd5b5061019b610378366004612059565b600e6020526000908152604090205481565b34801561039657600080fd5b506102366103a5366004611fff565b610f0e565b3480156103b657600080fd5b5061019b6103c5366004612059565b610f65565b3480156103d657600080fd5b506103ea6103e5366004611fff565b610fc8565b6040516101a59d9c9b9a999897969594939291906122a3565b34801561040f57600080fd5b506101f361115a565b34801561042457600080fd5b5061026e610433366004612369565b611167565b34801561044457600080fd5b5061026e6104533660046123a5565b6111d3565b34801561046457600080fd5b506101f3610473366004611fff565b611298565b34801561048457600080fd5b5060085460095461049f916001600160a01b03908116911682565b604080516001600160a01b039384168152929091166020830152016101a5565b3480156104cb57600080fd5b5061019b6104da366004612059565b600c6020526000908152604090205481565b3480156104f857600080fd5b5061026e610507366004612059565b6112a3565b34801561051857600080fd5b506101ce610527366004612414565b600560209081526000928352604080842090915290825290205460ff1681565b34801561055357600080fd5b5061026e610562366004612059565b61138b565b34801561057357600080fd5b5061026e610582366004612447565b6114ee565b60006301ffc9a760e01b6001600160e01b0319831614806105b857506380ac58cd60e01b6001600160e01b03198316145b806105d35750635b5e139f60e01b6001600160e01b03198316145b92915050565b600080546105e690612483565b80601f016020809104026020016040519081016040528092919081815260200182805461061290612483565b801561065f5780601f106106345761010080835404028352916020019161065f565b820191906000526020600020905b81548152906001019060200180831161064257829003601f168201915b505050505081565b6000818152600260205260409020546001600160a01b0316338114806106b057506001600160a01b038116600090815260056020908152604080832033845290915290205460ff165b6106f25760405162461bcd60e51b815260206004820152600e60248201526d1393d517d055551213d49256915160921b60448201526064015b60405180910390fd5b60008281526004602052604080822080546001600160a01b0319166001600160a01b0387811691821790925591518593918516917f8c5be1e5ebec7d5bd14f71427d1e84f3dd0314c0f7b2291e5b200ac8c7c3b92591a4505050565b6000818152600260205260408120546001600160a01b03161515900361078757604051632d14777560e11b815260040160405180910390fd5b6000818152600b6020908152604080832081516101a08101835281546001600160a01b039081168252600183015416938101939093526002810154918301919091526003810154606083015260048101546080830152600581015460a083015260068101805460c0840191906107fc90612483565b80601f016020809104026020016040519081016040528092919081815260200182805461082890612483565b80156108755780601f1061084a57610100808354040283529160200191610875565b820191906000526020600020905b81548152906001019060200180831161085857829003601f168201915b5050505050815260200160078201805461088e90612483565b80601f01602080910402602001604051908101604052809291908181526020018280546108ba90612483565b80156109075780601f106108dc57610100808354040283529160200191610907565b820191906000526020600020905b8154815290600101906020018083116108ea57829003601f168201915b5050509183525050600882015460209091019060ff16600281111561092e5761092e61228d565b600281111561093f5761093f61228d565b815260088201546001600160a01b03610100909104811660208301526009830154166040820152600a8201546060820152600b90910154608090910152905060016000838152600b602052604090206008015460ff1660028111156109a6576109a661228d565b146109c45760405163075802eb60e01b815260040160405180910390fd5b6101408101516001600160a01b031633146109f25760405163be24598360e01b815260040160405180910390fd5b600081608001518260600151610a0891906124d3565b82516001600160a01b03166000908152600c6020526040812080549293508392909190610a369084906124eb565b909155505060608201516101408301516001600160a01b03166000908152600d602052604081208054909190610a6d9084906124d3565b909155505060808201516101208301516001600160a01b03166000908152600d602052604081208054909190610aa49084906124d3565b909155506002905061010083018190525081516001600160a01b039081166000908152600360209081526040808320805460001901905561014086018051851684528184208054600190810190915581518986526002855283862080546001600160a01b031916918816919091179055338552601084528285208054918201815585529284204293019290925590518551915187949182169392909116917fddf252ad1be2c89b69c2b068fc378daa952ba7f163c4a11628f55a4df523b3ef91a460405183907f91dfc924b25cd3a750912075cf0e6bed2235ec6eca305e91b6124d90bf411b2590600090a2505050565b60106020528160005260406000208181548110610bb157600080fd5b90600052602060002001600091509150505481565b6040516358b2164f60e11b815260040160405180910390fd5b610bea838383610bc6565b6001600160a01b0382163b1580610c935750604051630a85bd0160e11b8082523360048301526001600160a01b03858116602484015260448301849052608060648401526000608484015290919084169063150b7a029060a4016020604051808303816000875af1158015610c63573d6000803e3d6000fd5b505050506040513d601f19601f82011682018060405250810190610c879190612502565b6001600160e01b031916145b610caf5760405162461bcd60e51b81526004016106e99061251f565b505050565b86610cbf898b6124d3565b610cc991906124d3565b3414610ce857604051637832e81760e01b815260040160405180910390fd5b604051806101a001604052808c6001600160a01b031681526020018b6001600160a01b031681526020018a815260200189815260200188815260200187815260200183838080601f016020809104026020016040519081016040528093929190818152602001838380828437600092018290525093855250505060208201869052604090910190815260006020808301829052604080840183905260608085018b905260809485018a9052600680548552600b845293829020865181546001600160a01b039182166001600160a01b031991821617835588860151600184018054919093169116179055918601516002830155850151600382015592840151600484015560a0840151600584015560c08401518051610e0e938501929190910190611ebe565b5060e08201518051610e2a916007840191602090910190611ebe565b5061010082015160088201805460ff19166001836002811115610e4f57610e4f61228d565b0217905550610120820151600882018054610100600160a81b0319166101006001600160a01b03938416021790556101408301516009830180546001600160a01b031916918316919091179055610160830151600a83015561018090920151600b909101558a166000908152600d60205260409020899055610ed187896124d3565b6001600160a01b038c166000908152600e6020526040902055600654610ef8908c906118f6565b5050600680546001019055505050505050505050565b6000818152600260205260409020546001600160a01b031680610f605760405162461bcd60e51b815260206004820152600a6024820152691393d517d3525395115160b21b60448201526064016106e9565b919050565b60006001600160a01b038216610fac5760405162461bcd60e51b815260206004820152600c60248201526b5a45524f5f4144445245535360a01b60448201526064016106e9565b506001600160a01b031660009081526003602052604090205490565b600b6020526000908152604090208054600182015460028301546003840154600485015460058601546006870180546001600160a01b03978816989690971696949593949293919261101990612483565b80601f016020809104026020016040519081016040528092919081815260200182805461104590612483565b80156110925780601f1061106757610100808354040283529160200191611092565b820191906000526020600020905b81548152906001019060200180831161107557829003601f168201915b5050505050908060070180546110a790612483565b80601f01602080910402602001604051908101604052809291908181526020018280546110d390612483565b80156111205780601f106110f557610100808354040283529160200191611120565b820191906000526020600020905b81548152906001019060200180831161110357829003601f168201915b50505060088401546009850154600a860154600b90960154949560ff8316956001600160a01b03610100909404841695509190921692508d565b600180546105e690612483565b3360008181526005602090815260408083206001600160a01b03871680855290835292819020805460ff191686151590811790915590519081529192917f17307eab39ab6107e8899845ad3d59bd9653f200f220920489ca2b5937696c31910160405180910390a35050565b6111de858585610bc6565b6001600160a01b0384163b15806112755750604051630a85bd0160e11b808252906001600160a01b0386169063150b7a02906112269033908a90899089908990600401612549565b6020604051808303816000875af1158015611245573d6000803e3d6000fd5b505050506040513d601f19601f820116820180604052508101906112699190612502565b6001600160e01b031916145b6112915760405162461bcd60e51b81526004016106e99061251f565b5050505050565b60606105d3826119c6565b33600090815260106020526040902054600a106112d3576040516305113b2760e41b815260040160405180910390fd5b6001600160a01b038116600090815260106020526040812080546112f990600a906124eb565b815481106113095761130961259d565b9060005260206000200154905062278d004261132591906124eb565b8110156113485760075461134890600890309085906001600160a01b0316611a59565b604051600081526001600160a01b038316907ff107c9a55c1c8c5b73dd9e8516d71363e40fa2cd96b1063039020d13bac996b69060200160405180910390a25050565b600a546040516370a0823160e01b81523360048201526000916001600160a01b0316906370a0823190602401602060405180830381865afa1580156113d4573d6000803e3d6000fd5b505050506040513d601f19601f820116820180604052508101906113f891906125b3565b6001600160a01b038316600090815260106020526040902054909150600a10611434576040516305113b2760e41b815260040160405180910390fd5b6001600160a01b0382166000908152601060205260408120805461145a90600a906124eb565b8154811061146a5761146a61259d565b9060005260206000200154905062278d004261148691906124eb565b8110156114a657604051631827246560e31b815260040160405180910390fd5b60048210156114c85760405163aa70372b60e01b815260040160405180910390fd5b816004036114db576114db6103e8611a7f565b81600503610caf57610caf6109c4611a7f565b6000838152600260205260408120546001600160a01b03161515900361152757604051632d14777560e11b815260040160405180910390fd5b6000838152600b602052604081206008015460ff16600281111561154d5761154d61228d565b1461156b5760405163075802eb60e01b815260040160405180910390fd5b6000838152600b6020908152604080832081516101a08101835281546001600160a01b039081168252600183015416938101939093526002810154918301919091526003810154606083015260048101546080830152600581015460a083015260068101805460c0840191906115e090612483565b80601f016020809104026020016040519081016040528092919081815260200182805461160c90612483565b80156116595780601f1061162e57610100808354040283529160200191611659565b820191906000526020600020905b81548152906001019060200180831161163c57829003601f168201915b5050505050815260200160078201805461167290612483565b80601f016020809104026020016040519081016040528092919081815260200182805461169e90612483565b80156116eb5780601f106116c0576101008083540402835291602001916116eb565b820191906000526020600020905b8154815290600101906020018083116116ce57829003601f168201915b5050509183525050600882015460209091019060ff1660028111156117125761171261228d565b60028111156117235761172361228d565b815260088201546001600160a01b03610100909104811660208301526009830154166040820152600a8201546060820152600b9091015460809091015261016081015190915061177283610f65565b10156117915760405163be24598360e01b815260040160405180910390fd5b610180810151600a546040516370a0823160e01b81526001600160a01b038581166004830152909116906370a0823190602401602060405180830381865afa1580156117e1573d6000803e3d6000fd5b505050506040513d601f19601f8201168201806040525081019061180591906125b3565b10156118245760405163ab654faf60e01b815260040160405180910390fd5b60008160800151826060015161183a91906124d3565b82516001600160a01b03166000908152600e60205260408120805492935083929091906118689084906124eb565b909155505081516001600160a01b03166000908152600c6020526040812080548392906118969084906124d3565b90915550506001600160a01b0383811661014084018190529085166101208401819052600161010085015260405190919087907f3d6f754563e688abf06d08b529d2ee17ef5b7fcc177cd9dc1471a5f5efca69dc90600090a45050505050565b6119008282611b2e565b6001600160a01b0382163b15806119a65750604051630a85bd0160e11b80825233600483015260006024830181905260448301849052608060648401526084830152906001600160a01b0384169063150b7a029060a4016020604051808303816000875af1158015611976573d6000803e3d6000fd5b505050506040513d601f19601f8201168201806040525081019061199a9190612502565b6001600160e01b031916145b6119c25760405162461bcd60e51b81526004016106e99061251f565b5050565b606060006119d383611c39565b600101905060008167ffffffffffffffff8111156119f3576119f36120b0565b6040519080825280601f01601f191660200182016040528015611a1d576020820181803683370190505b5090508181016020015b600019016f181899199a1a9b1b9c1cb0b131b232b360811b600a86061a8153600a8504945084611a2757509392505050565b604080516000815260208101909152611a79908590859085908590611d11565b50505050565b336000908152600f60205260408120549003611ac657336000818152600f6020526040902060019055600754611ac1916008916001600160a01b031684611df0565b611af2565b336000818152600f6020526040902060029055600754611af2916008916001600160a01b031684611e10565b604051600b82900b815233907ff107c9a55c1c8c5b73dd9e8516d71363e40fa2cd96b1063039020d13bac996b69060200160405180910390a250565b6001600160a01b038216611b785760405162461bcd60e51b81526020600482015260116024820152701253959053125117d49150d25412515395607a1b60448201526064016106e9565b6000818152600260205260409020546001600160a01b031615611bce5760405162461bcd60e51b815260206004820152600e60248201526d1053149150511657d3525395115160921b60448201526064016106e9565b6001600160a01b038216600081815260036020908152604080832080546001019055848352600290915280822080546001600160a01b0319168417905551839291907fddf252ad1be2c89b69c2b068fc378daa952ba7f163c4a11628f55a4df523b3ef908290a45050565b60008072184f03e93ff9f4daa797ed6e38ed64bf6a1f0160401b8310611c785772184f03e93ff9f4daa797ed6e38ed64bf6a1f0160401b830492506040015b6d04ee2d6d415b85acef81000000008310611ca4576d04ee2d6d415b85acef8100000000830492506020015b662386f26fc100008310611cc257662386f26fc10000830492506010015b6305f5e1008310611cda576305f5e100830492506008015b6127108310611cee57612710830492506004015b60648310611d00576064830492506002015b600a83106105d35760010192915050565b845460018601546040805160008152602081019091526001600160a01b03928316926339255d5b921690819063b4b333c690611d569088908b908b90604481016125cc565b60408051808303601f1901815291815260208201805160e094851b6001600160e01b03909116179052519185901b6001600160e01b0319168252611da193925090869060040161260a565b6000604051808303816000875af1158015611dc0573d6000803e3d6000fd5b505050506040513d6000823e601f3d908101601f19168201604052611de89190810190612640565b505050505050565b604080516000815260208101909152611a79908590859085908590611e30565b604080516000815260208101909152611a79908590859085908590611e94565b845460018601546001600160a01b03918216916339255d5b9116806362fc305e87898860005b6040519080825280601f01601f191660200182016040528015611e80576020820181803683370190505b50604051602401611d5694939291906126b7565b845460018601546001600160a01b03918216916339255d5b9116806350209a628789886000611e56565b828054611eca90612483565b90600052602060002090601f016020900481019282611eec5760008555611f32565b82601f10611f0557805160ff1916838001178555611f32565b82800160010185558215611f32579182015b82811115611f32578251825591602001919060010190611f17565b50611f3e929150611f42565b5090565b5b80821115611f3e5760008155600101611f43565b6001600160e01b031981168114611f6d57600080fd5b50565b600060208284031215611f8257600080fd5b8135611f8d81611f57565b9392505050565b60005b83811015611faf578181015183820152602001611f97565b83811115611a795750506000910152565b60008151808452611fd8816020860160208601611f94565b601f01601f19169290920160200192915050565b602081526000611f8d6020830184611fc0565b60006020828403121561201157600080fd5b5035919050565b80356001600160a01b0381168114610f6057600080fd5b6000806040838503121561204257600080fd5b61204b83612018565b946020939093013593505050565b60006020828403121561206b57600080fd5b611f8d82612018565b60008060006060848603121561208957600080fd5b61209284612018565b92506120a060208501612018565b9150604084013590509250925092565b634e487b7160e01b600052604160045260246000fd5b604051601f8201601f1916810167ffffffffffffffff811182821017156120ef576120ef6120b0565b604052919050565b600067ffffffffffffffff821115612111576121116120b0565b50601f01601f191660200190565b600082601f83011261213057600080fd5b813561214361213e826120f7565b6120c6565b81815284602083860101111561215857600080fd5b816020850160208301376000918101602001919091529392505050565b60008083601f84011261218757600080fd5b50813567ffffffffffffffff81111561219f57600080fd5b6020830191508360208285010111156121b757600080fd5b9250929050565b60008060008060008060008060008060006101408c8e0312156121e057600080fd5b6121e98c612018565b9a506121f760208d01612018565b995060408c0135985060608c0135975060808c0135965060a08c0135955060c08c0135945060e08c0135935067ffffffffffffffff806101008e0135111561223e57600080fd5b61224f8e6101008f01358f0161211f565b9350806101208e0135111561226357600080fd5b506122758d6101208e01358e01612175565b81935080925050509295989b509295989b9093969950565b634e487b7160e01b600052602160045260246000fd5b6001600160a01b038e811682528d166020820152604081018c9052606081018b9052608081018a905260a081018990526101a060c082018190526000906122ec9083018a611fc0565b82810360e08401526122fe818a611fc0565b9150506003871061231f57634e487b7160e01b600052602160045260246000fd5b8661010083015261233c6101208301876001600160a01b03169052565b6001600160a01b03851661014083015261016082019390935261018001529b9a5050505050505050505050565b6000806040838503121561237c57600080fd5b61238583612018565b91506020830135801515811461239a57600080fd5b809150509250929050565b6000806000806000608086880312156123bd57600080fd5b6123c686612018565b94506123d460208701612018565b935060408601359250606086013567ffffffffffffffff8111156123f757600080fd5b61240388828901612175565b969995985093965092949392505050565b6000806040838503121561242757600080fd5b61243083612018565b915061243e60208401612018565b90509250929050565b60008060006060848603121561245c57600080fd5b8335925061246c60208501612018565b915061247a60408501612018565b90509250925092565b600181811c9082168061249757607f821691505b6020821081036124b757634e487b7160e01b600052602260045260246000fd5b50919050565b634e487b7160e01b600052601160045260246000fd5b600082198211156124e6576124e66124bd565b500190565b6000828210156124fd576124fd6124bd565b500390565b60006020828403121561251457600080fd5b8151611f8d81611f57565b60208082526010908201526f155394d0519157d49150d2541251539560821b604082015260600190565b6001600160a01b038681168252851660208201526040810184905260806060820181905281018290526000828460a0840137600060a0848401015260a0601f19601f85011683010190509695505050505050565b634e487b7160e01b600052603260045260246000fd5b6000602082840312156125c557600080fd5b5051919050565b6001600160a01b03858116825284811660208301528316604082015260806060820181905260009061260090830184611fc0565b9695505050505050565b6001600160a01b038416815260606020820181905260009061262e90830185611fc0565b82810360408401526126008185611fc0565b60006020828403121561265257600080fd5b815167ffffffffffffffff81111561266957600080fd5b8201601f8101841361267a57600080fd5b805161268861213e826120f7565b81815285602083850101111561269d57600080fd5b6126ae826020830160208601611f94565b95945050505050565b6001600160a01b03858116825284166020820152600b83900b604082015260806060820181905260009061260090830184611fc056fea2646970667358221220ec83efdb76983c9e973e0f350eb4c36e1dd3f7c5ba14b8a08e6ba7f7ea1a906964736f6c634300080d0033",
    "linkReferences": {}
  },
  "methodIdentifiers": {
    "approve(address,uint256)": "095ea7b3",
    "balanceOf(address)": "70a08231",
    "cancellableBalances(address)": "5ff2bc91",
    "cfaV1()": "d3112b2e",
    "claimSalary(address)": "ea3b0ea8",
    "claimTask(uint256,address,address)": "fc05b2e8",
    "closeTask(uint256)": "1201dfc6",
    "currentTokenId()": "009a9b7b",
    "escrowedBalances(address)": "d6074aba",
    "getApproved(uint256)": "081812fc",
    "incomeStates(address)": "2036acd2",
    "isApprovedForAll(address,address)": "e985e9c5",
    "mintTask(address,address,uint256,uint256,uint256,uint256,uint256,uint256,string,string)": "4cb88e97",
    "name()": "06fdde03",
    "ownerOf(uint256)": "6352211e",
    "safeTransferFrom(address,address,uint256)": "42842e0e",
    "safeTransferFrom(address,address,uint256,bytes)": "b88d4fde",
    "setApprovalForAll(address,bool)": "a22cb465",
    "stopSalary(address)": "e660bb0e",
    "supportsInterface(bytes4)": "01ffc9a7",
    "symbol()": "95d89b41",
    "tasks(uint256)": "8d977672",
    "tokenURI(uint256)": "c87b56dd",
    "transferFrom(address,address,uint256)": "23b872dd",
    "userCloseStamps(address,uint256)": "21f364b6",
    "withdrawableBalances(address)": "2b576f4e"
  },
  "id": 24
}