{
  "abi": [
    {
      "inputs": [],
      "stateMutability": "nonpayable",
      "type": "constructor"
    },
    {
      "inputs": [],
      "name": "IncompatableStatus",
      "type": "error"
    },
    {
      "inputs": [],
      "name": "IncorrectFunds",
      "type": "error"
    },
    {
      "inputs": [],
      "name": "NonExistantTask",
      "type": "error"
    },
    {
      "inputs": [],
      "name": "TokenIsSoulbound",
      "type": "error"
    },
    {
      "inputs": [],
      "name": "UnAuthorized",
      "type": "error"
    },
    {
      "anonymous": false,
      "inputs": [
        {
          "indexed": true,
          "internalType": "address",
          "name": "owner",
          "type": "address"
        },
        {
          "indexed": true,
          "internalType": "address",
          "name": "spender",
          "type": "address"
        },
        {
          "indexed": true,
          "internalType": "uint256",
          "name": "id",
          "type": "uint256"
        }
      ],
      "name": "Approval",
      "type": "event"
    },
    {
      "anonymous": false,
      "inputs": [
        {
          "indexed": true,
          "internalType": "address",
          "name": "owner",
          "type": "address"
        },
        {
          "indexed": true,
          "internalType": "address",
          "name": "operator",
          "type": "address"
        },
        {
          "indexed": false,
          "internalType": "bool",
          "name": "approved",
          "type": "bool"
        }
      ],
      "name": "ApprovalForAll",
      "type": "event"
    },
    {
      "anonymous": false,
      "inputs": [
        {
          "indexed": true,
          "internalType": "uint256",
          "name": "tokenId",
          "type": "uint256"
        }
      ],
      "name": "TaskCancelled",
      "type": "event"
    },
    {
      "anonymous": false,
      "inputs": [
        {
          "indexed": true,
          "internalType": "uint256",
          "name": "tokenId",
          "type": "uint256"
        },
        {
          "indexed": true,
          "internalType": "address",
          "name": "contractor",
          "type": "address"
        },
        {
          "indexed": true,
          "internalType": "address",
          "name": "recruiter",
          "type": "address"
        }
      ],
      "name": "TaskClaimed",
      "type": "event"
    },
    {
      "anonymous": false,
      "inputs": [
        {
          "indexed": true,
          "internalType": "uint256",
          "name": "tokenId",
          "type": "uint256"
        }
      ],
      "name": "TaskClosed",
      "type": "event"
    },
    {
      "anonymous": false,
      "inputs": [
        {
          "indexed": true,
          "internalType": "uint256",
          "name": "tokenId",
          "type": "uint256"
        }
      ],
      "name": "TaskUnclaimed",
      "type": "event"
    },
    {
      "anonymous": false,
      "inputs": [
        {
          "indexed": true,
          "internalType": "address",
          "name": "from",
          "type": "address"
        },
        {
          "indexed": true,
          "internalType": "address",
          "name": "to",
          "type": "address"
        },
        {
          "indexed": true,
          "internalType": "uint256",
          "name": "id",
          "type": "uint256"
        }
      ],
      "name": "Transfer",
      "type": "event"
    },
    {
      "inputs": [
        {
          "internalType": "address",
          "name": "spender",
          "type": "address"
        },
        {
          "internalType": "uint256",
          "name": "id",
          "type": "uint256"
        }
      ],
      "name": "approve",
      "outputs": [],
      "stateMutability": "nonpayable",
      "type": "function"
    },
    {
      "inputs": [
        {
          "internalType": "address",
          "name": "owner",
          "type": "address"
        }
      ],
      "name": "balanceOf",
      "outputs": [
        {
          "internalType": "uint256",
          "name": "",
          "type": "uint256"
        }
      ],
      "stateMutability": "view",
      "type": "function"
    },
    {
      "inputs": [
        {
          "internalType": "address",
          "name": "",
          "type": "address"
        }
      ],
      "name": "cancellableBalances",
      "outputs": [
        {
          "internalType": "uint256",
          "name": "",
          "type": "uint256"
        }
      ],
      "stateMutability": "view",
      "type": "function"
    },
    {
      "inputs": [],
      "name": "claimSalary",
      "outputs": [],
      "stateMutability": "nonpayable",
      "type": "function"
    },
    {
      "inputs": [
        {
          "internalType": "uint256",
          "name": "_tokenId",
          "type": "uint256"
        },
        {
          "internalType": "address",
          "name": "_recruiter",
          "type": "address"
        },
        {
          "internalType": "address",
          "name": "_contractor",
          "type": "address"
        }
      ],
      "name": "claimTask",
      "outputs": [],
      "stateMutability": "nonpayable",
      "type": "function"
    },
    {
      "inputs": [
        {
          "internalType": "uint256",
          "name": "_tokenId",
          "type": "uint256"
        }
      ],
      "name": "closeTask",
      "outputs": [],
      "stateMutability": "nonpayable",
      "type": "function"
    },
    {
      "inputs": [
        {
          "internalType": "address",
          "name": "",
          "type": "address"
        }
      ],
      "name": "contractorMomentums",
      "outputs": [
        {
          "internalType": "uint256",
          "name": "",
          "type": "uint256"
        }
      ],
      "stateMutability": "view",
      "type": "function"
    },
    {
      "inputs": [],
      "name": "currentTokenId",
      "outputs": [
        {
          "internalType": "uint256",
          "name": "",
          "type": "uint256"
        }
      ],
      "stateMutability": "view",
      "type": "function"
    },
    {
      "inputs": [
        {
          "internalType": "address",
          "name": "",
          "type": "address"
        }
      ],
      "name": "escrowedBalances",
      "outputs": [
        {
          "internalType": "uint256",
          "name": "",
          "type": "uint256"
        }
      ],
      "stateMutability": "view",
      "type": "function"
    },
    {
      "inputs": [
        {
          "internalType": "uint256",
          "name": "",
          "type": "uint256"
        }
      ],
      "name": "getApproved",
      "outputs": [
        {
          "internalType": "address",
          "name": "",
          "type": "address"
        }
      ],
      "stateMutability": "view",
      "type": "function"
    },
    {
      "inputs": [
        {
          "internalType": "address",
          "name": "",
          "type": "address"
        },
        {
          "internalType": "address",
          "name": "",
          "type": "address"
        }
      ],
      "name": "isApprovedForAll",
      "outputs": [
        {
          "internalType": "bool",
          "name": "",
          "type": "bool"
        }
      ],
      "stateMutability": "view",
      "type": "function"
    },
    {
      "inputs": [
        {
          "internalType": "address",
          "name": "_employer",
          "type": "address"
        },
        {
          "internalType": "address",
          "name": "_creator",
          "type": "address"
        },
        {
          "internalType": "uint256",
          "name": "_creatorBounty",
          "type": "uint256"
        },
        {
          "internalType": "uint256",
          "name": "_contractorBounty",
          "type": "uint256"
        },
        {
          "internalType": "uint256",
          "name": "_recruiterBounty",
          "type": "uint256"
        },
        {
          "internalType": "uint256",
          "name": "_deadline",
          "type": "uint256"
        },
        {
          "internalType": "uint256",
          "name": "_minBalance",
          "type": "uint256"
        },
        {
          "internalType": "string",
          "name": "_tokenURI",
          "type": "string"
        }
      ],
      "name": "mintTask",
      "outputs": [],
      "stateMutability": "payable",
      "type": "function"
    },
    {
      "inputs": [],
      "name": "name",
      "outputs": [
        {
          "internalType": "string",
          "name": "",
          "type": "string"
        }
      ],
      "stateMutability": "view",
      "type": "function"
    },
    {
      "inputs": [
        {
          "internalType": "uint256",
          "name": "id",
          "type": "uint256"
        }
      ],
      "name": "ownerOf",
      "outputs": [
        {
          "internalType": "address",
          "name": "owner",
          "type": "address"
        }
      ],
      "stateMutability": "view",
      "type": "function"
    },
    {
      "inputs": [
        {
          "internalType": "address",
          "name": "from",
          "type": "address"
        },
        {
          "internalType": "address",
          "name": "to",
          "type": "address"
        },
        {
          "internalType": "uint256",
          "name": "id",
          "type": "uint256"
        }
      ],
      "name": "safeTransferFrom",
      "outputs": [],
      "stateMutability": "nonpayable",
      "type": "function"
    },
    {
      "inputs": [
        {
          "internalType": "address",
          "name": "from",
          "type": "address"
        },
        {
          "internalType": "address",
          "name": "to",
          "type": "address"
        },
        {
          "internalType": "uint256",
          "name": "id",
          "type": "uint256"
        },
        {
          "internalType": "bytes",
          "name": "data",
          "type": "bytes"
        }
      ],
      "name": "safeTransferFrom",
      "outputs": [],
      "stateMutability": "nonpayable",
      "type": "function"
    },
    {
      "inputs": [
        {
          "internalType": "address",
          "name": "operator",
          "type": "address"
        },
        {
          "internalType": "bool",
          "name": "approved",
          "type": "bool"
        }
      ],
      "name": "setApprovalForAll",
      "outputs": [],
      "stateMutability": "nonpayable",
      "type": "function"
    },
    {
      "inputs": [
        {
          "internalType": "address",
          "name": "",
          "type": "address"
        }
      ],
      "name": "streamStatuses",
      "outputs": [
        {
          "internalType": "bool",
          "name": "",
          "type": "bool"
        }
      ],
      "stateMutability": "view",
      "type": "function"
    },
    {
      "inputs": [
        {
          "internalType": "bytes4",
          "name": "interfaceId",
          "type": "bytes4"
        }
      ],
      "name": "supportsInterface",
      "outputs": [
        {
          "internalType": "bool",
          "name": "",
          "type": "bool"
        }
      ],
      "stateMutability": "view",
      "type": "function"
    },
    {
      "inputs": [],
      "name": "symbol",
      "outputs": [
        {
          "internalType": "string",
          "name": "",
          "type": "string"
        }
      ],
      "stateMutability": "view",
      "type": "function"
    },
    {
      "inputs": [
        {
          "internalType": "uint256",
          "name": "",
          "type": "uint256"
        }
      ],
      "name": "tasks",
      "outputs": [
        {
          "internalType": "address",
          "name": "employer",
          "type": "address"
        },
        {
          "internalType": "address",
          "name": "creator",
          "type": "address"
        },
        {
          "internalType": "uint256",
          "name": "creatorBounty",
          "type": "uint256"
        },
        {
          "internalType": "uint256",
          "name": "contractorBounty",
          "type": "uint256"
        },
        {
          "internalType": "uint256",
          "name": "recruiterBounty",
          "type": "uint256"
        },
        {
          "internalType": "uint256",
          "name": "deadline",
          "type": "uint256"
        },
        {
          "internalType": "string",
          "name": "tokenURI",
          "type": "string"
        },
        {
          "internalType": "enum Uplift.Status",
          "name": "status",
          "type": "uint8"
        },
        {
          "internalType": "address",
          "name": "recruiter",
          "type": "address"
        },
        {
          "internalType": "address",
          "name": "contractor",
          "type": "address"
        },
        {
          "internalType": "uint256",
          "name": "minBalance",
          "type": "uint256"
        }
      ],
      "stateMutability": "view",
      "type": "function"
    },
    {
      "inputs": [
        {
          "internalType": "uint256",
          "name": "id",
          "type": "uint256"
        }
      ],
      "name": "tokenURI",
      "outputs": [
        {
          "internalType": "string",
          "name": "",
          "type": "string"
        }
      ],
      "stateMutability": "view",
      "type": "function"
    },
    {
      "inputs": [
        {
          "internalType": "address",
          "name": "",
          "type": "address"
        },
        {
          "internalType": "address",
          "name": "",
          "type": "address"
        },
        {
          "internalType": "uint256",
          "name": "",
          "type": "uint256"
        }
      ],
      "name": "transferFrom",
      "outputs": [],
      "stateMutability": "pure",
      "type": "function"
    },
    {
      "inputs": [
        {
          "internalType": "address",
          "name": "",
          "type": "address"
        }
      ],
      "name": "withdrawableBalances",
      "outputs": [
        {
          "internalType": "uint256",
          "name": "",
          "type": "uint256"
        }
      ],
      "stateMutability": "view",
      "type": "function"
    }
  ],
  "bytecode": {
    "object": "0x60806040523480156200001157600080fd5b506040805180820182526006815265155c1b1a599d60d21b6020808301918252835180850190945260048452631312519560e21b9084015281519192916200005c916000916200007b565b508051620000729060019060208401906200007b565b5050506200015d565b828054620000899062000121565b90600052602060002090601f016020900481019282620000ad5760008555620000f8565b82601f10620000c857805160ff1916838001178555620000f8565b82800160010185558215620000f8579182015b82811115620000f8578251825591602001919060010190620000db565b50620001069291506200010a565b5090565b5b808211156200010657600081556001016200010b565b600181811c908216806200013657607f821691505b6020821081036200015757634e487b7160e01b600052602260045260246000fd5b50919050565b611c6c806200016d6000396000f3fe60806040526004361061014a5760003560e01c806370a08231116100b6578063c87b56dd1161006f578063c87b56dd14610403578063d6074aba14610423578063d7b92d4514610450578063deb0e8fa1461045c578063e985e9c514610489578063fc05b2e8146104c457600080fd5b806370a08231146103445780638d9776721461036457806395d89b411461039b5780639a48dabc146103b0578063a22cb465146103c3578063b88d4fde146103e357600080fd5b806323b872dd1161010857806323b872dd1461025a5780632b576f4e1461027a57806342842e0e146102a75780634e7fa8fd146102c75780635ff2bc91146102f75780636352211e1461032457600080fd5b80629a9b7b1461014f57806301ffc9a71461017857806306fdde03146101a8578063081812fc146101ca578063095ea7b3146102185780631201dfc61461023a575b600080fd5b34801561015b57600080fd5b5061016560065481565b6040519081526020015b60405180910390f35b34801561018457600080fd5b5061019861019336600461171b565b6104e4565b604051901515815260200161016f565b3480156101b457600080fd5b506101bd610536565b60405161016f919061178c565b3480156101d657600080fd5b506102006101e536600461179f565b6004602052600090815260409020546001600160a01b031681565b6040516001600160a01b03909116815260200161016f565b34801561022457600080fd5b506102386102333660046117cf565b6105c4565b005b34801561024657600080fd5b5061023861025536600461179f565b6106ab565b34801561026657600080fd5b506102386102753660046117f9565b610a34565b34801561028657600080fd5b50610165610295366004611835565b60096020526000908152604090205481565b3480156102b357600080fd5b506102386102c23660046117f9565b610a4d565b3480156102d357600080fd5b506101986102e2366004611835565b600c6020526000908152604090205460ff1681565b34801561030357600080fd5b50610165610312366004611835565b600a6020526000908152604090205481565b34801561033057600080fd5b5061020061033f36600461179f565b610b22565b34801561035057600080fd5b5061016561035f366004611835565b610b79565b34801561037057600080fd5b5061038461037f36600461179f565b610bdc565b60405161016f9b9a99989796959493929190611866565b3480156103a757600080fd5b506101bd610cd9565b6102386103be366004611954565b610ce6565b3480156103cf57600080fd5b506102386103de3660046119ec565b610f0f565b3480156103ef57600080fd5b506102386103fe366004611a28565b610f7b565b34801561040f57600080fd5b506101bd61041e36600461179f565b611040565b34801561042f57600080fd5b5061016561043e366004611835565b60086020526000908152604090205481565b34801561023857600080fd5b34801561046857600080fd5b50610165610477366004611835565b600b6020526000908152604090205481565b34801561049557600080fd5b506101986104a4366004611a97565b600560209081526000928352604080842090915290825290205460ff1681565b3480156104d057600080fd5b506102386104df366004611aca565b61104b565b60006301ffc9a760e01b6001600160e01b03198316148061051557506380ac58cd60e01b6001600160e01b03198316145b806105305750635b5e139f60e01b6001600160e01b03198316145b92915050565b6000805461054390611b06565b80601f016020809104026020016040519081016040528092919081815260200182805461056f90611b06565b80156105bc5780601f10610591576101008083540402835291602001916105bc565b820191906000526020600020905b81548152906001019060200180831161059f57829003601f168201915b505050505081565b6000818152600260205260409020546001600160a01b03163381148061060d57506001600160a01b038116600090815260056020908152604080832033845290915290205460ff165b61064f5760405162461bcd60e51b815260206004820152600e60248201526d1393d517d055551213d49256915160921b60448201526064015b60405180910390fd5b60008281526004602052604080822080546001600160a01b0319166001600160a01b0387811691821790925591518593918516917f8c5be1e5ebec7d5bd14f71427d1e84f3dd0314c0f7b2291e5b200ac8c7c3b92591a4505050565b6000818152600260205260408120546001600160a01b0316151590036106e457604051632d14777560e11b815260040160405180910390fd5b600081815260076020908152604080832081516101608101835281546001600160a01b039081168252600183015416938101939093526002810154918301919091526003810154606083015260048101546080830152600581015460a083015260068101805460c08401919061075990611b06565b80601f016020809104026020016040519081016040528092919081815260200182805461078590611b06565b80156107d25780601f106107a7576101008083540402835291602001916107d2565b820191906000526020600020905b8154815290600101906020018083116107b557829003601f168201915b5050509183525050600782015460209091019060ff1660028111156107f9576107f9611850565b600281111561080a5761080a611850565b815260078201546001600160a01b03610100909104811660208301526008830154166040820152600990910154606090910152905060016000838152600760208190526040909120015460ff16600281111561086857610868611850565b146108865760405163075802eb60e01b815260040160405180910390fd5b6101208101516001600160a01b031633146108b45760405163be24598360e01b815260040160405180910390fd5b6000816080015182606001516108ca9190611b56565b82516001600160a01b03166000908152600860205260408120805492935083929091906108f8908490611b6e565b909155505060608201516101208301516001600160a01b03166000908152600960205260408120805490919061092f908490611b56565b909155505060808201516101008301516001600160a01b031660009081526009602052604081208054909190610966908490611b56565b9091555050600260e0830181905282516001600160a01b039081166000908152600360209081526040808320805460001901905561012087018051851684528184208054600101905580518985529590925280832080546001600160a01b03191695851695909517909455518551935187949184169391909116917fddf252ad1be2c89b69c2b068fc378daa952ba7f163c4a11628f55a4df523b3ef91a460405183907f91dfc924b25cd3a750912075cf0e6bed2235ec6eca305e91b6124d90bf411b2590600090a2505050565b6040516358b2164f60e11b815260040160405180910390fd5b610a58838383610a34565b6001600160a01b0382163b1580610b015750604051630a85bd0160e11b8082523360048301526001600160a01b03858116602484015260448301849052608060648401526000608484015290919084169063150b7a029060a4016020604051808303816000875af1158015610ad1573d6000803e3d6000fd5b505050506040513d601f19601f82011682018060405250810190610af59190611b85565b6001600160e01b031916145b610b1d5760405162461bcd60e51b815260040161064690611ba2565b505050565b6000818152600260205260409020546001600160a01b031680610b745760405162461bcd60e51b815260206004820152600a6024820152691393d517d3525395115160b21b6044820152606401610646565b919050565b60006001600160a01b038216610bc05760405162461bcd60e51b815260206004820152600c60248201526b5a45524f5f4144445245535360a01b6044820152606401610646565b506001600160a01b031660009081526003602052604090205490565b60076020526000908152604090208054600182015460028301546003840154600485015460058601546006870180546001600160a01b039788169896909716969495939492939192610c2d90611b06565b80601f0160208091040260200160405190810160405280929190818152602001828054610c5990611b06565b8015610ca65780601f10610c7b57610100808354040283529160200191610ca6565b820191906000526020600020905b815481529060010190602001808311610c8957829003601f168201915b50505060078401546008850154600990950154939460ff8216946001600160a01b0361010090930483169450911691508b565b6001805461054390611b06565b84610cf18789611b56565b610cfb9190611b56565b3414610d1a57604051637832e81760e01b815260040160405180910390fd5b6040518061016001604052808a6001600160a01b03168152602001896001600160a01b0316815260200188815260200187815260200186815260200185815260200183838080601f0160208091040260200160405190810160405280939291908181526020018383808284376000920182905250938552505060209092019150815260006020808301829052604080840183905260609384018890526006805484526007835292819020855181546001600160a01b039182166001600160a01b0319918216178355878501516001840180549190931691161790559085015160028201559284015160038401556080840151600484015560a0840151600584015560c08401518051610e33938501929190910190611669565b5060e082015160078201805460ff19166001836002811115610e5757610e57611850565b021790555061010082810151600783018054610100600160a81b0319166001600160a01b03928316909302929092179091556101208301516008830180546001600160a01b03191691831691909117905561014090920151600991820155908916600090815260209190915260409020879055610ed48587611b56565b6001600160a01b038a166000908152600a6020526040902055600654610efb908a90611323565b505060068054600101905550505050505050565b3360008181526005602090815260408083206001600160a01b03871680855290835292819020805460ff191686151590811790915590519081529192917f17307eab39ab6107e8899845ad3d59bd9653f200f220920489ca2b5937696c31910160405180910390a35050565b610f86858585610a34565b6001600160a01b0384163b158061101d5750604051630a85bd0160e11b808252906001600160a01b0386169063150b7a0290610fce9033908a90899089908990600401611bcc565b6020604051808303816000875af1158015610fed573d6000803e3d6000fd5b505050506040513d601f19601f820116820180604052508101906110119190611b85565b6001600160e01b031916145b6110395760405162461bcd60e51b815260040161064690611ba2565b5050505050565b6060610530826113f3565b6000838152600260205260408120546001600160a01b03161515900361108457604051632d14777560e11b815260040160405180910390fd5b60008381526007602081905260408220015460ff1660028111156110aa576110aa611850565b146110c85760405163075802eb60e01b815260040160405180910390fd5b600083815260076020908152604080832081516101608101835281546001600160a01b039081168252600183015416938101939093526002810154918301919091526003810154606083015260048101546080830152600581015460a083015260068101805460c08401919061113d90611b06565b80601f016020809104026020016040519081016040528092919081815260200182805461116990611b06565b80156111b65780601f1061118b576101008083540402835291602001916111b6565b820191906000526020600020905b81548152906001019060200180831161119957829003601f168201915b5050509183525050600782015460209091019060ff1660028111156111dd576111dd611850565b60028111156111ee576111ee611850565b815260078201546001600160a01b0361010090910481166020830152600883015416604082015260099091015460609091015261014081015190915061123333610b79565b10156112525760405163be24598360e01b815260040160405180910390fd5b6000816080015182606001516112689190611b56565b82516001600160a01b03166000908152600a6020526040812080549293508392909190611296908490611b6e565b909155505081516001600160a01b0316600090815260086020526040812080548392906112c4908490611b56565b90915550506001600160a01b0383811661012084018190529085166101008401819052600160e085015260405190919087907f3d6f754563e688abf06d08b529d2ee17ef5b7fcc177cd9dc1471a5f5efca69dc90600090a45050505050565b61132d8282611486565b6001600160a01b0382163b15806113d35750604051630a85bd0160e11b80825233600483015260006024830181905260448301849052608060648401526084830152906001600160a01b0384169063150b7a029060a4016020604051808303816000875af11580156113a3573d6000803e3d6000fd5b505050506040513d601f19601f820116820180604052508101906113c79190611b85565b6001600160e01b031916145b6113ef5760405162461bcd60e51b815260040161064690611ba2565b5050565b6060600061140083611591565b600101905060008167ffffffffffffffff81111561142057611420611c20565b6040519080825280601f01601f19166020018201604052801561144a576020820181803683370190505b5090508181016020015b600019016f181899199a1a9b1b9c1cb0b131b232b360811b600a86061a8153600a850494508461145457509392505050565b6001600160a01b0382166114d05760405162461bcd60e51b81526020600482015260116024820152701253959053125117d49150d25412515395607a1b6044820152606401610646565b6000818152600260205260409020546001600160a01b0316156115265760405162461bcd60e51b815260206004820152600e60248201526d1053149150511657d3525395115160921b6044820152606401610646565b6001600160a01b038216600081815260036020908152604080832080546001019055848352600290915280822080546001600160a01b0319168417905551839291907fddf252ad1be2c89b69c2b068fc378daa952ba7f163c4a11628f55a4df523b3ef908290a45050565b60008072184f03e93ff9f4daa797ed6e38ed64bf6a1f0160401b83106115d05772184f03e93ff9f4daa797ed6e38ed64bf6a1f0160401b830492506040015b6d04ee2d6d415b85acef810000000083106115fc576d04ee2d6d415b85acef8100000000830492506020015b662386f26fc10000831061161a57662386f26fc10000830492506010015b6305f5e1008310611632576305f5e100830492506008015b612710831061164657612710830492506004015b60648310611658576064830492506002015b600a83106105305760010192915050565b82805461167590611b06565b90600052602060002090601f01602090048101928261169757600085556116dd565b82601f106116b057805160ff19168380011785556116dd565b828001600101855582156116dd579182015b828111156116dd5782518255916020019190600101906116c2565b506116e99291506116ed565b5090565b5b808211156116e957600081556001016116ee565b6001600160e01b03198116811461171857600080fd5b50565b60006020828403121561172d57600080fd5b813561173881611702565b9392505050565b6000815180845260005b8181101561176557602081850181015186830182015201611749565b81811115611777576000602083870101525b50601f01601f19169290920160200192915050565b602081526000611738602083018461173f565b6000602082840312156117b157600080fd5b5035919050565b80356001600160a01b0381168114610b7457600080fd5b600080604083850312156117e257600080fd5b6117eb836117b8565b946020939093013593505050565b60008060006060848603121561180e57600080fd5b611817846117b8565b9250611825602085016117b8565b9150604084013590509250925092565b60006020828403121561184757600080fd5b611738826117b8565b634e487b7160e01b600052602160045260246000fd5b600061016060018060a01b03808f168452808e166020850152508b60408401528a60608401528960808401528860a08401528060c08401526118aa8184018961173f565b915050600386106118cb57634e487b7160e01b600052602160045260246000fd5b8560e08301526118e76101008301866001600160a01b03169052565b6001600160a01b039390931661012082015261014001529998505050505050505050565b60008083601f84011261191d57600080fd5b50813567ffffffffffffffff81111561193557600080fd5b60208301915083602082850101111561194d57600080fd5b9250929050565b60008060008060008060008060006101008a8c03121561197357600080fd5b61197c8a6117b8565b985061198a60208b016117b8565b975060408a0135965060608a0135955060808a0135945060a08a0135935060c08a0135925060e08a013567ffffffffffffffff8111156119c957600080fd5b6119d58c828d0161190b565b915080935050809150509295985092959850929598565b600080604083850312156119ff57600080fd5b611a08836117b8565b915060208301358015158114611a1d57600080fd5b809150509250929050565b600080600080600060808688031215611a4057600080fd5b611a49866117b8565b9450611a57602087016117b8565b935060408601359250606086013567ffffffffffffffff811115611a7a57600080fd5b611a868882890161190b565b969995985093965092949392505050565b60008060408385031215611aaa57600080fd5b611ab3836117b8565b9150611ac1602084016117b8565b90509250929050565b600080600060608486031215611adf57600080fd5b83359250611aef602085016117b8565b9150611afd604085016117b8565b90509250925092565b600181811c90821680611b1a57607f821691505b602082108103611b3a57634e487b7160e01b600052602260045260246000fd5b50919050565b634e487b7160e01b600052601160045260246000fd5b60008219821115611b6957611b69611b40565b500190565b600082821015611b8057611b80611b40565b500390565b600060208284031215611b9757600080fd5b815161173881611702565b60208082526010908201526f155394d0519157d49150d2541251539560821b604082015260600190565b6001600160a01b038681168252851660208201526040810184905260806060820181905281018290526000828460a0840137600060a0848401015260a0601f19601f85011683010190509695505050505050565b634e487b7160e01b600052604160045260246000fdfea26469706673582212208066f861e5d7e2ab9056b7331ab5d706ef780e23232a63700a94cfd6f93ffcd964736f6c634300080d0033",
    "linkReferences": {}
  },
  "methodIdentifiers": {
    "approve(address,uint256)": "095ea7b3",
    "balanceOf(address)": "70a08231",
    "cancellableBalances(address)": "5ff2bc91",
    "claimSalary()": "d7b92d45",
    "claimTask(uint256,address,address)": "fc05b2e8",
    "closeTask(uint256)": "1201dfc6",
    "contractorMomentums(address)": "deb0e8fa",
    "currentTokenId()": "009a9b7b",
    "escrowedBalances(address)": "d6074aba",
    "getApproved(uint256)": "081812fc",
    "isApprovedForAll(address,address)": "e985e9c5",
    "mintTask(address,address,uint256,uint256,uint256,uint256,uint256,string)": "9a48dabc",
    "name()": "06fdde03",
    "ownerOf(uint256)": "6352211e",
    "safeTransferFrom(address,address,uint256)": "42842e0e",
    "safeTransferFrom(address,address,uint256,bytes)": "b88d4fde",
    "setApprovalForAll(address,bool)": "a22cb465",
    "streamStatuses(address)": "4e7fa8fd",
    "supportsInterface(bytes4)": "01ffc9a7",
    "symbol()": "95d89b41",
    "tasks(uint256)": "8d977672",
    "tokenURI(uint256)": "c87b56dd",
    "transferFrom(address,address,uint256)": "23b872dd",
    "withdrawableBalances(address)": "2b576f4e"
  },
  "id": 17
}