{
  "abi": [
    {
      "inputs": [
        {
          "internalType": "address",
          "name": "_edu_address",
          "type": "address"
        },
        {
          "internalType": "contract ISuperfluid",
          "name": "host",
          "type": "address"
        }
      ],
      "stateMutability": "nonpayable",
      "type": "constructor"
    },
    {
      "inputs": [],
      "name": "IncompatableStatus",
      "type": "error"
    },
    {
      "inputs": [],
      "name": "IncorrectEDU",
      "type": "error"
    },
    {
      "inputs": [],
      "name": "IncorrectFunds",
      "type": "error"
    },
    {
      "inputs": [],
      "name": "InsufficientEDU",
      "type": "error"
    },
    {
      "inputs": [],
      "name": "NonExistantTask",
      "type": "error"
    },
    {
      "inputs": [],
      "name": "TokenIsSoulbound",
      "type": "error"
    },
    {
      "inputs": [],
      "name": "UnAuthorized",
      "type": "error"
    },
    {
      "anonymous": false,
      "inputs": [
        {
          "indexed": true,
          "internalType": "address",
          "name": "owner",
          "type": "address"
        },
        {
          "indexed": true,
          "internalType": "address",
          "name": "spender",
          "type": "address"
        },
        {
          "indexed": true,
          "internalType": "uint256",
          "name": "id",
          "type": "uint256"
        }
      ],
      "name": "Approval",
      "type": "event"
    },
    {
      "anonymous": false,
      "inputs": [
        {
          "indexed": true,
          "internalType": "address",
          "name": "owner",
          "type": "address"
        },
        {
          "indexed": true,
          "internalType": "address",
          "name": "operator",
          "type": "address"
        },
        {
          "indexed": false,
          "internalType": "bool",
          "name": "approved",
          "type": "bool"
        }
      ],
      "name": "ApprovalForAll",
      "type": "event"
    },
    {
      "anonymous": false,
      "inputs": [
        {
          "indexed": true,
          "internalType": "address",
          "name": "contractor",
          "type": "address"
        },
        {
          "indexed": false,
          "internalType": "int96",
          "name": "flow",
          "type": "int96"
        }
      ],
      "name": "StreamUpdated",
      "type": "event"
    },
    {
      "anonymous": false,
      "inputs": [
        {
          "indexed": true,
          "internalType": "uint256",
          "name": "tokenId",
          "type": "uint256"
        }
      ],
      "name": "TaskCancelled",
      "type": "event"
    },
    {
      "anonymous": false,
      "inputs": [
        {
          "indexed": true,
          "internalType": "uint256",
          "name": "tokenId",
          "type": "uint256"
        },
        {
          "indexed": true,
          "internalType": "address",
          "name": "contractor",
          "type": "address"
        },
        {
          "indexed": true,
          "internalType": "address",
          "name": "recruiter",
          "type": "address"
        }
      ],
      "name": "TaskClaimed",
      "type": "event"
    },
    {
      "anonymous": false,
      "inputs": [
        {
          "indexed": true,
          "internalType": "uint256",
          "name": "tokenId",
          "type": "uint256"
        }
      ],
      "name": "TaskClosed",
      "type": "event"
    },
    {
      "anonymous": false,
      "inputs": [
        {
          "indexed": true,
          "internalType": "uint256",
          "name": "tokenId",
          "type": "uint256"
        }
      ],
      "name": "TaskUnclaimed",
      "type": "event"
    },
    {
      "anonymous": false,
      "inputs": [
        {
          "indexed": true,
          "internalType": "address",
          "name": "from",
          "type": "address"
        },
        {
          "indexed": true,
          "internalType": "address",
          "name": "to",
          "type": "address"
        },
        {
          "indexed": true,
          "internalType": "uint256",
          "name": "id",
          "type": "uint256"
        }
      ],
      "name": "Transfer",
      "type": "event"
    },
    {
      "inputs": [
        {
          "internalType": "address",
          "name": "spender",
          "type": "address"
        },
        {
          "internalType": "uint256",
          "name": "id",
          "type": "uint256"
        }
      ],
      "name": "approve",
      "outputs": [],
      "stateMutability": "nonpayable",
      "type": "function"
    },
    {
      "inputs": [
        {
          "internalType": "address",
          "name": "owner",
          "type": "address"
        }
      ],
      "name": "balanceOf",
      "outputs": [
        {
          "internalType": "uint256",
          "name": "",
          "type": "uint256"
        }
      ],
      "stateMutability": "view",
      "type": "function"
    },
    {
      "inputs": [
        {
          "internalType": "address",
          "name": "",
          "type": "address"
        }
      ],
      "name": "cancellableBalances",
      "outputs": [
        {
          "internalType": "uint256",
          "name": "",
          "type": "uint256"
        }
      ],
      "stateMutability": "view",
      "type": "function"
    },
    {
      "inputs": [],
      "name": "cfaV1",
      "outputs": [
        {
          "internalType": "contract ISuperfluid",
          "name": "host",
          "type": "address"
        },
        {
          "internalType": "contract IConstantFlowAgreementV1",
          "name": "cfa",
          "type": "address"
        }
      ],
      "stateMutability": "view",
      "type": "function"
    },
    {
      "inputs": [],
      "name": "claimSalary",
      "outputs": [],
      "stateMutability": "nonpayable",
      "type": "function"
    },
    {
      "inputs": [
        {
          "internalType": "uint256",
          "name": "_tokenId",
          "type": "uint256"
        },
        {
          "internalType": "address",
          "name": "_recruiter",
          "type": "address"
        },
        {
          "internalType": "address",
          "name": "_contractor",
          "type": "address"
        }
      ],
      "name": "claimTask",
      "outputs": [],
      "stateMutability": "nonpayable",
      "type": "function"
    },
    {
      "inputs": [
        {
          "internalType": "uint256",
          "name": "_tokenId",
          "type": "uint256"
        }
      ],
      "name": "closeTask",
      "outputs": [],
      "stateMutability": "nonpayable",
      "type": "function"
    },
    {
      "inputs": [],
      "name": "currentTokenId",
      "outputs": [
        {
          "internalType": "uint256",
          "name": "",
          "type": "uint256"
        }
      ],
      "stateMutability": "view",
      "type": "function"
    },
    {
      "inputs": [
        {
          "internalType": "address",
          "name": "",
          "type": "address"
        }
      ],
      "name": "escrowedBalances",
      "outputs": [
        {
          "internalType": "uint256",
          "name": "",
          "type": "uint256"
        }
      ],
      "stateMutability": "view",
      "type": "function"
    },
    {
      "inputs": [
        {
          "internalType": "uint256",
          "name": "",
          "type": "uint256"
        }
      ],
      "name": "getApproved",
      "outputs": [
        {
          "internalType": "address",
          "name": "",
          "type": "address"
        }
      ],
      "stateMutability": "view",
      "type": "function"
    },
    {
      "inputs": [
        {
          "internalType": "address",
          "name": "",
          "type": "address"
        }
      ],
      "name": "incomeStates",
      "outputs": [
        {
          "internalType": "uint256",
          "name": "",
          "type": "uint256"
        }
      ],
      "stateMutability": "view",
      "type": "function"
    },
    {
      "inputs": [
        {
          "internalType": "address",
          "name": "",
          "type": "address"
        },
        {
          "internalType": "address",
          "name": "",
          "type": "address"
        }
      ],
      "name": "isApprovedForAll",
      "outputs": [
        {
          "internalType": "bool",
          "name": "",
          "type": "bool"
        }
      ],
      "stateMutability": "view",
      "type": "function"
    },
    {
      "inputs": [
        {
          "internalType": "address",
          "name": "_employer",
          "type": "address"
        },
        {
          "internalType": "address",
          "name": "_creator",
          "type": "address"
        },
        {
          "internalType": "uint256",
          "name": "_creatorBounty",
          "type": "uint256"
        },
        {
          "internalType": "uint256",
          "name": "_contractorBounty",
          "type": "uint256"
        },
        {
          "internalType": "uint256",
          "name": "_recruiterBounty",
          "type": "uint256"
        },
        {
          "internalType": "uint256",
          "name": "_deadline",
          "type": "uint256"
        },
        {
          "internalType": "uint256",
          "name": "_minBalance",
          "type": "uint256"
        },
        {
          "internalType": "uint256",
          "name": "_minEdu",
          "type": "uint256"
        },
        {
          "internalType": "string",
          "name": "_tokenURI",
          "type": "string"
        }
      ],
      "name": "mintTask",
      "outputs": [],
      "stateMutability": "payable",
      "type": "function"
    },
    {
      "inputs": [],
      "name": "name",
      "outputs": [
        {
          "internalType": "string",
          "name": "",
          "type": "string"
        }
      ],
      "stateMutability": "view",
      "type": "function"
    },
    {
      "inputs": [
        {
          "internalType": "uint256",
          "name": "id",
          "type": "uint256"
        }
      ],
      "name": "ownerOf",
      "outputs": [
        {
          "internalType": "address",
          "name": "owner",
          "type": "address"
        }
      ],
      "stateMutability": "view",
      "type": "function"
    },
    {
      "inputs": [
        {
          "internalType": "address",
          "name": "from",
          "type": "address"
        },
        {
          "internalType": "address",
          "name": "to",
          "type": "address"
        },
        {
          "internalType": "uint256",
          "name": "id",
          "type": "uint256"
        }
      ],
      "name": "safeTransferFrom",
      "outputs": [],
      "stateMutability": "nonpayable",
      "type": "function"
    },
    {
      "inputs": [
        {
          "internalType": "address",
          "name": "from",
          "type": "address"
        },
        {
          "internalType": "address",
          "name": "to",
          "type": "address"
        },
        {
          "internalType": "uint256",
          "name": "id",
          "type": "uint256"
        },
        {
          "internalType": "bytes",
          "name": "data",
          "type": "bytes"
        }
      ],
      "name": "safeTransferFrom",
      "outputs": [],
      "stateMutability": "nonpayable",
      "type": "function"
    },
    {
      "inputs": [
        {
          "internalType": "address",
          "name": "operator",
          "type": "address"
        },
        {
          "internalType": "bool",
          "name": "approved",
          "type": "bool"
        }
      ],
      "name": "setApprovalForAll",
      "outputs": [],
      "stateMutability": "nonpayable",
      "type": "function"
    },
    {
      "inputs": [
        {
          "internalType": "bytes4",
          "name": "interfaceId",
          "type": "bytes4"
        }
      ],
      "name": "supportsInterface",
      "outputs": [
        {
          "internalType": "bool",
          "name": "",
          "type": "bool"
        }
      ],
      "stateMutability": "view",
      "type": "function"
    },
    {
      "inputs": [],
      "name": "symbol",
      "outputs": [
        {
          "internalType": "string",
          "name": "",
          "type": "string"
        }
      ],
      "stateMutability": "view",
      "type": "function"
    },
    {
      "inputs": [
        {
          "internalType": "uint256",
          "name": "",
          "type": "uint256"
        }
      ],
      "name": "tasks",
      "outputs": [
        {
          "internalType": "address",
          "name": "employer",
          "type": "address"
        },
        {
          "internalType": "address",
          "name": "creator",
          "type": "address"
        },
        {
          "internalType": "uint256",
          "name": "creatorBounty",
          "type": "uint256"
        },
        {
          "internalType": "uint256",
          "name": "contractorBounty",
          "type": "uint256"
        },
        {
          "internalType": "uint256",
          "name": "recruiterBounty",
          "type": "uint256"
        },
        {
          "internalType": "uint256",
          "name": "deadline",
          "type": "uint256"
        },
        {
          "internalType": "string",
          "name": "tokenURI",
          "type": "string"
        },
        {
          "internalType": "enum Uplift.Status",
          "name": "status",
          "type": "uint8"
        },
        {
          "internalType": "address",
          "name": "recruiter",
          "type": "address"
        },
        {
          "internalType": "address",
          "name": "contractor",
          "type": "address"
        },
        {
          "internalType": "uint256",
          "name": "minBalance",
          "type": "uint256"
        },
        {
          "internalType": "uint256",
          "name": "minEdu",
          "type": "uint256"
        }
      ],
      "stateMutability": "view",
      "type": "function"
    },
    {
      "inputs": [
        {
          "internalType": "uint256",
          "name": "id",
          "type": "uint256"
        }
      ],
      "name": "tokenURI",
      "outputs": [
        {
          "internalType": "string",
          "name": "",
          "type": "string"
        }
      ],
      "stateMutability": "view",
      "type": "function"
    },
    {
      "inputs": [
        {
          "internalType": "address",
          "name": "",
          "type": "address"
        },
        {
          "internalType": "address",
          "name": "",
          "type": "address"
        },
        {
          "internalType": "uint256",
          "name": "",
          "type": "uint256"
        }
      ],
      "name": "transferFrom",
      "outputs": [],
      "stateMutability": "pure",
      "type": "function"
    },
    {
      "inputs": [
        {
          "internalType": "address",
          "name": "",
          "type": "address"
        }
      ],
      "name": "withdrawableBalances",
      "outputs": [
        {
          "internalType": "uint256",
          "name": "",
          "type": "uint256"
        }
      ],
      "stateMutability": "view",
      "type": "function"
    }
  ],
  "bytecode": {
    "object": "0x6080604052600780546001600160a01b031916735d8b4c2554aeb7e86f387b4d6c00ac33499ed01f1790553480156200003757600080fd5b506040516200249d3803806200249d8339810160408190526200005a9162000275565b6040805180820182526006815265155c1b1a599d60d21b6020808301918252835180850190945260048452631312519560e21b908401528151919291620000a491600091620001b6565b508051620000ba906001906020840190620001b6565b5050600a80546001600160a01b0319166001600160a01b03858116919091179091556040805180820182529184168083529051635b69006f60e11b81527fa9214cc96615e0085d3bb077758db69497dc2dce3b2b1e97bc93c3d18d83efd36004820152919250602083019163b6d200de90602401602060405180830381865afa1580156200014c573d6000803e3d6000fd5b505050506040513d601f19601f82011682018060405250810190620001729190620002b4565b6001600160a01b039081169091528151600880546001600160a01b031990811692841692909217905560209092015160098054909316911617905550620003179050565b828054620001c490620002db565b90600052602060002090601f016020900481019282620001e8576000855562000233565b82601f106200020357805160ff191683800117855562000233565b8280016001018555821562000233579182015b828111156200023357825182559160200191906001019062000216565b506200024192915062000245565b5090565b5b8082111562000241576000815560010162000246565b6001600160a01b03811681146200027257600080fd5b50565b600080604083850312156200028957600080fd5b825162000296816200025c565b6020840151909250620002a9816200025c565b809150509250929050565b600060208284031215620002c757600080fd5b8151620002d4816200025c565b9392505050565b600181811c90821680620002f057607f821691505b6020821081036200031157634e487b7160e01b600052602260045260246000fd5b50919050565b61217680620003276000396000f3fe60806040526004361061014a5760003560e01c806370a08231116100b6578063d3112b2e1161006f578063d3112b2e1461040e578063d6074aba14610455578063d7b92d4514610482578063e600c35114610497578063e985e9c5146104aa578063fc05b2e8146104e557600080fd5b806370a08231146103415780638d9776721461036157806395d89b4114610399578063a22cb465146103ae578063b88d4fde146103ce578063c87b56dd146103ee57600080fd5b80632036acd2116101085780632036acd21461025a57806323b872dd146102875780632b576f4e146102a757806342842e0e146102d45780635ff2bc91146102f45780636352211e1461032157600080fd5b80629a9b7b1461014f57806301ffc9a71461017857806306fdde03146101a8578063081812fc146101ca578063095ea7b3146102185780631201dfc61461023a575b600080fd5b34801561015b57600080fd5b5061016560065481565b6040519081526020015b60405180910390f35b34801561018457600080fd5b50610198610193366004611acb565b610505565b604051901515815260200161016f565b3480156101b457600080fd5b506101bd610557565b60405161016f9190611b47565b3480156101d657600080fd5b506102006101e5366004611b5a565b6004602052600090815260409020546001600160a01b031681565b6040516001600160a01b03909116815260200161016f565b34801561022457600080fd5b50610238610233366004611b8a565b6105e5565b005b34801561024657600080fd5b50610238610255366004611b5a565b6106cc565b34801561026657600080fd5b50610165610275366004611bb4565b600f6020526000908152604090205481565b34801561029357600080fd5b506102386102a2366004611bcf565b610a5e565b3480156102b357600080fd5b506101656102c2366004611bb4565b600d6020526000908152604090205481565b3480156102e057600080fd5b506102386102ef366004611bcf565b610a77565b34801561030057600080fd5b5061016561030f366004611bb4565b600e6020526000908152604090205481565b34801561032d57600080fd5b5061020061033c366004611b5a565b610b4c565b34801561034d57600080fd5b5061016561035c366004611bb4565b610ba3565b34801561036d57600080fd5b5061038161037c366004611b5a565b610c06565b60405161016f9c9b9a99989796959493929190611c21565b3480156103a557600080fd5b506101bd610d0a565b3480156103ba57600080fd5b506102386103c9366004611cce565b610d17565b3480156103da57600080fd5b506102386103e9366004611d53565b610d83565b3480156103fa57600080fd5b506101bd610409366004611b5a565b610e48565b34801561041a57600080fd5b50600854600954610435916001600160a01b03908116911682565b604080516001600160a01b0393841681529290911660208301520161016f565b34801561046157600080fd5b50610165610470366004611bb4565b600c6020526000908152604090205481565b34801561048e57600080fd5b50610238610e53565b6102386104a5366004611dc2565b610f0d565b3480156104b657600080fd5b506101986104c5366004611e65565b600560209081526000928352604080842090915290825290205460ff1681565b3480156104f157600080fd5b50610238610500366004611e98565b611146565b60006301ffc9a760e01b6001600160e01b03198316148061053657506380ac58cd60e01b6001600160e01b03198316145b806105515750635b5e139f60e01b6001600160e01b03198316145b92915050565b6000805461056490611ed4565b80601f016020809104026020016040519081016040528092919081815260200182805461059090611ed4565b80156105dd5780601f106105b2576101008083540402835291602001916105dd565b820191906000526020600020905b8154815290600101906020018083116105c057829003601f168201915b505050505081565b6000818152600260205260409020546001600160a01b03163381148061062e57506001600160a01b038116600090815260056020908152604080832033845290915290205460ff165b6106705760405162461bcd60e51b815260206004820152600e60248201526d1393d517d055551213d49256915160921b60448201526064015b60405180910390fd5b60008281526004602052604080822080546001600160a01b0319166001600160a01b0387811691821790925591518593918516917f8c5be1e5ebec7d5bd14f71427d1e84f3dd0314c0f7b2291e5b200ac8c7c3b92591a4505050565b6000818152600260205260408120546001600160a01b03161515900361070557604051632d14777560e11b815260040160405180910390fd5b6000818152600b6020908152604080832081516101808101835281546001600160a01b039081168252600183015416938101939093526002810154918301919091526003810154606083015260048101546080830152600581015460a083015260068101805460c08401919061077a90611ed4565b80601f01602080910402602001604051908101604052809291908181526020018280546107a690611ed4565b80156107f35780601f106107c8576101008083540402835291602001916107f3565b820191906000526020600020905b8154815290600101906020018083116107d657829003601f168201915b5050509183525050600782015460209091019060ff16600281111561081a5761081a611c0b565b600281111561082b5761082b611c0b565b815260078201546001600160a01b0361010090910481166020830152600883015416604082015260098201546060820152600a90910154608090910152905060016000838152600b602052604090206007015460ff16600281111561089257610892611c0b565b146108b05760405163075802eb60e01b815260040160405180910390fd5b6101208101516001600160a01b031633146108de5760405163be24598360e01b815260040160405180910390fd5b6000816080015182606001516108f49190611f24565b82516001600160a01b03166000908152600c6020526040812080549293508392909190610922908490611f3c565b909155505060608201516101208301516001600160a01b03166000908152600d602052604081208054909190610959908490611f24565b909155505060808201516101008301516001600160a01b03166000908152600d602052604081208054909190610990908490611f24565b9091555050600260e0830181905282516001600160a01b039081166000908152600360209081526040808320805460001901905561012087018051851684528184208054600101905580518985529590925280832080546001600160a01b03191695851695909517909455518551935187949184169391909116917fddf252ad1be2c89b69c2b068fc378daa952ba7f163c4a11628f55a4df523b3ef91a460405183907f91dfc924b25cd3a750912075cf0e6bed2235ec6eca305e91b6124d90bf411b2590600090a2505050565b6040516358b2164f60e11b815260040160405180910390fd5b610a82838383610a5e565b6001600160a01b0382163b1580610b2b5750604051630a85bd0160e11b8082523360048301526001600160a01b03858116602484015260448301849052608060648401526000608484015290919084169063150b7a029060a4016020604051808303816000875af1158015610afb573d6000803e3d6000fd5b505050506040513d601f19601f82011682018060405250810190610b1f9190611f53565b6001600160e01b031916145b610b475760405162461bcd60e51b815260040161066790611f70565b505050565b6000818152600260205260409020546001600160a01b031680610b9e5760405162461bcd60e51b815260206004820152600a6024820152691393d517d3525395115160b21b6044820152606401610667565b919050565b60006001600160a01b038216610bea5760405162461bcd60e51b815260206004820152600c60248201526b5a45524f5f4144445245535360a01b6044820152606401610667565b506001600160a01b031660009081526003602052604090205490565b600b6020526000908152604090208054600182015460028301546003840154600485015460058601546006870180546001600160a01b039788169896909716969495939492939192610c5790611ed4565b80601f0160208091040260200160405190810160405280929190818152602001828054610c8390611ed4565b8015610cd05780601f10610ca557610100808354040283529160200191610cd0565b820191906000526020600020905b815481529060010190602001808311610cb357829003601f168201915b505050600784015460088501546009860154600a90960154949560ff8316956001600160a01b03610100909404841695509190921692508c565b6001805461056490611ed4565b3360008181526005602090815260408083206001600160a01b03871680855290835292819020805460ff191686151590811790915590519081529192917f17307eab39ab6107e8899845ad3d59bd9653f200f220920489ca2b5937696c31910160405180910390a35050565b610d8e858585610a5e565b6001600160a01b0384163b1580610e255750604051630a85bd0160e11b808252906001600160a01b0386169063150b7a0290610dd69033908a90899089908990600401611f9a565b6020604051808303816000875af1158015610df5573d6000803e3d6000fd5b505050506040513d601f19601f82011682018060405250810190610e199190611f53565b6001600160e01b031916145b610e415760405162461bcd60e51b815260040161066790611f70565b5050505050565b6060610551826114b9565b600a546040516370a0823160e01b81523360048201526000916001600160a01b0316906370a0823190602401602060405180830381865afa158015610e9c573d6000803e3d6000fd5b505050506040513d601f19601f82011682018060405250810190610ec09190611fee565b90506004811015610ee45760405163aa70372b60e01b815260040160405180910390fd5b80600403610ef757610ef76103e861154c565b80600503610f0a57610f0a6109c461154c565b50565b85610f18888a611f24565b610f229190611f24565b3414610f4157604051637832e81760e01b815260040160405180910390fd5b6040518061018001604052808b6001600160a01b031681526020018a6001600160a01b0316815260200189815260200188815260200187815260200186815260200183838080601f0160208091040260200160405190810160405280939291908181526020018383808284376000920182905250938552505060209092019150815260006020808301829052604080840183905260608085018a90526080948501899052600680548552600b845293829020865181546001600160a01b039182166001600160a01b031991821617835588860151600184018054919093169116179055918601516002830155850151600382015592840151600484015560a0840151600584015560c08401518051611060938501929190910190611a1c565b5060e082015160078201805460ff1916600183600281111561108457611084611c0b565b021790555061010082810151600783018054610100600160a81b0319166001600160a01b03928316909302929092179091556101208301516008830180546001600160a01b031916918316919091179055610140830151600983015561016090920151600a9091015589166000908152600d6020526040902088905561110a8688611f24565b6001600160a01b038b166000908152600e6020526040902055600654611131908b906115fb565b50506006805460010190555050505050505050565b6000838152600260205260408120546001600160a01b03161515900361117f57604051632d14777560e11b815260040160405180910390fd5b6000838152600b602052604081206007015460ff1660028111156111a5576111a5611c0b565b146111c35760405163075802eb60e01b815260040160405180910390fd5b6000838152600b6020908152604080832081516101808101835281546001600160a01b039081168252600183015416938101939093526002810154918301919091526003810154606083015260048101546080830152600581015460a083015260068101805460c08401919061123890611ed4565b80601f016020809104026020016040519081016040528092919081815260200182805461126490611ed4565b80156112b15780601f10611286576101008083540402835291602001916112b1565b820191906000526020600020905b81548152906001019060200180831161129457829003601f168201915b5050509183525050600782015460209091019060ff1660028111156112d8576112d8611c0b565b60028111156112e9576112e9611c0b565b815260078201546001600160a01b0361010090910481166020830152600883015416604082015260098201546060820152600a9091015460809091015261014081015190915061133833610ba3565b10156113575760405163be24598360e01b815260040160405180910390fd5b610160810151600a546040516370a0823160e01b81523360048201526001600160a01b03909116906370a0823190602401602060405180830381865afa1580156113a5573d6000803e3d6000fd5b505050506040513d601f19601f820116820180604052508101906113c99190611fee565b10156113e85760405163ab654faf60e01b815260040160405180910390fd5b6000816080015182606001516113fe9190611f24565b82516001600160a01b03166000908152600e602052604081208054929350839290919061142c908490611f3c565b909155505081516001600160a01b03166000908152600c60205260408120805483929061145a908490611f24565b90915550506001600160a01b0383811661012084018190529085166101008401819052600160e085015260405190919087907f3d6f754563e688abf06d08b529d2ee17ef5b7fcc177cd9dc1471a5f5efca69dc90600090a45050505050565b606060006114c6836116cb565b600101905060008167ffffffffffffffff8111156114e6576114e6612007565b6040519080825280601f01601f191660200182016040528015611510576020820181803683370190505b5090508181016020015b600019016f181899199a1a9b1b9c1cb0b131b232b360811b600a86061a8153600a850494508461151a57509392505050565b336000908152600f6020526040812054900361159357336000818152600f602052604090206001905560075461158e916008916001600160a01b0316846117a3565b6115bf565b336000818152600f60205260409020600290556007546115bf916008916001600160a01b0316846117c9565b604051600b82900b815233907ff107c9a55c1c8c5b73dd9e8516d71363e40fa2cd96b1063039020d13bac996b69060200160405180910390a250565b61160582826117e9565b6001600160a01b0382163b15806116ab5750604051630a85bd0160e11b80825233600483015260006024830181905260448301849052608060648401526084830152906001600160a01b0384169063150b7a029060a4016020604051808303816000875af115801561167b573d6000803e3d6000fd5b505050506040513d601f19601f8201168201806040525081019061169f9190611f53565b6001600160e01b031916145b6116c75760405162461bcd60e51b815260040161066790611f70565b5050565b60008072184f03e93ff9f4daa797ed6e38ed64bf6a1f0160401b831061170a5772184f03e93ff9f4daa797ed6e38ed64bf6a1f0160401b830492506040015b6d04ee2d6d415b85acef81000000008310611736576d04ee2d6d415b85acef8100000000830492506020015b662386f26fc10000831061175457662386f26fc10000830492506010015b6305f5e100831061176c576305f5e100830492506008015b612710831061178057612710830492506004015b60648310611792576064830492506002015b600a83106105515760010192915050565b6040805160008152602081019091526117c39085908590859085906118f4565b50505050565b6040805160008152602081019091526117c39085908590859085906119f2565b6001600160a01b0382166118335760405162461bcd60e51b81526020600482015260116024820152701253959053125117d49150d25412515395607a1b6044820152606401610667565b6000818152600260205260409020546001600160a01b0316156118895760405162461bcd60e51b815260206004820152600e60248201526d1053149150511657d3525395115160921b6044820152606401610667565b6001600160a01b038216600081815260036020908152604080832080546001019055848352600290915280822080546001600160a01b0319168417905551839291907fddf252ad1be2c89b69c2b068fc378daa952ba7f163c4a11628f55a4df523b3ef908290a45050565b845460018601546001600160a01b03918216916339255d5b9116806362fc305e87898860005b6040519080825280601f01601f191660200182016040528015611944576020820181803683370190505b50604051602401611958949392919061201d565b60408051808303601f1901815291815260208201805160e094851b6001600160e01b03909116179052519185901b6001600160e01b03191682526119a393925090869060040161205d565b6000604051808303816000875af11580156119c2573d6000803e3d6000fd5b505050506040513d6000823e601f3d908101601f191682016040526119ea9190810190612093565b505050505050565b845460018601546001600160a01b03918216916339255d5b9116806350209a62878988600061191a565b828054611a2890611ed4565b90600052602060002090601f016020900481019282611a4a5760008555611a90565b82601f10611a6357805160ff1916838001178555611a90565b82800160010185558215611a90579182015b82811115611a90578251825591602001919060010190611a75565b50611a9c929150611aa0565b5090565b5b80821115611a9c5760008155600101611aa1565b6001600160e01b031981168114610f0a57600080fd5b600060208284031215611add57600080fd5b8135611ae881611ab5565b9392505050565b60005b83811015611b0a578181015183820152602001611af2565b838111156117c35750506000910152565b60008151808452611b33816020860160208601611aef565b601f01601f19169290920160200192915050565b602081526000611ae86020830184611b1b565b600060208284031215611b6c57600080fd5b5035919050565b80356001600160a01b0381168114610b9e57600080fd5b60008060408385031215611b9d57600080fd5b611ba683611b73565b946020939093013593505050565b600060208284031215611bc657600080fd5b611ae882611b73565b600080600060608486031215611be457600080fd5b611bed84611b73565b9250611bfb60208501611b73565b9150604084013590509250925092565b634e487b7160e01b600052602160045260246000fd5b600060018060a01b03808f168352808e166020840152508b60408301528a60608301528960808301528860a083015261018060c0830152611c66610180830189611b1b565b905060038710611c8657634e487b7160e01b600052602160045260246000fd5b8660e0830152611ca26101008301876001600160a01b03169052565b6001600160a01b03851661012083015261014082019390935261016001529a9950505050505050505050565b60008060408385031215611ce157600080fd5b611cea83611b73565b915060208301358015158114611cff57600080fd5b809150509250929050565b60008083601f840112611d1c57600080fd5b50813567ffffffffffffffff811115611d3457600080fd5b602083019150836020828501011115611d4c57600080fd5b9250929050565b600080600080600060808688031215611d6b57600080fd5b611d7486611b73565b9450611d8260208701611b73565b935060408601359250606086013567ffffffffffffffff811115611da557600080fd5b611db188828901611d0a565b969995985093965092949392505050565b6000806000806000806000806000806101208b8d031215611de257600080fd5b611deb8b611b73565b9950611df960208c01611b73565b985060408b0135975060608b0135965060808b0135955060a08b0135945060c08b0135935060e08b013592506101008b013567ffffffffffffffff811115611e4057600080fd5b611e4c8d828e01611d0a565b915080935050809150509295989b9194979a5092959850565b60008060408385031215611e7857600080fd5b611e8183611b73565b9150611e8f60208401611b73565b90509250929050565b600080600060608486031215611ead57600080fd5b83359250611ebd60208501611b73565b9150611ecb60408501611b73565b90509250925092565b600181811c90821680611ee857607f821691505b602082108103611f0857634e487b7160e01b600052602260045260246000fd5b50919050565b634e487b7160e01b600052601160045260246000fd5b60008219821115611f3757611f37611f0e565b500190565b600082821015611f4e57611f4e611f0e565b500390565b600060208284031215611f6557600080fd5b8151611ae881611ab5565b60208082526010908201526f155394d0519157d49150d2541251539560821b604082015260600190565b6001600160a01b038681168252851660208201526040810184905260806060820181905281018290526000828460a0840137600060a0848401015260a0601f19601f85011683010190509695505050505050565b60006020828403121561200057600080fd5b5051919050565b634e487b7160e01b600052604160045260246000fd5b6001600160a01b03858116825284166020820152600b83900b604082015260806060820181905260009061205390830184611b1b565b9695505050505050565b6001600160a01b038416815260606020820181905260009061208190830185611b1b565b82810360408401526120538185611b1b565b6000602082840312156120a557600080fd5b815167ffffffffffffffff808211156120bd57600080fd5b818401915084601f8301126120d157600080fd5b8151818111156120e3576120e3612007565b604051601f8201601f19908116603f0116810190838211818310171561210b5761210b612007565b8160405282815287602084870101111561212457600080fd5b612135836020830160208801611aef565b97965050505050505056fea2646970667358221220fa4783dc79ba4c85942ede6e064e260e267c80e5f7a29f435a8b38a4f5135c8f64736f6c634300080d0033",
    "linkReferences": {}
  },
  "methodIdentifiers": {
    "approve(address,uint256)": "095ea7b3",
    "balanceOf(address)": "70a08231",
    "cancellableBalances(address)": "5ff2bc91",
    "cfaV1()": "d3112b2e",
    "claimSalary()": "d7b92d45",
    "claimTask(uint256,address,address)": "fc05b2e8",
    "closeTask(uint256)": "1201dfc6",
    "currentTokenId()": "009a9b7b",
    "escrowedBalances(address)": "d6074aba",
    "getApproved(uint256)": "081812fc",
    "incomeStates(address)": "2036acd2",
    "isApprovedForAll(address,address)": "e985e9c5",
    "mintTask(address,address,uint256,uint256,uint256,uint256,uint256,uint256,string)": "e600c351",
    "name()": "06fdde03",
    "ownerOf(uint256)": "6352211e",
    "safeTransferFrom(address,address,uint256)": "42842e0e",
    "safeTransferFrom(address,address,uint256,bytes)": "b88d4fde",
    "setApprovalForAll(address,bool)": "a22cb465",
    "supportsInterface(bytes4)": "01ffc9a7",
    "symbol()": "95d89b41",
    "tasks(uint256)": "8d977672",
    "tokenURI(uint256)": "c87b56dd",
    "transferFrom(address,address,uint256)": "23b872dd",
    "withdrawableBalances(address)": "2b576f4e"
  },
  "id": 18
}