{
  "abi": [
    {
      "inputs": [
        {
          "internalType": "address",
          "name": "_edu_address",
          "type": "address"
        },
        {
          "internalType": "contract ISuperfluid",
          "name": "host",
          "type": "address"
        }
      ],
      "stateMutability": "nonpayable",
      "type": "constructor"
    },
    {
      "inputs": [],
      "name": "IncompatableStatus",
      "type": "error"
    },
    {
      "inputs": [],
      "name": "IncorrectFunds",
      "type": "error"
    },
    {
      "inputs": [],
      "name": "InsufficientEDU",
      "type": "error"
    },
    {
      "inputs": [],
      "name": "NonExistantTask",
      "type": "error"
    },
    {
      "inputs": [],
      "name": "TokenIsSoulbound",
      "type": "error"
    },
    {
      "inputs": [],
      "name": "UnAuthorized",
      "type": "error"
    },
    {
      "anonymous": false,
      "inputs": [
        {
          "indexed": true,
          "internalType": "address",
          "name": "owner",
          "type": "address"
        },
        {
          "indexed": true,
          "internalType": "address",
          "name": "spender",
          "type": "address"
        },
        {
          "indexed": true,
          "internalType": "uint256",
          "name": "id",
          "type": "uint256"
        }
      ],
      "name": "Approval",
      "type": "event"
    },
    {
      "anonymous": false,
      "inputs": [
        {
          "indexed": true,
          "internalType": "address",
          "name": "owner",
          "type": "address"
        },
        {
          "indexed": true,
          "internalType": "address",
          "name": "operator",
          "type": "address"
        },
        {
          "indexed": false,
          "internalType": "bool",
          "name": "approved",
          "type": "bool"
        }
      ],
      "name": "ApprovalForAll",
      "type": "event"
    },
    {
      "anonymous": false,
      "inputs": [
        {
          "indexed": true,
          "internalType": "uint256",
          "name": "tokenId",
          "type": "uint256"
        }
      ],
      "name": "TaskCancelled",
      "type": "event"
    },
    {
      "anonymous": false,
      "inputs": [
        {
          "indexed": true,
          "internalType": "uint256",
          "name": "tokenId",
          "type": "uint256"
        },
        {
          "indexed": true,
          "internalType": "address",
          "name": "contractor",
          "type": "address"
        },
        {
          "indexed": true,
          "internalType": "address",
          "name": "recruiter",
          "type": "address"
        }
      ],
      "name": "TaskClaimed",
      "type": "event"
    },
    {
      "anonymous": false,
      "inputs": [
        {
          "indexed": true,
          "internalType": "uint256",
          "name": "tokenId",
          "type": "uint256"
        }
      ],
      "name": "TaskClosed",
      "type": "event"
    },
    {
      "anonymous": false,
      "inputs": [
        {
          "indexed": true,
          "internalType": "uint256",
          "name": "tokenId",
          "type": "uint256"
        }
      ],
      "name": "TaskUnclaimed",
      "type": "event"
    },
    {
      "anonymous": false,
      "inputs": [
        {
          "indexed": true,
          "internalType": "address",
          "name": "from",
          "type": "address"
        },
        {
          "indexed": true,
          "internalType": "address",
          "name": "to",
          "type": "address"
        },
        {
          "indexed": true,
          "internalType": "uint256",
          "name": "id",
          "type": "uint256"
        }
      ],
      "name": "Transfer",
      "type": "event"
    },
    {
      "inputs": [
        {
          "internalType": "address",
          "name": "spender",
          "type": "address"
        },
        {
          "internalType": "uint256",
          "name": "id",
          "type": "uint256"
        }
      ],
      "name": "approve",
      "outputs": [],
      "stateMutability": "nonpayable",
      "type": "function"
    },
    {
      "inputs": [
        {
          "internalType": "address",
          "name": "owner",
          "type": "address"
        }
      ],
      "name": "balanceOf",
      "outputs": [
        {
          "internalType": "uint256",
          "name": "",
          "type": "uint256"
        }
      ],
      "stateMutability": "view",
      "type": "function"
    },
    {
      "inputs": [
        {
          "internalType": "address",
          "name": "",
          "type": "address"
        }
      ],
      "name": "cancellableBalances",
      "outputs": [
        {
          "internalType": "uint256",
          "name": "",
          "type": "uint256"
        }
      ],
      "stateMutability": "view",
      "type": "function"
    },
    {
      "inputs": [],
      "name": "cfaV1",
      "outputs": [
        {
          "internalType": "contract ISuperfluid",
          "name": "host",
          "type": "address"
        },
        {
          "internalType": "contract IConstantFlowAgreementV1",
          "name": "cfa",
          "type": "address"
        }
      ],
      "stateMutability": "view",
      "type": "function"
    },
    {
      "inputs": [
        {
          "internalType": "uint256",
          "name": "_tokenId",
          "type": "uint256"
        },
        {
          "internalType": "address",
          "name": "_recruiter",
          "type": "address"
        },
        {
          "internalType": "address",
          "name": "_contractor",
          "type": "address"
        }
      ],
      "name": "claimTask",
      "outputs": [],
      "stateMutability": "nonpayable",
      "type": "function"
    },
    {
      "inputs": [
        {
          "internalType": "uint256",
          "name": "_tokenId",
          "type": "uint256"
        }
      ],
      "name": "closeTask",
      "outputs": [],
      "stateMutability": "nonpayable",
      "type": "function"
    },
    {
      "inputs": [],
      "name": "currentTokenId",
      "outputs": [
        {
          "internalType": "uint256",
          "name": "",
          "type": "uint256"
        }
      ],
      "stateMutability": "view",
      "type": "function"
    },
    {
      "inputs": [
        {
          "internalType": "address",
          "name": "",
          "type": "address"
        }
      ],
      "name": "escrowedBalances",
      "outputs": [
        {
          "internalType": "uint256",
          "name": "",
          "type": "uint256"
        }
      ],
      "stateMutability": "view",
      "type": "function"
    },
    {
      "inputs": [
        {
          "internalType": "uint256",
          "name": "",
          "type": "uint256"
        }
      ],
      "name": "getApproved",
      "outputs": [
        {
          "internalType": "address",
          "name": "",
          "type": "address"
        }
      ],
      "stateMutability": "view",
      "type": "function"
    },
    {
      "inputs": [
        {
          "internalType": "address",
          "name": "",
          "type": "address"
        },
        {
          "internalType": "address",
          "name": "",
          "type": "address"
        }
      ],
      "name": "isApprovedForAll",
      "outputs": [
        {
          "internalType": "bool",
          "name": "",
          "type": "bool"
        }
      ],
      "stateMutability": "view",
      "type": "function"
    },
    {
      "inputs": [
        {
          "internalType": "address",
          "name": "_employer",
          "type": "address"
        },
        {
          "internalType": "address",
          "name": "_creator",
          "type": "address"
        },
        {
          "internalType": "uint256",
          "name": "_creatorBounty",
          "type": "uint256"
        },
        {
          "internalType": "uint256",
          "name": "_contractorBounty",
          "type": "uint256"
        },
        {
          "internalType": "uint256",
          "name": "_recruiterBounty",
          "type": "uint256"
        },
        {
          "internalType": "uint256",
          "name": "_deadline",
          "type": "uint256"
        },
        {
          "internalType": "uint256",
          "name": "_minBalance",
          "type": "uint256"
        },
        {
          "internalType": "uint256",
          "name": "_minEdu",
          "type": "uint256"
        },
        {
          "internalType": "string",
          "name": "_tokenURI",
          "type": "string"
        }
      ],
      "name": "mintTask",
      "outputs": [],
      "stateMutability": "payable",
      "type": "function"
    },
    {
      "inputs": [],
      "name": "name",
      "outputs": [
        {
          "internalType": "string",
          "name": "",
          "type": "string"
        }
      ],
      "stateMutability": "view",
      "type": "function"
    },
    {
      "inputs": [
        {
          "internalType": "uint256",
          "name": "id",
          "type": "uint256"
        }
      ],
      "name": "ownerOf",
      "outputs": [
        {
          "internalType": "address",
          "name": "owner",
          "type": "address"
        }
      ],
      "stateMutability": "view",
      "type": "function"
    },
    {
      "inputs": [
        {
          "internalType": "address",
          "name": "from",
          "type": "address"
        },
        {
          "internalType": "address",
          "name": "to",
          "type": "address"
        },
        {
          "internalType": "uint256",
          "name": "id",
          "type": "uint256"
        }
      ],
      "name": "safeTransferFrom",
      "outputs": [],
      "stateMutability": "nonpayable",
      "type": "function"
    },
    {
      "inputs": [
        {
          "internalType": "address",
          "name": "from",
          "type": "address"
        },
        {
          "internalType": "address",
          "name": "to",
          "type": "address"
        },
        {
          "internalType": "uint256",
          "name": "id",
          "type": "uint256"
        },
        {
          "internalType": "bytes",
          "name": "data",
          "type": "bytes"
        }
      ],
      "name": "safeTransferFrom",
      "outputs": [],
      "stateMutability": "nonpayable",
      "type": "function"
    },
    {
      "inputs": [
        {
          "internalType": "address",
          "name": "operator",
          "type": "address"
        },
        {
          "internalType": "bool",
          "name": "approved",
          "type": "bool"
        }
      ],
      "name": "setApprovalForAll",
      "outputs": [],
      "stateMutability": "nonpayable",
      "type": "function"
    },
    {
      "inputs": [
        {
          "internalType": "bytes4",
          "name": "interfaceId",
          "type": "bytes4"
        }
      ],
      "name": "supportsInterface",
      "outputs": [
        {
          "internalType": "bool",
          "name": "",
          "type": "bool"
        }
      ],
      "stateMutability": "view",
      "type": "function"
    },
    {
      "inputs": [],
      "name": "symbol",
      "outputs": [
        {
          "internalType": "string",
          "name": "",
          "type": "string"
        }
      ],
      "stateMutability": "view",
      "type": "function"
    },
    {
      "inputs": [
        {
          "internalType": "uint256",
          "name": "",
          "type": "uint256"
        }
      ],
      "name": "tasks",
      "outputs": [
        {
          "internalType": "address",
          "name": "employer",
          "type": "address"
        },
        {
          "internalType": "address",
          "name": "creator",
          "type": "address"
        },
        {
          "internalType": "uint256",
          "name": "creatorBounty",
          "type": "uint256"
        },
        {
          "internalType": "uint256",
          "name": "contractorBounty",
          "type": "uint256"
        },
        {
          "internalType": "uint256",
          "name": "recruiterBounty",
          "type": "uint256"
        },
        {
          "internalType": "uint256",
          "name": "deadline",
          "type": "uint256"
        },
        {
          "internalType": "string",
          "name": "tokenURI",
          "type": "string"
        },
        {
          "internalType": "enum Uplift.Status",
          "name": "status",
          "type": "uint8"
        },
        {
          "internalType": "address",
          "name": "recruiter",
          "type": "address"
        },
        {
          "internalType": "address",
          "name": "contractor",
          "type": "address"
        },
        {
          "internalType": "uint256",
          "name": "minBalance",
          "type": "uint256"
        },
        {
          "internalType": "uint256",
          "name": "minEdu",
          "type": "uint256"
        }
      ],
      "stateMutability": "view",
      "type": "function"
    },
    {
      "inputs": [
        {
          "internalType": "uint256",
          "name": "id",
          "type": "uint256"
        }
      ],
      "name": "tokenURI",
      "outputs": [
        {
          "internalType": "string",
          "name": "",
          "type": "string"
        }
      ],
      "stateMutability": "view",
      "type": "function"
    },
    {
      "inputs": [
        {
          "internalType": "address",
          "name": "",
          "type": "address"
        },
        {
          "internalType": "address",
          "name": "",
          "type": "address"
        },
        {
          "internalType": "uint256",
          "name": "",
          "type": "uint256"
        }
      ],
      "name": "transferFrom",
      "outputs": [],
      "stateMutability": "pure",
      "type": "function"
    },
    {
      "inputs": [
        {
          "internalType": "address",
          "name": "",
          "type": "address"
        }
      ],
      "name": "withdrawableBalances",
      "outputs": [
        {
          "internalType": "uint256",
          "name": "",
          "type": "uint256"
        }
      ],
      "stateMutability": "view",
      "type": "function"
    }
  ],
  "bytecode": {
    "object": "0x60806040523480156200001157600080fd5b506040516200201d3803806200201d83398101604081905262000034916200024f565b6040805180820182526006815265155c1b1a599d60d21b6020808301918252835180850190945260048452631312519560e21b9084015281519192916200007e9160009162000190565b5080516200009490600190602084019062000190565b5050600980546001600160a01b0319166001600160a01b03858116919091179091556040805180820182529184168083529051635b69006f60e11b81527fa9214cc96615e0085d3bb077758db69497dc2dce3b2b1e97bc93c3d18d83efd36004820152919250602083019163b6d200de90602401602060405180830381865afa15801562000126573d6000803e3d6000fd5b505050506040513d601f19601f820116820180604052508101906200014c91906200028e565b6001600160a01b039081169091528151600780546001600160a01b031990811692841692909217905560209092015160088054909316911617905550620002f19050565b8280546200019e90620002b5565b90600052602060002090601f016020900481019282620001c257600085556200020d565b82601f10620001dd57805160ff19168380011785556200020d565b828001600101855582156200020d579182015b828111156200020d578251825591602001919060010190620001f0565b506200021b9291506200021f565b5090565b5b808211156200021b576000815560010162000220565b6001600160a01b03811681146200024c57600080fd5b50565b600080604083850312156200026357600080fd5b8251620002708162000236565b6020840151909250620002838162000236565b809150509250929050565b600060208284031215620002a157600080fd5b8151620002ae8162000236565b9392505050565b600181811c90821680620002ca57607f821691505b602082108103620002eb57634e487b7160e01b600052602260045260246000fd5b50919050565b611d1c80620003016000396000f3fe6080604052600436106101345760003560e01c806370a08231116100ab578063c87b56dd1161006f578063c87b56dd146103ab578063d3112b2e146103cb578063d6074aba14610412578063e600c3511461043f578063e985e9c514610452578063fc05b2e81461048d57600080fd5b806370a08231146102fe5780638d9776721461031e57806395d89b4114610356578063a22cb4651461036b578063b88d4fde1461038b57600080fd5b80631201dfc6116100fd5780631201dfc61461022457806323b872dd146102445780632b576f4e1461026457806342842e0e146102915780635ff2bc91146102b15780636352211e146102de57600080fd5b80629a9b7b1461013957806301ffc9a71461016257806306fdde0314610192578063081812fc146101b4578063095ea7b314610202575b600080fd5b34801561014557600080fd5b5061014f60065481565b6040519081526020015b60405180910390f35b34801561016e57600080fd5b5061018261017d36600461179f565b6104ad565b6040519015158152602001610159565b34801561019e57600080fd5b506101a76104ff565b6040516101599190611810565b3480156101c057600080fd5b506101ea6101cf366004611823565b6004602052600090815260409020546001600160a01b031681565b6040516001600160a01b039091168152602001610159565b34801561020e57600080fd5b5061022261021d366004611853565b61058d565b005b34801561023057600080fd5b5061022261023f366004611823565b610674565b34801561025057600080fd5b5061022261025f36600461187d565b610a06565b34801561027057600080fd5b5061014f61027f3660046118b9565b600c6020526000908152604090205481565b34801561029d57600080fd5b506102226102ac36600461187d565b610a1f565b3480156102bd57600080fd5b5061014f6102cc3660046118b9565b600d6020526000908152604090205481565b3480156102ea57600080fd5b506101ea6102f9366004611823565b610af4565b34801561030a57600080fd5b5061014f6103193660046118b9565b610b4b565b34801561032a57600080fd5b5061033e610339366004611823565b610bae565b6040516101599c9b9a999897969594939291906118ea565b34801561036257600080fd5b506101a7610cb2565b34801561037757600080fd5b50610222610386366004611997565b610cbf565b34801561039757600080fd5b506102226103a6366004611a1c565b610d2b565b3480156103b757600080fd5b506101a76103c6366004611823565b610df0565b3480156103d757600080fd5b506007546008546103f2916001600160a01b03908116911682565b604080516001600160a01b03938416815292909116602083015201610159565b34801561041e57600080fd5b5061014f61042d3660046118b9565b600b6020526000908152604090205481565b61022261044d366004611a8b565b610dfb565b34801561045e57600080fd5b5061018261046d366004611b2e565b600560209081526000928352604080842090915290825290205460ff1681565b34801561049957600080fd5b506102226104a8366004611b61565b611034565b60006301ffc9a760e01b6001600160e01b0319831614806104de57506380ac58cd60e01b6001600160e01b03198316145b806104f95750635b5e139f60e01b6001600160e01b03198316145b92915050565b6000805461050c90611b9d565b80601f016020809104026020016040519081016040528092919081815260200182805461053890611b9d565b80156105855780601f1061055a57610100808354040283529160200191610585565b820191906000526020600020905b81548152906001019060200180831161056857829003601f168201915b505050505081565b6000818152600260205260409020546001600160a01b0316338114806105d657506001600160a01b038116600090815260056020908152604080832033845290915290205460ff165b6106185760405162461bcd60e51b815260206004820152600e60248201526d1393d517d055551213d49256915160921b60448201526064015b60405180910390fd5b60008281526004602052604080822080546001600160a01b0319166001600160a01b0387811691821790925591518593918516917f8c5be1e5ebec7d5bd14f71427d1e84f3dd0314c0f7b2291e5b200ac8c7c3b92591a4505050565b6000818152600260205260408120546001600160a01b0316151590036106ad57604051632d14777560e11b815260040160405180910390fd5b6000818152600a6020908152604080832081516101808101835281546001600160a01b039081168252600183015416938101939093526002810154918301919091526003810154606083015260048101546080830152600581015460a083015260068101805460c08401919061072290611b9d565b80601f016020809104026020016040519081016040528092919081815260200182805461074e90611b9d565b801561079b5780601f106107705761010080835404028352916020019161079b565b820191906000526020600020905b81548152906001019060200180831161077e57829003601f168201915b5050509183525050600782015460209091019060ff1660028111156107c2576107c26118d4565b60028111156107d3576107d36118d4565b815260078201546001600160a01b0361010090910481166020830152600883015416604082015260098201546060820152600a90910154608090910152905060016000838152600a602052604090206007015460ff16600281111561083a5761083a6118d4565b146108585760405163075802eb60e01b815260040160405180910390fd5b6101208101516001600160a01b031633146108865760405163be24598360e01b815260040160405180910390fd5b60008160800151826060015161089c9190611bed565b82516001600160a01b03166000908152600b60205260408120805492935083929091906108ca908490611c05565b909155505060608201516101208301516001600160a01b03166000908152600c602052604081208054909190610901908490611bed565b909155505060808201516101008301516001600160a01b03166000908152600c602052604081208054909190610938908490611bed565b9091555050600260e0830181905282516001600160a01b039081166000908152600360209081526040808320805460001901905561012087018051851684528184208054600101905580518985529590925280832080546001600160a01b03191695851695909517909455518551935187949184169391909116917fddf252ad1be2c89b69c2b068fc378daa952ba7f163c4a11628f55a4df523b3ef91a460405183907f91dfc924b25cd3a750912075cf0e6bed2235ec6eca305e91b6124d90bf411b2590600090a2505050565b6040516358b2164f60e11b815260040160405180910390fd5b610a2a838383610a06565b6001600160a01b0382163b1580610ad35750604051630a85bd0160e11b8082523360048301526001600160a01b03858116602484015260448301849052608060648401526000608484015290919084169063150b7a029060a4016020604051808303816000875af1158015610aa3573d6000803e3d6000fd5b505050506040513d601f19601f82011682018060405250810190610ac79190611c1c565b6001600160e01b031916145b610aef5760405162461bcd60e51b815260040161060f90611c39565b505050565b6000818152600260205260409020546001600160a01b031680610b465760405162461bcd60e51b815260206004820152600a6024820152691393d517d3525395115160b21b604482015260640161060f565b919050565b60006001600160a01b038216610b925760405162461bcd60e51b815260206004820152600c60248201526b5a45524f5f4144445245535360a01b604482015260640161060f565b506001600160a01b031660009081526003602052604090205490565b600a6020526000908152604090208054600182015460028301546003840154600485015460058601546006870180546001600160a01b039788169896909716969495939492939192610bff90611b9d565b80601f0160208091040260200160405190810160405280929190818152602001828054610c2b90611b9d565b8015610c785780601f10610c4d57610100808354040283529160200191610c78565b820191906000526020600020905b815481529060010190602001808311610c5b57829003601f168201915b505050600784015460088501546009860154600a90960154949560ff8316956001600160a01b03610100909404841695509190921692508c565b6001805461050c90611b9d565b3360008181526005602090815260408083206001600160a01b03871680855290835292819020805460ff191686151590811790915590519081529192917f17307eab39ab6107e8899845ad3d59bd9653f200f220920489ca2b5937696c31910160405180910390a35050565b610d36858585610a06565b6001600160a01b0384163b1580610dcd5750604051630a85bd0160e11b808252906001600160a01b0386169063150b7a0290610d7e9033908a90899089908990600401611c63565b6020604051808303816000875af1158015610d9d573d6000803e3d6000fd5b505050506040513d601f19601f82011682018060405250810190610dc19190611c1c565b6001600160e01b031916145b610de95760405162461bcd60e51b815260040161060f90611c39565b5050505050565b60606104f9826113a7565b85610e06888a611bed565b610e109190611bed565b3414610e2f57604051637832e81760e01b815260040160405180910390fd5b6040518061018001604052808b6001600160a01b031681526020018a6001600160a01b0316815260200189815260200188815260200187815260200186815260200183838080601f0160208091040260200160405190810160405280939291908181526020018383808284376000920182905250938552505060209092019150815260006020808301829052604080840183905260608085018a90526080948501899052600680548552600a845293829020865181546001600160a01b039182166001600160a01b031991821617835588860151600184018054919093169116179055918601516002830155850151600382015592840151600484015560a0840151600584015560c08401518051610f4e9385019291909101906116ed565b5060e082015160078201805460ff19166001836002811115610f7257610f726118d4565b021790555061010082810151600783018054610100600160a81b0319166001600160a01b03928316909302929092179091556101208301516008830180546001600160a01b031916918316919091179055610140830151600983015561016090920151600a9091015589166000908152600c60205260409020889055610ff88688611bed565b6001600160a01b038b166000908152600d602052604090205560065461101f908b9061143a565b50506006805460010190555050505050505050565b6000838152600260205260408120546001600160a01b03161515900361106d57604051632d14777560e11b815260040160405180910390fd5b6000838152600a602052604081206007015460ff166002811115611093576110936118d4565b146110b15760405163075802eb60e01b815260040160405180910390fd5b6000838152600a6020908152604080832081516101808101835281546001600160a01b039081168252600183015416938101939093526002810154918301919091526003810154606083015260048101546080830152600581015460a083015260068101805460c08401919061112690611b9d565b80601f016020809104026020016040519081016040528092919081815260200182805461115290611b9d565b801561119f5780601f106111745761010080835404028352916020019161119f565b820191906000526020600020905b81548152906001019060200180831161118257829003601f168201915b5050509183525050600782015460209091019060ff1660028111156111c6576111c66118d4565b60028111156111d7576111d76118d4565b815260078201546001600160a01b0361010090910481166020830152600883015416604082015260098201546060820152600a9091015460809091015261014081015190915061122633610b4b565b10156112455760405163be24598360e01b815260040160405180910390fd5b6101608101516009546040516370a0823160e01b81523360048201526001600160a01b03909116906370a0823190602401602060405180830381865afa158015611293573d6000803e3d6000fd5b505050506040513d601f19601f820116820180604052508101906112b79190611cb7565b10156112d65760405163ab654faf60e01b815260040160405180910390fd5b6000816080015182606001516112ec9190611bed565b82516001600160a01b03166000908152600d602052604081208054929350839290919061131a908490611c05565b909155505081516001600160a01b03166000908152600b602052604081208054839290611348908490611bed565b90915550506001600160a01b0383811661012084018190529085166101008401819052600160e085015260405190919087907f3d6f754563e688abf06d08b529d2ee17ef5b7fcc177cd9dc1471a5f5efca69dc90600090a45050505050565b606060006113b48361150a565b600101905060008167ffffffffffffffff8111156113d4576113d4611cd0565b6040519080825280601f01601f1916602001820160405280156113fe576020820181803683370190505b5090508181016020015b600019016f181899199a1a9b1b9c1cb0b131b232b360811b600a86061a8153600a850494508461140857509392505050565b61144482826115e2565b6001600160a01b0382163b15806114ea5750604051630a85bd0160e11b80825233600483015260006024830181905260448301849052608060648401526084830152906001600160a01b0384169063150b7a029060a4016020604051808303816000875af11580156114ba573d6000803e3d6000fd5b505050506040513d601f19601f820116820180604052508101906114de9190611c1c565b6001600160e01b031916145b6115065760405162461bcd60e51b815260040161060f90611c39565b5050565b60008072184f03e93ff9f4daa797ed6e38ed64bf6a1f0160401b83106115495772184f03e93ff9f4daa797ed6e38ed64bf6a1f0160401b830492506040015b6d04ee2d6d415b85acef81000000008310611575576d04ee2d6d415b85acef8100000000830492506020015b662386f26fc10000831061159357662386f26fc10000830492506010015b6305f5e10083106115ab576305f5e100830492506008015b61271083106115bf57612710830492506004015b606483106115d1576064830492506002015b600a83106104f95760010192915050565b6001600160a01b03821661162c5760405162461bcd60e51b81526020600482015260116024820152701253959053125117d49150d25412515395607a1b604482015260640161060f565b6000818152600260205260409020546001600160a01b0316156116825760405162461bcd60e51b815260206004820152600e60248201526d1053149150511657d3525395115160921b604482015260640161060f565b6001600160a01b038216600081815260036020908152604080832080546001019055848352600290915280822080546001600160a01b0319168417905551839291907fddf252ad1be2c89b69c2b068fc378daa952ba7f163c4a11628f55a4df523b3ef908290a45050565b8280546116f990611b9d565b90600052602060002090601f01602090048101928261171b5760008555611761565b82601f1061173457805160ff1916838001178555611761565b82800160010185558215611761579182015b82811115611761578251825591602001919060010190611746565b5061176d929150611771565b5090565b5b8082111561176d5760008155600101611772565b6001600160e01b03198116811461179c57600080fd5b50565b6000602082840312156117b157600080fd5b81356117bc81611786565b9392505050565b6000815180845260005b818110156117e9576020818501810151868301820152016117cd565b818111156117fb576000602083870101525b50601f01601f19169290920160200192915050565b6020815260006117bc60208301846117c3565b60006020828403121561183557600080fd5b5035919050565b80356001600160a01b0381168114610b4657600080fd5b6000806040838503121561186657600080fd5b61186f8361183c565b946020939093013593505050565b60008060006060848603121561189257600080fd5b61189b8461183c565b92506118a96020850161183c565b9150604084013590509250925092565b6000602082840312156118cb57600080fd5b6117bc8261183c565b634e487b7160e01b600052602160045260246000fd5b600060018060a01b03808f168352808e166020840152508b60408301528a60608301528960808301528860a083015261018060c083015261192f6101808301896117c3565b90506003871061194f57634e487b7160e01b600052602160045260246000fd5b8660e083015261196b6101008301876001600160a01b03169052565b6001600160a01b03851661012083015261014082019390935261016001529a9950505050505050505050565b600080604083850312156119aa57600080fd5b6119b38361183c565b9150602083013580151581146119c857600080fd5b809150509250929050565b60008083601f8401126119e557600080fd5b50813567ffffffffffffffff8111156119fd57600080fd5b602083019150836020828501011115611a1557600080fd5b9250929050565b600080600080600060808688031215611a3457600080fd5b611a3d8661183c565b9450611a4b6020870161183c565b935060408601359250606086013567ffffffffffffffff811115611a6e57600080fd5b611a7a888289016119d3565b969995985093965092949392505050565b6000806000806000806000806000806101208b8d031215611aab57600080fd5b611ab48b61183c565b9950611ac260208c0161183c565b985060408b0135975060608b0135965060808b0135955060a08b0135945060c08b0135935060e08b013592506101008b013567ffffffffffffffff811115611b0957600080fd5b611b158d828e016119d3565b915080935050809150509295989b9194979a5092959850565b60008060408385031215611b4157600080fd5b611b4a8361183c565b9150611b586020840161183c565b90509250929050565b600080600060608486031215611b7657600080fd5b83359250611b866020850161183c565b9150611b946040850161183c565b90509250925092565b600181811c90821680611bb157607f821691505b602082108103611bd157634e487b7160e01b600052602260045260246000fd5b50919050565b634e487b7160e01b600052601160045260246000fd5b60008219821115611c0057611c00611bd7565b500190565b600082821015611c1757611c17611bd7565b500390565b600060208284031215611c2e57600080fd5b81516117bc81611786565b60208082526010908201526f155394d0519157d49150d2541251539560821b604082015260600190565b6001600160a01b038681168252851660208201526040810184905260806060820181905281018290526000828460a0840137600060a0848401015260a0601f19601f85011683010190509695505050505050565b600060208284031215611cc957600080fd5b5051919050565b634e487b7160e01b600052604160045260246000fdfea2646970667358221220cac2967fae0c59aa5aaac5191f64d83d96ddc5e64dce5a36edc2e72fc6f9b82a64736f6c634300080d0033",
    "linkReferences": {}
  },
  "methodIdentifiers": {
    "approve(address,uint256)": "095ea7b3",
    "balanceOf(address)": "70a08231",
    "cancellableBalances(address)": "5ff2bc91",
    "cfaV1()": "d3112b2e",
    "claimTask(uint256,address,address)": "fc05b2e8",
    "closeTask(uint256)": "1201dfc6",
    "currentTokenId()": "009a9b7b",
    "escrowedBalances(address)": "d6074aba",
    "getApproved(uint256)": "081812fc",
    "isApprovedForAll(address,address)": "e985e9c5",
    "mintTask(address,address,uint256,uint256,uint256,uint256,uint256,uint256,string)": "e600c351",
    "name()": "06fdde03",
    "ownerOf(uint256)": "6352211e",
    "safeTransferFrom(address,address,uint256)": "42842e0e",
    "safeTransferFrom(address,address,uint256,bytes)": "b88d4fde",
    "setApprovalForAll(address,bool)": "a22cb465",
    "supportsInterface(bytes4)": "01ffc9a7",
    "symbol()": "95d89b41",
    "tasks(uint256)": "8d977672",
    "tokenURI(uint256)": "c87b56dd",
    "transferFrom(address,address,uint256)": "23b872dd",
    "withdrawableBalances(address)": "2b576f4e"
  },
  "id": 18
}