{
  "abi": [
    {
      "inputs": [
        {
          "internalType": "address",
          "name": "_edu_address",
          "type": "address"
        },
        {
          "internalType": "contract ISuperfluid",
          "name": "host",
          "type": "address"
        }
      ],
      "stateMutability": "nonpayable",
      "type": "constructor"
    },
    {
      "inputs": [],
      "name": "IncompatableStatus",
      "type": "error"
    },
    {
      "inputs": [],
      "name": "IncorrectEDU",
      "type": "error"
    },
    {
      "inputs": [],
      "name": "IncorrectFunds",
      "type": "error"
    },
    {
      "inputs": [],
      "name": "InsufficientEDU",
      "type": "error"
    },
    {
      "inputs": [],
      "name": "NonExistantTask",
      "type": "error"
    },
    {
      "inputs": [],
      "name": "NotEnoughWorkHistory",
      "type": "error"
    },
    {
      "inputs": [],
      "name": "TokenIsSoulbound",
      "type": "error"
    },
    {
      "inputs": [],
      "name": "UnAuthorized",
      "type": "error"
    },
    {
      "anonymous": false,
      "inputs": [
        {
          "indexed": true,
          "internalType": "address",
          "name": "owner",
          "type": "address"
        },
        {
          "indexed": true,
          "internalType": "address",
          "name": "spender",
          "type": "address"
        },
        {
          "indexed": true,
          "internalType": "uint256",
          "name": "id",
          "type": "uint256"
        }
      ],
      "name": "Approval",
      "type": "event"
    },
    {
      "anonymous": false,
      "inputs": [
        {
          "indexed": true,
          "internalType": "address",
          "name": "owner",
          "type": "address"
        },
        {
          "indexed": true,
          "internalType": "address",
          "name": "operator",
          "type": "address"
        },
        {
          "indexed": false,
          "internalType": "bool",
          "name": "approved",
          "type": "bool"
        }
      ],
      "name": "ApprovalForAll",
      "type": "event"
    },
    {
      "anonymous": false,
      "inputs": [
        {
          "indexed": true,
          "internalType": "address",
          "name": "contractor",
          "type": "address"
        },
        {
          "indexed": false,
          "internalType": "int96",
          "name": "flow",
          "type": "int96"
        }
      ],
      "name": "StreamUpdated",
      "type": "event"
    },
    {
      "anonymous": false,
      "inputs": [
        {
          "indexed": true,
          "internalType": "uint256",
          "name": "tokenId",
          "type": "uint256"
        }
      ],
      "name": "TaskCancelled",
      "type": "event"
    },
    {
      "anonymous": false,
      "inputs": [
        {
          "indexed": true,
          "internalType": "uint256",
          "name": "tokenId",
          "type": "uint256"
        },
        {
          "indexed": true,
          "internalType": "address",
          "name": "contractor",
          "type": "address"
        },
        {
          "indexed": true,
          "internalType": "address",
          "name": "recruiter",
          "type": "address"
        }
      ],
      "name": "TaskClaimed",
      "type": "event"
    },
    {
      "anonymous": false,
      "inputs": [
        {
          "indexed": true,
          "internalType": "uint256",
          "name": "tokenId",
          "type": "uint256"
        }
      ],
      "name": "TaskClosed",
      "type": "event"
    },
    {
      "anonymous": false,
      "inputs": [
        {
          "indexed": true,
          "internalType": "uint256",
          "name": "tokenId",
          "type": "uint256"
        }
      ],
      "name": "TaskUnclaimed",
      "type": "event"
    },
    {
      "anonymous": false,
      "inputs": [
        {
          "indexed": true,
          "internalType": "address",
          "name": "from",
          "type": "address"
        },
        {
          "indexed": true,
          "internalType": "address",
          "name": "to",
          "type": "address"
        },
        {
          "indexed": true,
          "internalType": "uint256",
          "name": "id",
          "type": "uint256"
        }
      ],
      "name": "Transfer",
      "type": "event"
    },
    {
      "inputs": [
        {
          "internalType": "address",
          "name": "spender",
          "type": "address"
        },
        {
          "internalType": "uint256",
          "name": "id",
          "type": "uint256"
        }
      ],
      "name": "approve",
      "outputs": [],
      "stateMutability": "nonpayable",
      "type": "function"
    },
    {
      "inputs": [
        {
          "internalType": "address",
          "name": "owner",
          "type": "address"
        }
      ],
      "name": "balanceOf",
      "outputs": [
        {
          "internalType": "uint256",
          "name": "",
          "type": "uint256"
        }
      ],
      "stateMutability": "view",
      "type": "function"
    },
    {
      "inputs": [
        {
          "internalType": "address",
          "name": "",
          "type": "address"
        }
      ],
      "name": "cancellableBalances",
      "outputs": [
        {
          "internalType": "uint256",
          "name": "",
          "type": "uint256"
        }
      ],
      "stateMutability": "view",
      "type": "function"
    },
    {
      "inputs": [],
      "name": "cfaV1",
      "outputs": [
        {
          "internalType": "contract ISuperfluid",
          "name": "host",
          "type": "address"
        },
        {
          "internalType": "contract IConstantFlowAgreementV1",
          "name": "cfa",
          "type": "address"
        }
      ],
      "stateMutability": "view",
      "type": "function"
    },
    {
      "inputs": [
        {
          "internalType": "address",
          "name": "user",
          "type": "address"
        }
      ],
      "name": "claimSalary",
      "outputs": [],
      "stateMutability": "nonpayable",
      "type": "function"
    },
    {
      "inputs": [
        {
          "internalType": "uint256",
          "name": "_tokenId",
          "type": "uint256"
        },
        {
          "internalType": "address",
          "name": "_recruiter",
          "type": "address"
        },
        {
          "internalType": "address",
          "name": "_contractor",
          "type": "address"
        }
      ],
      "name": "claimTask",
      "outputs": [],
      "stateMutability": "nonpayable",
      "type": "function"
    },
    {
      "inputs": [
        {
          "internalType": "uint256",
          "name": "_tokenId",
          "type": "uint256"
        }
      ],
      "name": "closeTask",
      "outputs": [],
      "stateMutability": "nonpayable",
      "type": "function"
    },
    {
      "inputs": [],
      "name": "currentTokenId",
      "outputs": [
        {
          "internalType": "uint256",
          "name": "",
          "type": "uint256"
        }
      ],
      "stateMutability": "view",
      "type": "function"
    },
    {
      "inputs": [
        {
          "internalType": "address",
          "name": "",
          "type": "address"
        }
      ],
      "name": "escrowedBalances",
      "outputs": [
        {
          "internalType": "uint256",
          "name": "",
          "type": "uint256"
        }
      ],
      "stateMutability": "view",
      "type": "function"
    },
    {
      "inputs": [
        {
          "internalType": "uint256",
          "name": "",
          "type": "uint256"
        }
      ],
      "name": "getApproved",
      "outputs": [
        {
          "internalType": "address",
          "name": "",
          "type": "address"
        }
      ],
      "stateMutability": "view",
      "type": "function"
    },
    {
      "inputs": [
        {
          "internalType": "uint256",
          "name": "_tokenId",
          "type": "uint256"
        }
      ],
      "name": "getTask",
      "outputs": [
        {
          "components": [
            {
              "internalType": "address",
              "name": "employer",
              "type": "address"
            },
            {
              "internalType": "address",
              "name": "creator",
              "type": "address"
            },
            {
              "internalType": "uint256",
              "name": "creatorBounty",
              "type": "uint256"
            },
            {
              "internalType": "uint256",
              "name": "contractorBounty",
              "type": "uint256"
            },
            {
              "internalType": "uint256",
              "name": "recruiterBounty",
              "type": "uint256"
            },
            {
              "internalType": "uint256",
              "name": "deadline",
              "type": "uint256"
            },
            {
              "internalType": "string",
              "name": "tokenURI",
              "type": "string"
            },
            {
              "internalType": "string",
              "name": "name",
              "type": "string"
            },
            {
              "internalType": "enum Uplift.Status",
              "name": "status",
              "type": "uint8"
            },
            {
              "internalType": "address",
              "name": "recruiter",
              "type": "address"
            },
            {
              "internalType": "address",
              "name": "contractor",
              "type": "address"
            },
            {
              "internalType": "uint256",
              "name": "minBalance",
              "type": "uint256"
            },
            {
              "internalType": "uint256",
              "name": "minEdu",
              "type": "uint256"
            }
          ],
          "internalType": "struct Uplift.Task",
          "name": "",
          "type": "tuple"
        }
      ],
      "stateMutability": "view",
      "type": "function"
    },
    {
      "inputs": [
        {
          "internalType": "address",
          "name": "",
          "type": "address"
        }
      ],
      "name": "incomeStates",
      "outputs": [
        {
          "internalType": "uint256",
          "name": "",
          "type": "uint256"
        }
      ],
      "stateMutability": "view",
      "type": "function"
    },
    {
      "inputs": [
        {
          "internalType": "address",
          "name": "",
          "type": "address"
        },
        {
          "internalType": "address",
          "name": "",
          "type": "address"
        }
      ],
      "name": "isApprovedForAll",
      "outputs": [
        {
          "internalType": "bool",
          "name": "",
          "type": "bool"
        }
      ],
      "stateMutability": "view",
      "type": "function"
    },
    {
      "inputs": [
        {
          "internalType": "address",
          "name": "_employer",
          "type": "address"
        },
        {
          "internalType": "address",
          "name": "_creator",
          "type": "address"
        },
        {
          "internalType": "uint256",
          "name": "_creatorBounty",
          "type": "uint256"
        },
        {
          "internalType": "uint256",
          "name": "_contractorBounty",
          "type": "uint256"
        },
        {
          "internalType": "uint256",
          "name": "_recruiterBounty",
          "type": "uint256"
        },
        {
          "internalType": "uint256",
          "name": "_deadline",
          "type": "uint256"
        },
        {
          "internalType": "uint256",
          "name": "_minBalance",
          "type": "uint256"
        },
        {
          "internalType": "uint256",
          "name": "_minEdu",
          "type": "uint256"
        },
        {
          "internalType": "string",
          "name": "_name",
          "type": "string"
        },
        {
          "internalType": "string",
          "name": "_tokenURI",
          "type": "string"
        }
      ],
      "name": "mintTask",
      "outputs": [],
      "stateMutability": "payable",
      "type": "function"
    },
    {
      "inputs": [],
      "name": "name",
      "outputs": [
        {
          "internalType": "string",
          "name": "",
          "type": "string"
        }
      ],
      "stateMutability": "view",
      "type": "function"
    },
    {
      "inputs": [
        {
          "internalType": "uint256",
          "name": "id",
          "type": "uint256"
        }
      ],
      "name": "ownerOf",
      "outputs": [
        {
          "internalType": "address",
          "name": "owner",
          "type": "address"
        }
      ],
      "stateMutability": "view",
      "type": "function"
    },
    {
      "inputs": [
        {
          "internalType": "address",
          "name": "from",
          "type": "address"
        },
        {
          "internalType": "address",
          "name": "to",
          "type": "address"
        },
        {
          "internalType": "uint256",
          "name": "id",
          "type": "uint256"
        }
      ],
      "name": "safeTransferFrom",
      "outputs": [],
      "stateMutability": "nonpayable",
      "type": "function"
    },
    {
      "inputs": [
        {
          "internalType": "address",
          "name": "from",
          "type": "address"
        },
        {
          "internalType": "address",
          "name": "to",
          "type": "address"
        },
        {
          "internalType": "uint256",
          "name": "id",
          "type": "uint256"
        },
        {
          "internalType": "bytes",
          "name": "data",
          "type": "bytes"
        }
      ],
      "name": "safeTransferFrom",
      "outputs": [],
      "stateMutability": "nonpayable",
      "type": "function"
    },
    {
      "inputs": [
        {
          "internalType": "address",
          "name": "operator",
          "type": "address"
        },
        {
          "internalType": "bool",
          "name": "approved",
          "type": "bool"
        }
      ],
      "name": "setApprovalForAll",
      "outputs": [],
      "stateMutability": "nonpayable",
      "type": "function"
    },
    {
      "inputs": [
        {
          "internalType": "address",
          "name": "user",
          "type": "address"
        }
      ],
      "name": "stopSalary",
      "outputs": [],
      "stateMutability": "nonpayable",
      "type": "function"
    },
    {
      "inputs": [
        {
          "internalType": "bytes4",
          "name": "interfaceId",
          "type": "bytes4"
        }
      ],
      "name": "supportsInterface",
      "outputs": [
        {
          "internalType": "bool",
          "name": "",
          "type": "bool"
        }
      ],
      "stateMutability": "view",
      "type": "function"
    },
    {
      "inputs": [],
      "name": "symbol",
      "outputs": [
        {
          "internalType": "string",
          "name": "",
          "type": "string"
        }
      ],
      "stateMutability": "view",
      "type": "function"
    },
    {
      "inputs": [
        {
          "internalType": "uint256",
          "name": "",
          "type": "uint256"
        }
      ],
      "name": "tasks",
      "outputs": [
        {
          "internalType": "address",
          "name": "employer",
          "type": "address"
        },
        {
          "internalType": "address",
          "name": "creator",
          "type": "address"
        },
        {
          "internalType": "uint256",
          "name": "creatorBounty",
          "type": "uint256"
        },
        {
          "internalType": "uint256",
          "name": "contractorBounty",
          "type": "uint256"
        },
        {
          "internalType": "uint256",
          "name": "recruiterBounty",
          "type": "uint256"
        },
        {
          "internalType": "uint256",
          "name": "deadline",
          "type": "uint256"
        },
        {
          "internalType": "string",
          "name": "tokenURI",
          "type": "string"
        },
        {
          "internalType": "string",
          "name": "name",
          "type": "string"
        },
        {
          "internalType": "enum Uplift.Status",
          "name": "status",
          "type": "uint8"
        },
        {
          "internalType": "address",
          "name": "recruiter",
          "type": "address"
        },
        {
          "internalType": "address",
          "name": "contractor",
          "type": "address"
        },
        {
          "internalType": "uint256",
          "name": "minBalance",
          "type": "uint256"
        },
        {
          "internalType": "uint256",
          "name": "minEdu",
          "type": "uint256"
        }
      ],
      "stateMutability": "view",
      "type": "function"
    },
    {
      "inputs": [
        {
          "internalType": "uint256",
          "name": "id",
          "type": "uint256"
        }
      ],
      "name": "tokenURI",
      "outputs": [
        {
          "internalType": "string",
          "name": "",
          "type": "string"
        }
      ],
      "stateMutability": "view",
      "type": "function"
    },
    {
      "inputs": [
        {
          "internalType": "address",
          "name": "",
          "type": "address"
        },
        {
          "internalType": "address",
          "name": "",
          "type": "address"
        },
        {
          "internalType": "uint256",
          "name": "",
          "type": "uint256"
        }
      ],
      "name": "transferFrom",
      "outputs": [],
      "stateMutability": "pure",
      "type": "function"
    },
    {
      "inputs": [
        {
          "internalType": "address",
          "name": "",
          "type": "address"
        },
        {
          "internalType": "uint256",
          "name": "",
          "type": "uint256"
        }
      ],
      "name": "userCloseStamps",
      "outputs": [
        {
          "internalType": "uint256",
          "name": "",
          "type": "uint256"
        }
      ],
      "stateMutability": "view",
      "type": "function"
    },
    {
      "inputs": [
        {
          "internalType": "address",
          "name": "",
          "type": "address"
        }
      ],
      "name": "withdrawableBalances",
      "outputs": [
        {
          "internalType": "uint256",
          "name": "",
          "type": "uint256"
        }
      ],
      "stateMutability": "view",
      "type": "function"
    }
  ],
  "bytecode": {
    "object": "0x6080604052600780546001600160a01b031916735d8b4c2554aeb7e86f387b4d6c00ac33499ed01f1790553480156200003757600080fd5b5060405162002d7e38038062002d7e8339810160408190526200005a916200027f565b6040518060400160405280600581526020016453616c746f60d81b8152506040518060400160405280600581526020016453414c544f60d81b8152508160009080519060200190620000ae929190620001c0565b508051620000c4906001906020840190620001c0565b5050600a80546001600160a01b0319166001600160a01b03858116919091179091556040805180820182529184168083529051635b69006f60e11b81527fa9214cc96615e0085d3bb077758db69497dc2dce3b2b1e97bc93c3d18d83efd36004820152919250602083019163b6d200de90602401602060405180830381865afa15801562000156573d6000803e3d6000fd5b505050506040513d601f19601f820116820180604052508101906200017c9190620002be565b6001600160a01b039081169091528151600880546001600160a01b031990811692841692909217905560209092015160098054909316911617905550620003219050565b828054620001ce90620002e5565b90600052602060002090601f016020900481019282620001f257600085556200023d565b82601f106200020d57805160ff19168380011785556200023d565b828001600101855582156200023d579182015b828111156200023d57825182559160200191906001019062000220565b506200024b9291506200024f565b5090565b5b808211156200024b576000815560010162000250565b6001600160a01b03811681146200027c57600080fd5b50565b600080604083850312156200029357600080fd5b8251620002a08162000266565b6020840151909250620002b38162000266565b809150509250929050565b600060208284031215620002d157600080fd5b8151620002de8162000266565b9392505050565b600181811c90821680620002fa57607f821691505b6020821081036200031b57634e487b7160e01b600052602260045260246000fd5b50919050565b612a4d80620003316000396000f3fe60806040526004361061019b5760003560e01c80635ff2bc91116100ec578063c87b56dd1161008a578063e660bb0e11610064578063e660bb0e14610534578063e985e9c514610554578063ea3b0ea81461058f578063fc05b2e8146105af57600080fd5b8063c87b56dd146104a0578063d3112b2e146104c0578063d6074aba1461050757600080fd5b80638d977672116100c65780638d9776721461041257806395d89b411461044b578063a22cb46514610460578063b88d4fde1461048057600080fd5b80635ff2bc91146103a55780636352211e146103d257806370a08231146103f257600080fd5b80631d65e77e1161015957806323b872dd1161013357806323b872dd146103255780632b576f4e1461034557806342842e0e146103725780634cb88e971461039257600080fd5b80631d65e77e146102ab5780632036acd2146102d857806321f364b61461030557600080fd5b80629a9b7b146101a057806301ffc9a7146101c957806306fdde03146101f9578063081812fc1461021b578063095ea7b3146102695780631201dfc61461028b575b600080fd5b3480156101ac57600080fd5b506101b660065481565b6040519081526020015b60405180910390f35b3480156101d557600080fd5b506101e96101e4366004612195565b6105cf565b60405190151581526020016101c0565b34801561020557600080fd5b5061020e610621565b6040516101c09190612211565b34801561022757600080fd5b50610251610236366004612224565b6004602052600090815260409020546001600160a01b031681565b6040516001600160a01b0390911681526020016101c0565b34801561027557600080fd5b50610289610284366004612254565b6106af565b005b34801561029757600080fd5b506102896102a6366004612224565b610796565b3480156102b757600080fd5b506102cb6102c6366004612224565b610bb2565b6040516101c091906122b6565b3480156102e457600080fd5b506101b66102f33660046123bd565b600f6020526000908152604090205481565b34801561031157600080fd5b506101b6610320366004612254565b610db9565b34801561033157600080fd5b506102896103403660046123d8565b610dea565b34801561035157600080fd5b506101b66103603660046123bd565b600d6020526000908152604090205481565b34801561037e57600080fd5b5061028961038d3660046123d8565b610e03565b6102896103a0366004612522565b610ed8565b3480156103b157600080fd5b506101b66103c03660046123bd565b600e6020526000908152604090205481565b3480156103de57600080fd5b506102516103ed366004612224565b611132565b3480156103fe57600080fd5b506101b661040d3660046123bd565b611189565b34801561041e57600080fd5b5061043261042d366004612224565b6111ec565b6040516101c09d9c9b9a999897969594939291906125f1565b34801561045757600080fd5b5061020e61137e565b34801561046c57600080fd5b5061028961047b366004612693565b61138b565b34801561048c57600080fd5b5061028961049b3660046126cf565b6113f7565b3480156104ac57600080fd5b5061020e6104bb366004612224565b6114bc565b3480156104cc57600080fd5b506008546009546104e7916001600160a01b03908116911682565b604080516001600160a01b039384168152929091166020830152016101c0565b34801561051357600080fd5b506101b66105223660046123bd565b600c6020526000908152604090205481565b34801561054057600080fd5b5061028961054f3660046123bd565b6114c7565b34801561056057600080fd5b506101e961056f36600461273e565b600560209081526000928352604080842090915290825290205460ff1681565b34801561059b57600080fd5b506102896105aa3660046123bd565b6115b9565b3480156105bb57600080fd5b506102896105ca366004612771565b611678565b60006301ffc9a760e01b6001600160e01b03198316148061060057506380ac58cd60e01b6001600160e01b03198316145b8061061b5750635b5e139f60e01b6001600160e01b03198316145b92915050565b6000805461062e906127ad565b80601f016020809104026020016040519081016040528092919081815260200182805461065a906127ad565b80156106a75780601f1061067c576101008083540402835291602001916106a7565b820191906000526020600020905b81548152906001019060200180831161068a57829003601f168201915b505050505081565b6000818152600260205260409020546001600160a01b0316338114806106f857506001600160a01b038116600090815260056020908152604080832033845290915290205460ff165b61073a5760405162461bcd60e51b815260206004820152600e60248201526d1393d517d055551213d49256915160921b60448201526064015b60405180910390fd5b60008281526004602052604080822080546001600160a01b0319166001600160a01b0387811691821790925591518593918516917f8c5be1e5ebec7d5bd14f71427d1e84f3dd0314c0f7b2291e5b200ac8c7c3b92591a4505050565b6000818152600260205260408120546001600160a01b0316151590036107cf57604051632d14777560e11b815260040160405180910390fd5b6000818152600b6020908152604080832081516101a08101835281546001600160a01b039081168252600183015416938101939093526002810154918301919091526003810154606083015260048101546080830152600581015460a083015260068101805460c084019190610844906127ad565b80601f0160208091040260200160405190810160405280929190818152602001828054610870906127ad565b80156108bd5780601f10610892576101008083540402835291602001916108bd565b820191906000526020600020905b8154815290600101906020018083116108a057829003601f168201915b505050505081526020016007820180546108d6906127ad565b80601f0160208091040260200160405190810160405280929190818152602001828054610902906127ad565b801561094f5780601f106109245761010080835404028352916020019161094f565b820191906000526020600020905b81548152906001019060200180831161093257829003601f168201915b5050509183525050600882015460209091019060ff1660028111156109765761097661227e565b60028111156109875761098761227e565b815260088201546001600160a01b03610100909104811660208301526009830154166040820152600a8201546060820152600b90910154608090910152905060016000838152600b602052604090206008015460ff1660028111156109ee576109ee61227e565b14610a0c5760405163075802eb60e01b815260040160405180910390fd5b600081608001518260600151610a2291906127fd565b82516001600160a01b03166000908152600c6020526040812080549293508392909190610a50908490612815565b909155505060608201516101408301516001600160a01b03166000908152600d602052604081208054909190610a879084906127fd565b909155505060808201516101208301516001600160a01b03166000908152600d602052604081208054909190610abe9084906127fd565b909155506002905061010083018190525081516001600160a01b039081166000908152600360209081526040808320805460001901905561014086018051851684528184208054600190810190915581518986526002855283862080546001600160a01b031916918816919091179055815186168552601084528285208054918201815585529284204293019290925590518551915187949182169392909116917fddf252ad1be2c89b69c2b068fc378daa952ba7f163c4a11628f55a4df523b3ef91a460405183907f91dfc924b25cd3a750912075cf0e6bed2235ec6eca305e91b6124d90bf411b2590600090a2505050565b610bba612058565b6000828152600b602090815260409182902082516101a08101845281546001600160a01b039081168252600183015416928101929092526002810154928201929092526003820154606082015260048201546080820152600582015460a082015260068201805491929160c084019190610c33906127ad565b80601f0160208091040260200160405190810160405280929190818152602001828054610c5f906127ad565b8015610cac5780601f10610c8157610100808354040283529160200191610cac565b820191906000526020600020905b815481529060010190602001808311610c8f57829003601f168201915b50505050508152602001600782018054610cc5906127ad565b80601f0160208091040260200160405190810160405280929190818152602001828054610cf1906127ad565b8015610d3e5780601f10610d1357610100808354040283529160200191610d3e565b820191906000526020600020905b815481529060010190602001808311610d2157829003601f168201915b5050509183525050600882015460209091019060ff166002811115610d6557610d6561227e565b6002811115610d7657610d7661227e565b815260088201546001600160a01b03610100909104811660208301526009830154166040820152600a8201546060820152600b9091015460809091015292915050565b60106020528160005260406000208181548110610dd557600080fd5b90600052602060002001600091509150505481565b6040516358b2164f60e11b815260040160405180910390fd5b610e0e838383610dea565b6001600160a01b0382163b1580610eb75750604051630a85bd0160e11b8082523360048301526001600160a01b03858116602484015260448301849052608060648401526000608484015290919084169063150b7a029060a4016020604051808303816000875af1158015610e87573d6000803e3d6000fd5b505050506040513d601f19601f82011682018060405250810190610eab919061282c565b6001600160e01b031916145b610ed35760405162461bcd60e51b815260040161073190612849565b505050565b86610ee3898b6127fd565b610eed91906127fd565b3414610f0c57604051637832e81760e01b815260040160405180910390fd5b604051806101a001604052808c6001600160a01b031681526020018b6001600160a01b031681526020018a815260200189815260200188815260200187815260200183838080601f016020809104026020016040519081016040528093929190818152602001838380828437600092018290525093855250505060208201869052604090910190815260006020808301829052604080840183905260608085018b905260809485018a9052600680548552600b845293829020865181546001600160a01b039182166001600160a01b031991821617835588860151600184018054919093169116179055918601516002830155850151600382015592840151600484015560a0840151600584015560c084015180516110329385019291909101906120e3565b5060e0820151805161104e9160078401916020909101906120e3565b5061010082015160088201805460ff191660018360028111156110735761107361227e565b0217905550610120820151600882018054610100600160a81b0319166101006001600160a01b03938416021790556101408301516009830180546001600160a01b031916918316919091179055610160830151600a83015561018090920151600b909101558a166000908152600d602052604090208990556110f587896127fd565b6001600160a01b038c166000908152600e602052604090205560065461111c908c90611a80565b5050600680546001019055505050505050505050565b6000818152600260205260409020546001600160a01b0316806111845760405162461bcd60e51b815260206004820152600a6024820152691393d517d3525395115160b21b6044820152606401610731565b919050565b60006001600160a01b0382166111d05760405162461bcd60e51b815260206004820152600c60248201526b5a45524f5f4144445245535360a01b6044820152606401610731565b506001600160a01b031660009081526003602052604090205490565b600b6020526000908152604090208054600182015460028301546003840154600485015460058601546006870180546001600160a01b03978816989690971696949593949293919261123d906127ad565b80601f0160208091040260200160405190810160405280929190818152602001828054611269906127ad565b80156112b65780601f1061128b576101008083540402835291602001916112b6565b820191906000526020600020905b81548152906001019060200180831161129957829003601f168201915b5050505050908060070180546112cb906127ad565b80601f01602080910402602001604051908101604052809291908181526020018280546112f7906127ad565b80156113445780601f1061131957610100808354040283529160200191611344565b820191906000526020600020905b81548152906001019060200180831161132757829003601f168201915b50505060088401546009850154600a860154600b90960154949560ff8316956001600160a01b03610100909404841695509190921692508d565b6001805461062e906127ad565b3360008181526005602090815260408083206001600160a01b03871680855290835292819020805460ff191686151590811790915590519081529192917f17307eab39ab6107e8899845ad3d59bd9653f200f220920489ca2b5937696c31910160405180910390a35050565b611402858585610dea565b6001600160a01b0384163b15806114995750604051630a85bd0160e11b808252906001600160a01b0386169063150b7a029061144a9033908a90899089908990600401612873565b6020604051808303816000875af1158015611469573d6000803e3d6000fd5b505050506040513d601f19601f8201168201806040525081019061148d919061282c565b6001600160e01b031916145b6114b55760405162461bcd60e51b815260040161073190612849565b5050505050565b606061061b82611b4c565b6001600160a01b038116600090815260106020526040902054600a10611500576040516305113b2760e41b815260040160405180910390fd5b6001600160a01b0381166000908152601060205260408120805461152690600a90612815565b81548110611536576115366128c7565b9060005260206000200154905062278d00426115529190612815565b8110156115755760075461157590600890309085906001600160a01b0316611bdf565b604051600081526001600160a01b038316907ff107c9a55c1c8c5b73dd9e8516d71363e40fa2cd96b1063039020d13bac996b6906020015b60405180910390a25050565b600a546040516370a0823160e01b81526001600160a01b03838116600483015260009216906370a0823190602401602060405180830381865afa158015611604573d6000803e3d6000fd5b505050506040513d601f19601f8201168201806040525081019061162891906128dd565b9050600481101561164c5760405163aa70372b60e01b815260040160405180910390fd5b8060040361166057611660826103e8611c05565b8060050361167457611674826107d0611c05565b5050565b6000838152600260205260408120546001600160a01b0316151590036116b157604051632d14777560e11b815260040160405180910390fd5b6000838152600b602052604081206008015460ff1660028111156116d7576116d761227e565b146116f55760405163075802eb60e01b815260040160405180910390fd5b6000838152600b6020908152604080832081516101a08101835281546001600160a01b039081168252600183015416938101939093526002810154918301919091526003810154606083015260048101546080830152600581015460a083015260068101805460c08401919061176a906127ad565b80601f0160208091040260200160405190810160405280929190818152602001828054611796906127ad565b80156117e35780601f106117b8576101008083540402835291602001916117e3565b820191906000526020600020905b8154815290600101906020018083116117c657829003601f168201915b505050505081526020016007820180546117fc906127ad565b80601f0160208091040260200160405190810160405280929190818152602001828054611828906127ad565b80156118755780601f1061184a57610100808354040283529160200191611875565b820191906000526020600020905b81548152906001019060200180831161185857829003601f168201915b5050509183525050600882015460209091019060ff16600281111561189c5761189c61227e565b60028111156118ad576118ad61227e565b815260088201546001600160a01b03610100909104811660208301526009830154166040820152600a8201546060820152600b909101546080909101526101608101519091506118fc83611189565b101561191b5760405163be24598360e01b815260040160405180910390fd5b610180810151600a546040516370a0823160e01b81526001600160a01b038581166004830152909116906370a0823190602401602060405180830381865afa15801561196b573d6000803e3d6000fd5b505050506040513d601f19601f8201168201806040525081019061198f91906128dd565b10156119ae5760405163ab654faf60e01b815260040160405180910390fd5b6000816080015182606001516119c491906127fd565b82516001600160a01b03166000908152600e60205260408120805492935083929091906119f2908490612815565b909155505081516001600160a01b03166000908152600c602052604081208054839290611a209084906127fd565b90915550506001600160a01b0383811661014084018190529085166101208401819052600161010085015260405190919087907f3d6f754563e688abf06d08b529d2ee17ef5b7fcc177cd9dc1471a5f5efca69dc90600090a45050505050565b611a8a8282611cc8565b6001600160a01b0382163b1580611b305750604051630a85bd0160e11b80825233600483015260006024830181905260448301849052608060648401526084830152906001600160a01b0384169063150b7a029060a4016020604051808303816000875af1158015611b00573d6000803e3d6000fd5b505050506040513d601f19601f82011682018060405250810190611b24919061282c565b6001600160e01b031916145b6116745760405162461bcd60e51b815260040161073190612849565b60606000611b5983611dd3565b600101905060008167ffffffffffffffff811115611b7957611b79612414565b6040519080825280601f01601f191660200182016040528015611ba3576020820181803683370190505b5090508181016020015b600019016f181899199a1a9b1b9c1cb0b131b232b360811b600a86061a8153600a8504945084611bad57509392505050565b604080516000815260208101909152611bff908590859085908590611eab565b50505050565b6001600160a01b0382166000908152600f60205260408120549003611c59576001600160a01b038083166000908152600f6020526040902060019055600754611c549160089185911684611f8a565b611c89565b6001600160a01b038083166000908152600f6020526040902060029055600754611c899160089185911684611faa565b604051600b82900b81526001600160a01b038316907ff107c9a55c1c8c5b73dd9e8516d71363e40fa2cd96b1063039020d13bac996b6906020016115ad565b6001600160a01b038216611d125760405162461bcd60e51b81526020600482015260116024820152701253959053125117d49150d25412515395607a1b6044820152606401610731565b6000818152600260205260409020546001600160a01b031615611d685760405162461bcd60e51b815260206004820152600e60248201526d1053149150511657d3525395115160921b6044820152606401610731565b6001600160a01b038216600081815260036020908152604080832080546001019055848352600290915280822080546001600160a01b0319168417905551839291907fddf252ad1be2c89b69c2b068fc378daa952ba7f163c4a11628f55a4df523b3ef908290a45050565b60008072184f03e93ff9f4daa797ed6e38ed64bf6a1f0160401b8310611e125772184f03e93ff9f4daa797ed6e38ed64bf6a1f0160401b830492506040015b6d04ee2d6d415b85acef81000000008310611e3e576d04ee2d6d415b85acef8100000000830492506020015b662386f26fc100008310611e5c57662386f26fc10000830492506010015b6305f5e1008310611e74576305f5e100830492506008015b6127108310611e8857612710830492506004015b60648310611e9a576064830492506002015b600a831061061b5760010192915050565b845460018601546040805160008152602081019091526001600160a01b03928316926339255d5b921690819063b4b333c690611ef09088908b908b90604481016128f6565b60408051808303601f1901815291815260208201805160e094851b6001600160e01b03909116179052519185901b6001600160e01b0319168252611f3b939250908690600401612934565b6000604051808303816000875af1158015611f5a573d6000803e3d6000fd5b505050506040513d6000823e601f3d908101601f19168201604052611f82919081019061296a565b505050505050565b604080516000815260208101909152611bff908590859085908590611fca565b604080516000815260208101909152611bff90859085908590859061202e565b845460018601546001600160a01b03918216916339255d5b9116806362fc305e87898860005b6040519080825280601f01601f19166020018201604052801561201a576020820181803683370190505b50604051602401611ef094939291906129e1565b845460018601546001600160a01b03918216916339255d5b9116806350209a628789886000611ff0565b604051806101a0016040528060006001600160a01b0316815260200160006001600160a01b03168152602001600081526020016000815260200160008152602001600081526020016060815260200160608152602001600060028111156120c1576120c161227e565b8152600060208201819052604082018190526060820181905260809091015290565b8280546120ef906127ad565b90600052602060002090601f0160209004810192826121115760008555612157565b82601f1061212a57805160ff1916838001178555612157565b82800160010185558215612157579182015b8281111561215757825182559160200191906001019061213c565b50612163929150612167565b5090565b5b808211156121635760008155600101612168565b6001600160e01b03198116811461219257600080fd5b50565b6000602082840312156121a757600080fd5b81356121b28161217c565b9392505050565b60005b838110156121d45781810151838201526020016121bc565b83811115611bff5750506000910152565b600081518084526121fd8160208601602086016121b9565b601f01601f19169290920160200192915050565b6020815260006121b260208301846121e5565b60006020828403121561223657600080fd5b5035919050565b80356001600160a01b038116811461118457600080fd5b6000806040838503121561226757600080fd5b6122708361223d565b946020939093013593505050565b634e487b7160e01b600052602160045260246000fd5b600381106122b257634e487b7160e01b600052602160045260246000fd5b9052565b602081526122d06020820183516001600160a01b03169052565b600060208301516122ec60408401826001600160a01b03169052565b506040830151606083015260608301516080830152608083015160a083015260a083015160c083015260c08301516101a08060e08501526123316101c08501836121e5565b915060e0850151610100601f19868503018187015261235084836121e5565b93508087015191505061012061236881870183612294565b8601519050610140612384868201836001600160a01b03169052565b86015190506101606123a0868201836001600160a01b03169052565b860151610180868101919091529095015193019290925250919050565b6000602082840312156123cf57600080fd5b6121b28261223d565b6000806000606084860312156123ed57600080fd5b6123f68461223d565b92506124046020850161223d565b9150604084013590509250925092565b634e487b7160e01b600052604160045260246000fd5b604051601f8201601f1916810167ffffffffffffffff8111828210171561245357612453612414565b604052919050565b600067ffffffffffffffff82111561247557612475612414565b50601f01601f191660200190565b600082601f83011261249457600080fd5b81356124a76124a28261245b565b61242a565b8181528460208386010111156124bc57600080fd5b816020850160208301376000918101602001919091529392505050565b60008083601f8401126124eb57600080fd5b50813567ffffffffffffffff81111561250357600080fd5b60208301915083602082850101111561251b57600080fd5b9250929050565b60008060008060008060008060008060006101408c8e03121561254457600080fd5b61254d8c61223d565b9a5061255b60208d0161223d565b995060408c0135985060608c0135975060808c0135965060a08c0135955060c08c0135945060e08c0135935067ffffffffffffffff806101008e013511156125a257600080fd5b6125b38e6101008f01358f01612483565b9350806101208e013511156125c757600080fd5b506125d98d6101208e01358e016124d9565b81935080925050509295989b509295989b9093969950565b6001600160a01b038e811682528d166020820152604081018c9052606081018b9052608081018a905260a081018990526101a060c0820181905260009061263a9083018a6121e5565b82810360e084015261264c818a6121e5565b91505061265d610100830188612294565b6001600160a01b03868116610120840152851661014083015261016082019390935261018001529b9a5050505050505050505050565b600080604083850312156126a657600080fd5b6126af8361223d565b9150602083013580151581146126c457600080fd5b809150509250929050565b6000806000806000608086880312156126e757600080fd5b6126f08661223d565b94506126fe6020870161223d565b935060408601359250606086013567ffffffffffffffff81111561272157600080fd5b61272d888289016124d9565b969995985093965092949392505050565b6000806040838503121561275157600080fd5b61275a8361223d565b91506127686020840161223d565b90509250929050565b60008060006060848603121561278657600080fd5b833592506127966020850161223d565b91506127a46040850161223d565b90509250925092565b600181811c908216806127c157607f821691505b6020821081036127e157634e487b7160e01b600052602260045260246000fd5b50919050565b634e487b7160e01b600052601160045260246000fd5b60008219821115612810576128106127e7565b500190565b600082821015612827576128276127e7565b500390565b60006020828403121561283e57600080fd5b81516121b28161217c565b60208082526010908201526f155394d0519157d49150d2541251539560821b604082015260600190565b6001600160a01b038681168252851660208201526040810184905260806060820181905281018290526000828460a0840137600060a0848401015260a0601f19601f85011683010190509695505050505050565b634e487b7160e01b600052603260045260246000fd5b6000602082840312156128ef57600080fd5b5051919050565b6001600160a01b03858116825284811660208301528316604082015260806060820181905260009061292a908301846121e5565b9695505050505050565b6001600160a01b0384168152606060208201819052600090612958908301856121e5565b828103604084015261292a81856121e5565b60006020828403121561297c57600080fd5b815167ffffffffffffffff81111561299357600080fd5b8201601f810184136129a457600080fd5b80516129b26124a28261245b565b8181528560208385010111156129c757600080fd5b6129d88260208301602086016121b9565b95945050505050565b6001600160a01b03858116825284166020820152600b83900b604082015260806060820181905260009061292a908301846121e556fea2646970667358221220c456cc0ffb0d5036756b1afc5212a8eef605c8915bce5a710b1c27f34d5eec5764736f6c634300080d0033",
    "linkReferences": {}
  },
  "methodIdentifiers": {
    "approve(address,uint256)": "095ea7b3",
    "balanceOf(address)": "70a08231",
    "cancellableBalances(address)": "5ff2bc91",
    "cfaV1()": "d3112b2e",
    "claimSalary(address)": "ea3b0ea8",
    "claimTask(uint256,address,address)": "fc05b2e8",
    "closeTask(uint256)": "1201dfc6",
    "currentTokenId()": "009a9b7b",
    "escrowedBalances(address)": "d6074aba",
    "getApproved(uint256)": "081812fc",
    "getTask(uint256)": "1d65e77e",
    "incomeStates(address)": "2036acd2",
    "isApprovedForAll(address,address)": "e985e9c5",
    "mintTask(address,address,uint256,uint256,uint256,uint256,uint256,uint256,string,string)": "4cb88e97",
    "name()": "06fdde03",
    "ownerOf(uint256)": "6352211e",
    "safeTransferFrom(address,address,uint256)": "42842e0e",
    "safeTransferFrom(address,address,uint256,bytes)": "b88d4fde",
    "setApprovalForAll(address,bool)": "a22cb465",
    "stopSalary(address)": "e660bb0e",
    "supportsInterface(bytes4)": "01ffc9a7",
    "symbol()": "95d89b41",
    "tasks(uint256)": "8d977672",
    "tokenURI(uint256)": "c87b56dd",
    "transferFrom(address,address,uint256)": "23b872dd",
    "userCloseStamps(address,uint256)": "21f364b6",
    "withdrawableBalances(address)": "2b576f4e"
  },
  "id": 24
}