{
  "abi": [
    {
      "inputs": [
        {
          "internalType": "address",
          "name": "_edu_address",
          "type": "address"
        },
        {
          "internalType": "contract ISuperfluid",
          "name": "host",
          "type": "address"
        }
      ],
      "stateMutability": "nonpayable",
      "type": "constructor"
    },
    {
      "inputs": [],
      "name": "IncompatableStatus",
      "type": "error"
    },
    {
      "inputs": [],
      "name": "IncorrectEDU",
      "type": "error"
    },
    {
      "inputs": [],
      "name": "IncorrectFunds",
      "type": "error"
    },
    {
      "inputs": [],
      "name": "InsufficientEDU",
      "type": "error"
    },
    {
      "inputs": [],
      "name": "NonExistantTask",
      "type": "error"
    },
    {
      "inputs": [],
      "name": "NotEnoughWorkHistory",
      "type": "error"
    },
    {
      "inputs": [],
      "name": "NotWorkingEnough",
      "type": "error"
    },
    {
      "inputs": [],
      "name": "TokenIsSoulbound",
      "type": "error"
    },
    {
      "inputs": [],
      "name": "UnAuthorized",
      "type": "error"
    },
    {
      "anonymous": false,
      "inputs": [
        {
          "indexed": true,
          "internalType": "address",
          "name": "owner",
          "type": "address"
        },
        {
          "indexed": true,
          "internalType": "address",
          "name": "spender",
          "type": "address"
        },
        {
          "indexed": true,
          "internalType": "uint256",
          "name": "id",
          "type": "uint256"
        }
      ],
      "name": "Approval",
      "type": "event"
    },
    {
      "anonymous": false,
      "inputs": [
        {
          "indexed": true,
          "internalType": "address",
          "name": "owner",
          "type": "address"
        },
        {
          "indexed": true,
          "internalType": "address",
          "name": "operator",
          "type": "address"
        },
        {
          "indexed": false,
          "internalType": "bool",
          "name": "approved",
          "type": "bool"
        }
      ],
      "name": "ApprovalForAll",
      "type": "event"
    },
    {
      "anonymous": false,
      "inputs": [
        {
          "indexed": true,
          "internalType": "address",
          "name": "contractor",
          "type": "address"
        },
        {
          "indexed": false,
          "internalType": "int96",
          "name": "flow",
          "type": "int96"
        }
      ],
      "name": "StreamUpdated",
      "type": "event"
    },
    {
      "anonymous": false,
      "inputs": [
        {
          "indexed": true,
          "internalType": "uint256",
          "name": "tokenId",
          "type": "uint256"
        }
      ],
      "name": "TaskCancelled",
      "type": "event"
    },
    {
      "anonymous": false,
      "inputs": [
        {
          "indexed": true,
          "internalType": "uint256",
          "name": "tokenId",
          "type": "uint256"
        },
        {
          "indexed": true,
          "internalType": "address",
          "name": "contractor",
          "type": "address"
        },
        {
          "indexed": true,
          "internalType": "address",
          "name": "recruiter",
          "type": "address"
        }
      ],
      "name": "TaskClaimed",
      "type": "event"
    },
    {
      "anonymous": false,
      "inputs": [
        {
          "indexed": true,
          "internalType": "uint256",
          "name": "tokenId",
          "type": "uint256"
        }
      ],
      "name": "TaskClosed",
      "type": "event"
    },
    {
      "anonymous": false,
      "inputs": [
        {
          "indexed": true,
          "internalType": "uint256",
          "name": "tokenId",
          "type": "uint256"
        }
      ],
      "name": "TaskUnclaimed",
      "type": "event"
    },
    {
      "anonymous": false,
      "inputs": [
        {
          "indexed": true,
          "internalType": "address",
          "name": "from",
          "type": "address"
        },
        {
          "indexed": true,
          "internalType": "address",
          "name": "to",
          "type": "address"
        },
        {
          "indexed": true,
          "internalType": "uint256",
          "name": "id",
          "type": "uint256"
        }
      ],
      "name": "Transfer",
      "type": "event"
    },
    {
      "inputs": [
        {
          "internalType": "address",
          "name": "spender",
          "type": "address"
        },
        {
          "internalType": "uint256",
          "name": "id",
          "type": "uint256"
        }
      ],
      "name": "approve",
      "outputs": [],
      "stateMutability": "nonpayable",
      "type": "function"
    },
    {
      "inputs": [
        {
          "internalType": "address",
          "name": "owner",
          "type": "address"
        }
      ],
      "name": "balanceOf",
      "outputs": [
        {
          "internalType": "uint256",
          "name": "",
          "type": "uint256"
        }
      ],
      "stateMutability": "view",
      "type": "function"
    },
    {
      "inputs": [
        {
          "internalType": "address",
          "name": "",
          "type": "address"
        }
      ],
      "name": "cancellableBalances",
      "outputs": [
        {
          "internalType": "uint256",
          "name": "",
          "type": "uint256"
        }
      ],
      "stateMutability": "view",
      "type": "function"
    },
    {
      "inputs": [],
      "name": "cfaV1",
      "outputs": [
        {
          "internalType": "contract ISuperfluid",
          "name": "host",
          "type": "address"
        },
        {
          "internalType": "contract IConstantFlowAgreementV1",
          "name": "cfa",
          "type": "address"
        }
      ],
      "stateMutability": "view",
      "type": "function"
    },
    {
      "inputs": [
        {
          "internalType": "address",
          "name": "user",
          "type": "address"
        }
      ],
      "name": "claimSalary",
      "outputs": [],
      "stateMutability": "nonpayable",
      "type": "function"
    },
    {
      "inputs": [
        {
          "internalType": "uint256",
          "name": "_tokenId",
          "type": "uint256"
        },
        {
          "internalType": "address",
          "name": "_recruiter",
          "type": "address"
        },
        {
          "internalType": "address",
          "name": "_contractor",
          "type": "address"
        }
      ],
      "name": "claimTask",
      "outputs": [],
      "stateMutability": "nonpayable",
      "type": "function"
    },
    {
      "inputs": [
        {
          "internalType": "uint256",
          "name": "_tokenId",
          "type": "uint256"
        }
      ],
      "name": "closeTask",
      "outputs": [],
      "stateMutability": "nonpayable",
      "type": "function"
    },
    {
      "inputs": [],
      "name": "currentTokenId",
      "outputs": [
        {
          "internalType": "uint256",
          "name": "",
          "type": "uint256"
        }
      ],
      "stateMutability": "view",
      "type": "function"
    },
    {
      "inputs": [
        {
          "internalType": "address",
          "name": "",
          "type": "address"
        }
      ],
      "name": "escrowedBalances",
      "outputs": [
        {
          "internalType": "uint256",
          "name": "",
          "type": "uint256"
        }
      ],
      "stateMutability": "view",
      "type": "function"
    },
    {
      "inputs": [
        {
          "internalType": "uint256",
          "name": "",
          "type": "uint256"
        }
      ],
      "name": "getApproved",
      "outputs": [
        {
          "internalType": "address",
          "name": "",
          "type": "address"
        }
      ],
      "stateMutability": "view",
      "type": "function"
    },
    {
      "inputs": [
        {
          "internalType": "address",
          "name": "",
          "type": "address"
        }
      ],
      "name": "incomeStates",
      "outputs": [
        {
          "internalType": "uint256",
          "name": "",
          "type": "uint256"
        }
      ],
      "stateMutability": "view",
      "type": "function"
    },
    {
      "inputs": [
        {
          "internalType": "address",
          "name": "",
          "type": "address"
        },
        {
          "internalType": "address",
          "name": "",
          "type": "address"
        }
      ],
      "name": "isApprovedForAll",
      "outputs": [
        {
          "internalType": "bool",
          "name": "",
          "type": "bool"
        }
      ],
      "stateMutability": "view",
      "type": "function"
    },
    {
      "inputs": [
        {
          "internalType": "address",
          "name": "_employer",
          "type": "address"
        },
        {
          "internalType": "address",
          "name": "_creator",
          "type": "address"
        },
        {
          "internalType": "uint256",
          "name": "_creatorBounty",
          "type": "uint256"
        },
        {
          "internalType": "uint256",
          "name": "_contractorBounty",
          "type": "uint256"
        },
        {
          "internalType": "uint256",
          "name": "_recruiterBounty",
          "type": "uint256"
        },
        {
          "internalType": "uint256",
          "name": "_deadline",
          "type": "uint256"
        },
        {
          "internalType": "uint256",
          "name": "_minBalance",
          "type": "uint256"
        },
        {
          "internalType": "uint256",
          "name": "_minEdu",
          "type": "uint256"
        },
        {
          "internalType": "string",
          "name": "_tokenURI",
          "type": "string"
        }
      ],
      "name": "mintTask",
      "outputs": [],
      "stateMutability": "payable",
      "type": "function"
    },
    {
      "inputs": [],
      "name": "name",
      "outputs": [
        {
          "internalType": "string",
          "name": "",
          "type": "string"
        }
      ],
      "stateMutability": "view",
      "type": "function"
    },
    {
      "inputs": [
        {
          "internalType": "uint256",
          "name": "id",
          "type": "uint256"
        }
      ],
      "name": "ownerOf",
      "outputs": [
        {
          "internalType": "address",
          "name": "owner",
          "type": "address"
        }
      ],
      "stateMutability": "view",
      "type": "function"
    },
    {
      "inputs": [
        {
          "internalType": "address",
          "name": "from",
          "type": "address"
        },
        {
          "internalType": "address",
          "name": "to",
          "type": "address"
        },
        {
          "internalType": "uint256",
          "name": "id",
          "type": "uint256"
        }
      ],
      "name": "safeTransferFrom",
      "outputs": [],
      "stateMutability": "nonpayable",
      "type": "function"
    },
    {
      "inputs": [
        {
          "internalType": "address",
          "name": "from",
          "type": "address"
        },
        {
          "internalType": "address",
          "name": "to",
          "type": "address"
        },
        {
          "internalType": "uint256",
          "name": "id",
          "type": "uint256"
        },
        {
          "internalType": "bytes",
          "name": "data",
          "type": "bytes"
        }
      ],
      "name": "safeTransferFrom",
      "outputs": [],
      "stateMutability": "nonpayable",
      "type": "function"
    },
    {
      "inputs": [
        {
          "internalType": "address",
          "name": "operator",
          "type": "address"
        },
        {
          "internalType": "bool",
          "name": "approved",
          "type": "bool"
        }
      ],
      "name": "setApprovalForAll",
      "outputs": [],
      "stateMutability": "nonpayable",
      "type": "function"
    },
    {
      "inputs": [
        {
          "internalType": "address",
          "name": "user",
          "type": "address"
        }
      ],
      "name": "stopSalary",
      "outputs": [],
      "stateMutability": "nonpayable",
      "type": "function"
    },
    {
      "inputs": [
        {
          "internalType": "bytes4",
          "name": "interfaceId",
          "type": "bytes4"
        }
      ],
      "name": "supportsInterface",
      "outputs": [
        {
          "internalType": "bool",
          "name": "",
          "type": "bool"
        }
      ],
      "stateMutability": "view",
      "type": "function"
    },
    {
      "inputs": [],
      "name": "symbol",
      "outputs": [
        {
          "internalType": "string",
          "name": "",
          "type": "string"
        }
      ],
      "stateMutability": "view",
      "type": "function"
    },
    {
      "inputs": [
        {
          "internalType": "uint256",
          "name": "",
          "type": "uint256"
        }
      ],
      "name": "tasks",
      "outputs": [
        {
          "internalType": "address",
          "name": "employer",
          "type": "address"
        },
        {
          "internalType": "address",
          "name": "creator",
          "type": "address"
        },
        {
          "internalType": "uint256",
          "name": "creatorBounty",
          "type": "uint256"
        },
        {
          "internalType": "uint256",
          "name": "contractorBounty",
          "type": "uint256"
        },
        {
          "internalType": "uint256",
          "name": "recruiterBounty",
          "type": "uint256"
        },
        {
          "internalType": "uint256",
          "name": "deadline",
          "type": "uint256"
        },
        {
          "internalType": "string",
          "name": "tokenURI",
          "type": "string"
        },
        {
          "internalType": "enum Uplift.Status",
          "name": "status",
          "type": "uint8"
        },
        {
          "internalType": "address",
          "name": "recruiter",
          "type": "address"
        },
        {
          "internalType": "address",
          "name": "contractor",
          "type": "address"
        },
        {
          "internalType": "uint256",
          "name": "minBalance",
          "type": "uint256"
        },
        {
          "internalType": "uint256",
          "name": "minEdu",
          "type": "uint256"
        }
      ],
      "stateMutability": "view",
      "type": "function"
    },
    {
      "inputs": [
        {
          "internalType": "uint256",
          "name": "id",
          "type": "uint256"
        }
      ],
      "name": "tokenURI",
      "outputs": [
        {
          "internalType": "string",
          "name": "",
          "type": "string"
        }
      ],
      "stateMutability": "view",
      "type": "function"
    },
    {
      "inputs": [
        {
          "internalType": "address",
          "name": "",
          "type": "address"
        },
        {
          "internalType": "address",
          "name": "",
          "type": "address"
        },
        {
          "internalType": "uint256",
          "name": "",
          "type": "uint256"
        }
      ],
      "name": "transferFrom",
      "outputs": [],
      "stateMutability": "pure",
      "type": "function"
    },
    {
      "inputs": [
        {
          "internalType": "address",
          "name": "",
          "type": "address"
        },
        {
          "internalType": "uint256",
          "name": "",
          "type": "uint256"
        }
      ],
      "name": "userCloseStamps",
      "outputs": [
        {
          "internalType": "uint256",
          "name": "",
          "type": "uint256"
        }
      ],
      "stateMutability": "view",
      "type": "function"
    },
    {
      "inputs": [
        {
          "internalType": "address",
          "name": "",
          "type": "address"
        }
      ],
      "name": "withdrawableBalances",
      "outputs": [
        {
          "internalType": "uint256",
          "name": "",
          "type": "uint256"
        }
      ],
      "stateMutability": "view",
      "type": "function"
    }
  ],
  "bytecode": {
    "object": "0x6080604052600780546001600160a01b031916735d8b4c2554aeb7e86f387b4d6c00ac33499ed01f1790553480156200003757600080fd5b50604051620027b4380380620027b48339810160408190526200005a9162000275565b6040805180820182526006815265155c1b1a599d60d21b6020808301918252835180850190945260048452631312519560e21b908401528151919291620000a491600091620001b6565b508051620000ba906001906020840190620001b6565b5050600a80546001600160a01b0319166001600160a01b03858116919091179091556040805180820182529184168083529051635b69006f60e11b81527fa9214cc96615e0085d3bb077758db69497dc2dce3b2b1e97bc93c3d18d83efd36004820152919250602083019163b6d200de90602401602060405180830381865afa1580156200014c573d6000803e3d6000fd5b505050506040513d601f19601f82011682018060405250810190620001729190620002b4565b6001600160a01b039081169091528151600880546001600160a01b031990811692841692909217905560209092015160098054909316911617905550620003179050565b828054620001c490620002db565b90600052602060002090601f016020900481019282620001e8576000855562000233565b82601f106200020357805160ff191683800117855562000233565b8280016001018555821562000233579182015b828111156200023357825182559160200191906001019062000216565b506200024192915062000245565b5090565b5b8082111562000241576000815560010162000246565b6001600160a01b03811681146200027257600080fd5b50565b600080604083850312156200028957600080fd5b825162000296816200025c565b6020840151909250620002a9816200025c565b809150509250929050565b600060208284031215620002c757600080fd5b8151620002d4816200025c565b9392505050565b600181811c90821680620002f057607f821691505b6020821081036200031157634e487b7160e01b600052602260045260246000fd5b50919050565b61248d80620003276000396000f3fe6080604052600436106101805760003560e01c806370a08231116100d1578063d3112b2e1161008a578063e660bb0e11610064578063e660bb0e146104eb578063e985e9c51461050b578063ea3b0ea814610546578063fc05b2e81461056657600080fd5b8063d3112b2e14610464578063d6074aba146104ab578063e600c351146104d857600080fd5b806370a08231146103975780638d977672146103b757806395d89b41146103ef578063a22cb46514610404578063b88d4fde14610424578063c87b56dd1461044457600080fd5b80632036acd21161013e5780632b576f4e116101185780632b576f4e146102fd57806342842e0e1461032a5780635ff2bc911461034a5780636352211e1461037757600080fd5b80632036acd21461029057806321f364b6146102bd57806323b872dd146102dd57600080fd5b80629a9b7b1461018557806301ffc9a7146101ae57806306fdde03146101de578063081812fc14610200578063095ea7b31461024e5780631201dfc614610270575b600080fd5b34801561019157600080fd5b5061019b60065481565b6040519081526020015b60405180910390f35b3480156101ba57600080fd5b506101ce6101c9366004611d98565b610586565b60405190151581526020016101a5565b3480156101ea57600080fd5b506101f36105d8565b6040516101a59190611e14565b34801561020c57600080fd5b5061023661021b366004611e27565b6004602052600090815260409020546001600160a01b031681565b6040516001600160a01b0390911681526020016101a5565b34801561025a57600080fd5b5061026e610269366004611e57565b610666565b005b34801561027c57600080fd5b5061026e61028b366004611e27565b61074d565b34801561029c57600080fd5b5061019b6102ab366004611e81565b600f6020526000908152604090205481565b3480156102c957600080fd5b5061019b6102d8366004611e57565b610b01565b3480156102e957600080fd5b5061026e6102f8366004611e9c565b610b32565b34801561030957600080fd5b5061019b610318366004611e81565b600d6020526000908152604090205481565b34801561033657600080fd5b5061026e610345366004611e9c565b610b4b565b34801561035657600080fd5b5061019b610365366004611e81565b600e6020526000908152604090205481565b34801561038357600080fd5b50610236610392366004611e27565b610c20565b3480156103a357600080fd5b5061019b6103b2366004611e81565b610c77565b3480156103c357600080fd5b506103d76103d2366004611e27565b610cda565b6040516101a59c9b9a99989796959493929190611eee565b3480156103fb57600080fd5b506101f3610dde565b34801561041057600080fd5b5061026e61041f366004611f9b565b610deb565b34801561043057600080fd5b5061026e61043f366004612020565b610e57565b34801561045057600080fd5b506101f361045f366004611e27565b610f1c565b34801561047057600080fd5b5060085460095461048b916001600160a01b03908116911682565b604080516001600160a01b039384168152929091166020830152016101a5565b3480156104b757600080fd5b5061019b6104c6366004611e81565b600c6020526000908152604090205481565b61026e6104e636600461208f565b610f27565b3480156104f757600080fd5b5061026e610506366004611e81565b611160565b34801561051757600080fd5b506101ce610526366004612132565b600560209081526000928352604080842090915290825290205460ff1681565b34801561055257600080fd5b5061026e610561366004611e81565b611248565b34801561057257600080fd5b5061026e610581366004612165565b6113ab565b60006301ffc9a760e01b6001600160e01b0319831614806105b757506380ac58cd60e01b6001600160e01b03198316145b806105d25750635b5e139f60e01b6001600160e01b03198316145b92915050565b600080546105e5906121a1565b80601f0160208091040260200160405190810160405280929190818152602001828054610611906121a1565b801561065e5780601f106106335761010080835404028352916020019161065e565b820191906000526020600020905b81548152906001019060200180831161064157829003601f168201915b505050505081565b6000818152600260205260409020546001600160a01b0316338114806106af57506001600160a01b038116600090815260056020908152604080832033845290915290205460ff165b6106f15760405162461bcd60e51b815260206004820152600e60248201526d1393d517d055551213d49256915160921b60448201526064015b60405180910390fd5b60008281526004602052604080822080546001600160a01b0319166001600160a01b0387811691821790925591518593918516917f8c5be1e5ebec7d5bd14f71427d1e84f3dd0314c0f7b2291e5b200ac8c7c3b92591a4505050565b6000818152600260205260408120546001600160a01b03161515900361078657604051632d14777560e11b815260040160405180910390fd5b6000818152600b6020908152604080832081516101808101835281546001600160a01b039081168252600183015416938101939093526002810154918301919091526003810154606083015260048101546080830152600581015460a083015260068101805460c0840191906107fb906121a1565b80601f0160208091040260200160405190810160405280929190818152602001828054610827906121a1565b80156108745780601f1061084957610100808354040283529160200191610874565b820191906000526020600020905b81548152906001019060200180831161085757829003601f168201915b5050509183525050600782015460209091019060ff16600281111561089b5761089b611ed8565b60028111156108ac576108ac611ed8565b815260078201546001600160a01b0361010090910481166020830152600883015416604082015260098201546060820152600a90910154608090910152905060016000838152600b602052604090206007015460ff16600281111561091357610913611ed8565b146109315760405163075802eb60e01b815260040160405180910390fd5b6101208101516001600160a01b0316331461095f5760405163be24598360e01b815260040160405180910390fd5b60008160800151826060015161097591906121f1565b82516001600160a01b03166000908152600c60205260408120805492935083929091906109a3908490612209565b909155505060608201516101208301516001600160a01b03166000908152600d6020526040812080549091906109da9084906121f1565b909155505060808201516101008301516001600160a01b03166000908152600d602052604081208054909190610a119084906121f1565b909155506002905060e083018190525081516001600160a01b039081166000908152600360209081526040808320805460001901905561012086018051851684528184208054600190810190915581518986526002855283862080546001600160a01b031916918816919091179055338552601084528285208054918201815585529284204293019290925590518551915187949182169392909116917fddf252ad1be2c89b69c2b068fc378daa952ba7f163c4a11628f55a4df523b3ef91a460405183907f91dfc924b25cd3a750912075cf0e6bed2235ec6eca305e91b6124d90bf411b2590600090a2505050565b60106020528160005260406000208181548110610b1d57600080fd5b90600052602060002001600091509150505481565b6040516358b2164f60e11b815260040160405180910390fd5b610b56838383610b32565b6001600160a01b0382163b1580610bff5750604051630a85bd0160e11b8082523360048301526001600160a01b03858116602484015260448301849052608060648401526000608484015290919084169063150b7a029060a4016020604051808303816000875af1158015610bcf573d6000803e3d6000fd5b505050506040513d601f19601f82011682018060405250810190610bf39190612220565b6001600160e01b031916145b610c1b5760405162461bcd60e51b81526004016106e89061223d565b505050565b6000818152600260205260409020546001600160a01b031680610c725760405162461bcd60e51b815260206004820152600a6024820152691393d517d3525395115160b21b60448201526064016106e8565b919050565b60006001600160a01b038216610cbe5760405162461bcd60e51b815260206004820152600c60248201526b5a45524f5f4144445245535360a01b60448201526064016106e8565b506001600160a01b031660009081526003602052604090205490565b600b6020526000908152604090208054600182015460028301546003840154600485015460058601546006870180546001600160a01b039788169896909716969495939492939192610d2b906121a1565b80601f0160208091040260200160405190810160405280929190818152602001828054610d57906121a1565b8015610da45780601f10610d7957610100808354040283529160200191610da4565b820191906000526020600020905b815481529060010190602001808311610d8757829003601f168201915b505050600784015460088501546009860154600a90960154949560ff8316956001600160a01b03610100909404841695509190921692508c565b600180546105e5906121a1565b3360008181526005602090815260408083206001600160a01b03871680855290835292819020805460ff191686151590811790915590519081529192917f17307eab39ab6107e8899845ad3d59bd9653f200f220920489ca2b5937696c31910160405180910390a35050565b610e62858585610b32565b6001600160a01b0384163b1580610ef95750604051630a85bd0160e11b808252906001600160a01b0386169063150b7a0290610eaa9033908a90899089908990600401612267565b6020604051808303816000875af1158015610ec9573d6000803e3d6000fd5b505050506040513d601f19601f82011682018060405250810190610eed9190612220565b6001600160e01b031916145b610f155760405162461bcd60e51b81526004016106e89061223d565b5050505050565b60606105d28261171e565b85610f32888a6121f1565b610f3c91906121f1565b3414610f5b57604051637832e81760e01b815260040160405180910390fd5b6040518061018001604052808b6001600160a01b031681526020018a6001600160a01b0316815260200189815260200188815260200187815260200186815260200183838080601f0160208091040260200160405190810160405280939291908181526020018383808284376000920182905250938552505060209092019150815260006020808301829052604080840183905260608085018a90526080948501899052600680548552600b845293829020865181546001600160a01b039182166001600160a01b031991821617835588860151600184018054919093169116179055918601516002830155850151600382015592840151600484015560a0840151600584015560c0840151805161107a938501929190910190611ce6565b5060e082015160078201805460ff1916600183600281111561109e5761109e611ed8565b021790555061010082810151600783018054610100600160a81b0319166001600160a01b03928316909302929092179091556101208301516008830180546001600160a01b031916918316919091179055610140830151600983015561016090920151600a9091015589166000908152600d6020526040902088905561112486886121f1565b6001600160a01b038b166000908152600e602052604090205560065461114b908b906117b1565b50506006805460010190555050505050505050565b33600090815260106020526040902054600a10611190576040516305113b2760e41b815260040160405180910390fd5b6001600160a01b038116600090815260106020526040812080546111b690600a90612209565b815481106111c6576111c66122bb565b9060005260206000200154905062278d00426111e29190612209565b8110156112055760075461120590600890309085906001600160a01b0316611881565b604051600081526001600160a01b038316907ff107c9a55c1c8c5b73dd9e8516d71363e40fa2cd96b1063039020d13bac996b69060200160405180910390a25050565b600a546040516370a0823160e01b81523360048201526000916001600160a01b0316906370a0823190602401602060405180830381865afa158015611291573d6000803e3d6000fd5b505050506040513d601f19601f820116820180604052508101906112b591906122d1565b6001600160a01b038316600090815260106020526040902054909150600a106112f1576040516305113b2760e41b815260040160405180910390fd5b6001600160a01b0382166000908152601060205260408120805461131790600a90612209565b81548110611327576113276122bb565b9060005260206000200154905062278d00426113439190612209565b81101561136357604051631827246560e31b815260040160405180910390fd5b60048210156113855760405163aa70372b60e01b815260040160405180910390fd5b81600403611398576113986103e86118a7565b81600503610c1b57610c1b6109c46118a7565b6000838152600260205260408120546001600160a01b0316151590036113e457604051632d14777560e11b815260040160405180910390fd5b6000838152600b602052604081206007015460ff16600281111561140a5761140a611ed8565b146114285760405163075802eb60e01b815260040160405180910390fd5b6000838152600b6020908152604080832081516101808101835281546001600160a01b039081168252600183015416938101939093526002810154918301919091526003810154606083015260048101546080830152600581015460a083015260068101805460c08401919061149d906121a1565b80601f01602080910402602001604051908101604052809291908181526020018280546114c9906121a1565b80156115165780601f106114eb57610100808354040283529160200191611516565b820191906000526020600020905b8154815290600101906020018083116114f957829003601f168201915b5050509183525050600782015460209091019060ff16600281111561153d5761153d611ed8565b600281111561154e5761154e611ed8565b815260078201546001600160a01b0361010090910481166020830152600883015416604082015260098201546060820152600a9091015460809091015261014081015190915061159d33610c77565b10156115bc5760405163be24598360e01b815260040160405180910390fd5b610160810151600a546040516370a0823160e01b81523360048201526001600160a01b03909116906370a0823190602401602060405180830381865afa15801561160a573d6000803e3d6000fd5b505050506040513d601f19601f8201168201806040525081019061162e91906122d1565b101561164d5760405163ab654faf60e01b815260040160405180910390fd5b60008160800151826060015161166391906121f1565b82516001600160a01b03166000908152600e6020526040812080549293508392909190611691908490612209565b909155505081516001600160a01b03166000908152600c6020526040812080548392906116bf9084906121f1565b90915550506001600160a01b0383811661012084018190529085166101008401819052600160e085015260405190919087907f3d6f754563e688abf06d08b529d2ee17ef5b7fcc177cd9dc1471a5f5efca69dc90600090a45050505050565b6060600061172b83611956565b600101905060008167ffffffffffffffff81111561174b5761174b6122ea565b6040519080825280601f01601f191660200182016040528015611775576020820181803683370190505b5090508181016020015b600019016f181899199a1a9b1b9c1cb0b131b232b360811b600a86061a8153600a850494508461177f57509392505050565b6117bb8282611a2e565b6001600160a01b0382163b15806118615750604051630a85bd0160e11b80825233600483015260006024830181905260448301849052608060648401526084830152906001600160a01b0384169063150b7a029060a4016020604051808303816000875af1158015611831573d6000803e3d6000fd5b505050506040513d601f19601f820116820180604052508101906118559190612220565b6001600160e01b031916145b61187d5760405162461bcd60e51b81526004016106e89061223d565b5050565b6040805160008152602081019091526118a1908590859085908590611b39565b50505050565b336000908152600f602052604081205490036118ee57336000818152600f60205260409020600190556007546118e9916008916001600160a01b031684611c18565b61191a565b336000818152600f602052604090206002905560075461191a916008916001600160a01b031684611c38565b604051600b82900b815233907ff107c9a55c1c8c5b73dd9e8516d71363e40fa2cd96b1063039020d13bac996b69060200160405180910390a250565b60008072184f03e93ff9f4daa797ed6e38ed64bf6a1f0160401b83106119955772184f03e93ff9f4daa797ed6e38ed64bf6a1f0160401b830492506040015b6d04ee2d6d415b85acef810000000083106119c1576d04ee2d6d415b85acef8100000000830492506020015b662386f26fc1000083106119df57662386f26fc10000830492506010015b6305f5e10083106119f7576305f5e100830492506008015b6127108310611a0b57612710830492506004015b60648310611a1d576064830492506002015b600a83106105d25760010192915050565b6001600160a01b038216611a785760405162461bcd60e51b81526020600482015260116024820152701253959053125117d49150d25412515395607a1b60448201526064016106e8565b6000818152600260205260409020546001600160a01b031615611ace5760405162461bcd60e51b815260206004820152600e60248201526d1053149150511657d3525395115160921b60448201526064016106e8565b6001600160a01b038216600081815260036020908152604080832080546001019055848352600290915280822080546001600160a01b0319168417905551839291907fddf252ad1be2c89b69c2b068fc378daa952ba7f163c4a11628f55a4df523b3ef908290a45050565b845460018601546040805160008152602081019091526001600160a01b03928316926339255d5b921690819063b4b333c690611b7e9088908b908b9060448101612300565b60408051808303601f1901815291815260208201805160e094851b6001600160e01b03909116179052519185901b6001600160e01b0319168252611bc993925090869060040161233e565b6000604051808303816000875af1158015611be8573d6000803e3d6000fd5b505050506040513d6000823e601f3d908101601f19168201604052611c109190810190612374565b505050505050565b6040805160008152602081019091526118a1908590859085908590611c58565b6040805160008152602081019091526118a1908590859085908590611cbc565b845460018601546001600160a01b03918216916339255d5b9116806362fc305e87898860005b6040519080825280601f01601f191660200182016040528015611ca8576020820181803683370190505b50604051602401611b7e9493929190612421565b845460018601546001600160a01b03918216916339255d5b9116806350209a628789886000611c7e565b828054611cf2906121a1565b90600052602060002090601f016020900481019282611d145760008555611d5a565b82601f10611d2d57805160ff1916838001178555611d5a565b82800160010185558215611d5a579182015b82811115611d5a578251825591602001919060010190611d3f565b50611d66929150611d6a565b5090565b5b80821115611d665760008155600101611d6b565b6001600160e01b031981168114611d9557600080fd5b50565b600060208284031215611daa57600080fd5b8135611db581611d7f565b9392505050565b60005b83811015611dd7578181015183820152602001611dbf565b838111156118a15750506000910152565b60008151808452611e00816020860160208601611dbc565b601f01601f19169290920160200192915050565b602081526000611db56020830184611de8565b600060208284031215611e3957600080fd5b5035919050565b80356001600160a01b0381168114610c7257600080fd5b60008060408385031215611e6a57600080fd5b611e7383611e40565b946020939093013593505050565b600060208284031215611e9357600080fd5b611db582611e40565b600080600060608486031215611eb157600080fd5b611eba84611e40565b9250611ec860208501611e40565b9150604084013590509250925092565b634e487b7160e01b600052602160045260246000fd5b600060018060a01b03808f168352808e166020840152508b60408301528a60608301528960808301528860a083015261018060c0830152611f33610180830189611de8565b905060038710611f5357634e487b7160e01b600052602160045260246000fd5b8660e0830152611f6f6101008301876001600160a01b03169052565b6001600160a01b03851661012083015261014082019390935261016001529a9950505050505050505050565b60008060408385031215611fae57600080fd5b611fb783611e40565b915060208301358015158114611fcc57600080fd5b809150509250929050565b60008083601f840112611fe957600080fd5b50813567ffffffffffffffff81111561200157600080fd5b60208301915083602082850101111561201957600080fd5b9250929050565b60008060008060006080868803121561203857600080fd5b61204186611e40565b945061204f60208701611e40565b935060408601359250606086013567ffffffffffffffff81111561207257600080fd5b61207e88828901611fd7565b969995985093965092949392505050565b6000806000806000806000806000806101208b8d0312156120af57600080fd5b6120b88b611e40565b99506120c660208c01611e40565b985060408b0135975060608b0135965060808b0135955060a08b0135945060c08b0135935060e08b013592506101008b013567ffffffffffffffff81111561210d57600080fd5b6121198d828e01611fd7565b915080935050809150509295989b9194979a5092959850565b6000806040838503121561214557600080fd5b61214e83611e40565b915061215c60208401611e40565b90509250929050565b60008060006060848603121561217a57600080fd5b8335925061218a60208501611e40565b915061219860408501611e40565b90509250925092565b600181811c908216806121b557607f821691505b6020821081036121d557634e487b7160e01b600052602260045260246000fd5b50919050565b634e487b7160e01b600052601160045260246000fd5b60008219821115612204576122046121db565b500190565b60008282101561221b5761221b6121db565b500390565b60006020828403121561223257600080fd5b8151611db581611d7f565b60208082526010908201526f155394d0519157d49150d2541251539560821b604082015260600190565b6001600160a01b038681168252851660208201526040810184905260806060820181905281018290526000828460a0840137600060a0848401015260a0601f19601f85011683010190509695505050505050565b634e487b7160e01b600052603260045260246000fd5b6000602082840312156122e357600080fd5b5051919050565b634e487b7160e01b600052604160045260246000fd5b6001600160a01b03858116825284811660208301528316604082015260806060820181905260009061233490830184611de8565b9695505050505050565b6001600160a01b038416815260606020820181905260009061236290830185611de8565b82810360408401526123348185611de8565b60006020828403121561238657600080fd5b815167ffffffffffffffff8082111561239e57600080fd5b818401915084601f8301126123b257600080fd5b8151818111156123c4576123c46122ea565b604051601f8201601f19908116603f011681019083821181831017156123ec576123ec6122ea565b8160405282815287602084870101111561240557600080fd5b612416836020830160208801611dbc565b979650505050505050565b6001600160a01b03858116825284166020820152600b83900b604082015260806060820181905260009061233490830184611de856fea26469706673582212206f2b419c3248657fb89e01578d4f91192fd4b7eb5bc1d10434c0cb37aa4fd55e64736f6c634300080d0033",
    "linkReferences": {}
  },
  "methodIdentifiers": {
    "approve(address,uint256)": "095ea7b3",
    "balanceOf(address)": "70a08231",
    "cancellableBalances(address)": "5ff2bc91",
    "cfaV1()": "d3112b2e",
    "claimSalary(address)": "ea3b0ea8",
    "claimTask(uint256,address,address)": "fc05b2e8",
    "closeTask(uint256)": "1201dfc6",
    "currentTokenId()": "009a9b7b",
    "escrowedBalances(address)": "d6074aba",
    "getApproved(uint256)": "081812fc",
    "incomeStates(address)": "2036acd2",
    "isApprovedForAll(address,address)": "e985e9c5",
    "mintTask(address,address,uint256,uint256,uint256,uint256,uint256,uint256,string)": "e600c351",
    "name()": "06fdde03",
    "ownerOf(uint256)": "6352211e",
    "safeTransferFrom(address,address,uint256)": "42842e0e",
    "safeTransferFrom(address,address,uint256,bytes)": "b88d4fde",
    "setApprovalForAll(address,bool)": "a22cb465",
    "stopSalary(address)": "e660bb0e",
    "supportsInterface(bytes4)": "01ffc9a7",
    "symbol()": "95d89b41",
    "tasks(uint256)": "8d977672",
    "tokenURI(uint256)": "c87b56dd",
    "transferFrom(address,address,uint256)": "23b872dd",
    "userCloseStamps(address,uint256)": "21f364b6",
    "withdrawableBalances(address)": "2b576f4e"
  },
  "id": 18
}